{
  "contractName": "ArbitrableProxy",
  "abi": [
    {
      "anonymous": false,
      "inputs": [
        {
          "indexed": true,
          "internalType": "contract IArbitrator",
          "name": "arbitrator",
          "type": "address"
        },
        {
          "indexed": true,
          "internalType": "uint256",
          "name": "disputeID",
          "type": "uint256"
        },
        {
          "indexed": true,
          "internalType": "uint256",
          "name": "round",
          "type": "uint256"
        },
        {
          "indexed": false,
          "internalType": "uint256",
          "name": "ruling",
          "type": "uint256"
        },
        {
          "indexed": false,
          "internalType": "address",
          "name": "contributor",
          "type": "address"
        },
        {
          "indexed": false,
          "internalType": "uint256",
          "name": "amount",
          "type": "uint256"
        }
      ],
      "name": "Contribution",
      "type": "event"
    },
    {
      "anonymous": false,
      "inputs": [
        {
          "indexed": true,
          "internalType": "contract IArbitrator",
          "name": "_arbitrator",
          "type": "address"
        },
        {
          "indexed": true,
          "internalType": "uint256",
          "name": "_disputeID",
          "type": "uint256"
        },
        {
          "indexed": false,
          "internalType": "uint256",
          "name": "_metaEvidenceID",
          "type": "uint256"
        },
        {
          "indexed": false,
          "internalType": "uint256",
          "name": "_evidenceGroupID",
          "type": "uint256"
        }
      ],
      "name": "Dispute",
      "type": "event"
    },
    {
      "anonymous": false,
      "inputs": [
        {
          "indexed": true,
          "internalType": "contract IArbitrator",
          "name": "_arbitrator",
          "type": "address"
        },
        {
          "indexed": true,
          "internalType": "uint256",
          "name": "_evidenceGroupID",
          "type": "uint256"
        },
        {
          "indexed": true,
          "internalType": "address",
          "name": "_party",
          "type": "address"
        },
        {
          "indexed": false,
          "internalType": "string",
          "name": "_evidence",
          "type": "string"
        }
      ],
      "name": "Evidence",
      "type": "event"
    },
    {
      "anonymous": false,
      "inputs": [
        {
          "indexed": true,
          "internalType": "uint256",
          "name": "_metaEvidenceID",
          "type": "uint256"
        },
        {
          "indexed": false,
          "internalType": "string",
          "name": "_evidence",
          "type": "string"
        }
      ],
      "name": "MetaEvidence",
      "type": "event"
    },
    {
      "anonymous": false,
      "inputs": [
        {
          "indexed": true,
          "internalType": "contract IArbitrator",
          "name": "_arbitrator",
          "type": "address"
        },
        {
          "indexed": true,
          "internalType": "uint256",
          "name": "_disputeID",
          "type": "uint256"
        },
        {
          "indexed": false,
          "internalType": "uint256",
          "name": "_ruling",
          "type": "uint256"
        }
      ],
      "name": "Ruling",
      "type": "event"
    },
    {
      "anonymous": false,
      "inputs": [
        {
          "indexed": true,
          "internalType": "contract IArbitrator",
          "name": "arbitrator",
          "type": "address"
        },
        {
          "indexed": true,
          "internalType": "uint256",
          "name": "disputeID",
          "type": "uint256"
        },
        {
          "indexed": true,
          "internalType": "uint256",
          "name": "round",
          "type": "uint256"
        },
        {
          "indexed": false,
          "internalType": "uint256",
          "name": "ruling",
          "type": "uint256"
        }
      ],
      "name": "RulingFunded",
      "type": "event"
    },
    {
      "anonymous": false,
      "inputs": [
        {
          "indexed": true,
          "internalType": "contract IArbitrator",
          "name": "arbitrator",
          "type": "address"
        },
        {
          "indexed": true,
          "internalType": "uint256",
          "name": "disputeID",
          "type": "uint256"
        },
        {
          "indexed": true,
          "internalType": "uint256",
          "name": "round",
          "type": "uint256"
        },
        {
          "indexed": false,
          "internalType": "uint256",
          "name": "ruling",
          "type": "uint256"
        },
        {
          "indexed": false,
          "internalType": "address",
          "name": "contributor",
          "type": "address"
        },
        {
          "indexed": false,
          "internalType": "uint256",
          "name": "reward",
          "type": "uint256"
        }
      ],
      "name": "Withdrawal",
      "type": "event"
    },
    {
      "inputs": [],
      "name": "MAX_NO_OF_CHOICES",
      "outputs": [
        {
          "internalType": "uint256",
          "name": "",
          "type": "uint256"
        }
      ],
      "stateMutability": "view",
      "type": "function"
    },
    {
      "inputs": [],
      "name": "MULTIPLIER_DIVISOR",
      "outputs": [
        {
          "internalType": "uint256",
          "name": "",
          "type": "uint256"
        }
      ],
      "stateMutability": "view",
      "type": "function"
    },
    {
      "inputs": [],
      "name": "VERSION",
      "outputs": [
        {
          "internalType": "string",
          "name": "",
          "type": "string"
        }
      ],
      "stateMutability": "view",
      "type": "function"
    },
    {
      "inputs": [
        {
          "internalType": "contract IArbitrator",
          "name": "",
          "type": "address"
        },
        {
          "internalType": "uint256",
          "name": "",
          "type": "uint256"
        }
      ],
      "name": "disputeIDtoDisputeStruct",
      "outputs": [
        {
          "internalType": "bytes",
          "name": "arbitratorExtraData",
          "type": "bytes"
        },
        {
          "internalType": "bool",
          "name": "isRuled",
          "type": "bool"
        },
        {
          "internalType": "uint256",
          "name": "ruling",
          "type": "uint256"
        },
        {
          "internalType": "uint256",
          "name": "numberOfRulingOptions",
          "type": "uint256"
        }
      ],
      "stateMutability": "view",
      "type": "function"
    },
    {
      "inputs": [
        {
          "internalType": "contract IArbitrator",
          "name": "",
          "type": "address"
        },
        {
          "internalType": "uint256",
          "name": "",
          "type": "uint256"
        },
        {
          "internalType": "uint256",
          "name": "",
          "type": "uint256"
        }
      ],
      "name": "disputeIDtoRoundArray",
      "outputs": [
        {
          "internalType": "uint256",
          "name": "feeRewards",
          "type": "uint256"
        }
      ],
      "stateMutability": "view",
      "type": "function"
    },
    {
      "inputs": [
        {
          "internalType": "uint256",
          "name": "",
          "type": "uint256"
        }
      ],
      "name": "disputes",
      "outputs": [
        {
          "internalType": "bytes",
          "name": "arbitratorExtraData",
          "type": "bytes"
        },
        {
          "internalType": "bool",
          "name": "isRuled",
          "type": "bool"
        },
        {
          "internalType": "uint256",
          "name": "ruling",
          "type": "uint256"
        },
        {
          "internalType": "uint256",
          "name": "numberOfRulingOptions",
          "type": "uint256"
        }
      ],
      "stateMutability": "view",
      "type": "function"
    },
    {
      "inputs": [],
      "name": "governor",
      "outputs": [
        {
          "internalType": "address",
          "name": "",
          "type": "address"
        }
      ],
      "stateMutability": "view",
      "type": "function"
    },
    {
      "inputs": [],
      "name": "loserAppealPeriodMultiplier",
      "outputs": [
        {
          "internalType": "uint256",
          "name": "",
          "type": "uint256"
        }
      ],
      "stateMutability": "view",
      "type": "function"
    },
    {
      "inputs": [],
      "name": "loserStakeMultiplier",
      "outputs": [
        {
          "internalType": "uint256",
          "name": "",
          "type": "uint256"
        }
      ],
      "stateMutability": "view",
      "type": "function"
    },
    {
      "inputs": [],
      "name": "tieStakeMultiplier",
      "outputs": [
        {
          "internalType": "uint256",
          "name": "",
          "type": "uint256"
        }
      ],
      "stateMutability": "view",
      "type": "function"
    },
    {
      "inputs": [],
      "name": "winnerStakeMultiplier",
      "outputs": [
        {
          "internalType": "uint256",
          "name": "",
          "type": "uint256"
        }
      ],
      "stateMutability": "view",
      "type": "function"
    },
    {
      "inputs": [
        {
          "internalType": "contract IArbitrator",
          "name": "_arbitrator",
          "type": "address"
        },
        {
          "internalType": "bytes",
          "name": "_arbitratorExtraData",
          "type": "bytes"
        },
        {
          "internalType": "string",
          "name": "_metaevidenceURI",
          "type": "string"
        },
        {
          "internalType": "uint256",
          "name": "_numberOfRulingOptions",
          "type": "uint256"
        }
      ],
      "name": "createDispute",
      "outputs": [
        {
          "internalType": "uint256",
          "name": "disputeID",
          "type": "uint256"
        }
      ],
      "stateMutability": "payable",
      "type": "function"
    },
    {
      "inputs": [
        {
          "internalType": "contract IArbitrator",
          "name": "_arbitrator",
          "type": "address"
        },
        {
          "internalType": "uint256",
          "name": "_disputeID",
          "type": "uint256"
        }
      ],
      "name": "numberOfRulingOptions",
      "outputs": [
        {
          "internalType": "uint256",
          "name": "count",
          "type": "uint256"
        }
      ],
      "stateMutability": "view",
      "type": "function"
    },
    {
      "inputs": [
        {
          "internalType": "contract IArbitrator",
          "name": "_arbitrator",
          "type": "address"
        },
        {
          "internalType": "uint256",
          "name": "_disputeID",
          "type": "uint256"
        },
        {
          "internalType": "uint256",
          "name": "_ruling",
          "type": "uint256"
        }
      ],
      "name": "fundAppeal",
      "outputs": [
        {
          "internalType": "bool",
          "name": "fullyFunded",
          "type": "bool"
        }
      ],
      "stateMutability": "payable",
      "type": "function"
    },
    {
      "inputs": [
        {
          "internalType": "contract IArbitrator",
          "name": "arbitrator",
          "type": "address"
        },
        {
          "internalType": "uint256",
          "name": "_disputeID",
          "type": "uint256"
        },
        {
          "internalType": "address payable",
          "name": "_contributor",
          "type": "address"
        },
        {
          "internalType": "uint256",
          "name": "_roundNumber",
          "type": "uint256"
        },
        {
          "internalType": "uint256",
          "name": "_ruling",
          "type": "uint256"
        }
      ],
      "name": "withdrawFeesAndRewards",
      "outputs": [
        {
          "internalType": "uint256",
          "name": "sum",
          "type": "uint256"
        }
      ],
      "stateMutability": "nonpayable",
      "type": "function"
    },
    {
      "inputs": [
        {
          "internalType": "contract IArbitrator",
          "name": "arbitrator",
          "type": "address"
        },
        {
          "internalType": "uint256",
          "name": "_disputeID",
          "type": "uint256"
        },
        {
          "internalType": "address payable",
          "name": "_contributor",
          "type": "address"
        },
        {
          "internalType": "uint256",
          "name": "_roundNumber",
          "type": "uint256"
        },
        {
          "internalType": "uint256[]",
          "name": "_contributedTo",
          "type": "uint256[]"
        }
      ],
      "name": "withdrawFeesAndRewardsForMultipleRulings",
      "outputs": [],
      "stateMutability": "nonpayable",
      "type": "function"
    },
    {
      "inputs": [
        {
          "internalType": "contract IArbitrator",
          "name": "arbitrator",
          "type": "address"
        },
        {
          "internalType": "uint256",
          "name": "_disputeID",
          "type": "uint256"
        },
        {
          "internalType": "address payable",
          "name": "_contributor",
          "type": "address"
        },
        {
          "internalType": "uint256[]",
          "name": "_contributedTo",
          "type": "uint256[]"
        }
      ],
      "name": "withdrawFeesAndRewardsForAllRounds",
      "outputs": [],
      "stateMutability": "nonpayable",
      "type": "function"
    },
    {
      "inputs": [
        {
          "internalType": "contract IArbitrator",
          "name": "arbitrator",
          "type": "address"
        },
        {
          "internalType": "uint256",
          "name": "_disputeID",
          "type": "uint256"
        },
        {
          "internalType": "address payable",
          "name": "_contributor",
          "type": "address"
        },
        {
          "internalType": "uint256[]",
          "name": "_contributedTo",
          "type": "uint256[]"
        }
      ],
      "name": "getTotalWithdrawableAmount",
      "outputs": [
        {
          "internalType": "uint256",
          "name": "sum",
          "type": "uint256"
        }
      ],
      "stateMutability": "view",
      "type": "function"
    },
    {
      "inputs": [
        {
          "internalType": "uint256",
          "name": "_externalDisputeID",
          "type": "uint256"
        },
        {
          "internalType": "uint256",
          "name": "_ruling",
          "type": "uint256"
        }
      ],
      "name": "rule",
      "outputs": [],
      "stateMutability": "nonpayable",
      "type": "function"
    },
    {
      "inputs": [
        {
          "internalType": "contract IArbitrator",
          "name": "arbitrator",
          "type": "address"
        },
        {
          "internalType": "uint256",
          "name": "_disputeID",
          "type": "uint256"
        },
        {
          "internalType": "string",
          "name": "_evidenceURI",
          "type": "string"
        }
      ],
      "name": "submitEvidence",
      "outputs": [],
      "stateMutability": "nonpayable",
      "type": "function"
    },
    {
      "inputs": [
        {
          "internalType": "address",
          "name": "_newGovernor",
          "type": "address"
        }
      ],
      "name": "setGovernor",
      "outputs": [],
      "stateMutability": "nonpayable",
      "type": "function"
    },
    {
      "inputs": [
        {
          "internalType": "uint256",
          "name": "_winnerStakeMultiplier",
          "type": "uint256"
        },
        {
          "internalType": "uint256",
          "name": "_loserStakeMultiplier",
          "type": "uint256"
        },
        {
          "internalType": "uint256",
          "name": "_tieStakeMultiplier",
          "type": "uint256"
        },
        {
          "internalType": "uint256",
          "name": "_loserAppealPeriodMultiplier",
          "type": "uint256"
        }
      ],
      "name": "changeMultipliers",
      "outputs": [],
      "stateMutability": "nonpayable",
      "type": "function"
    },
    {
      "inputs": [],
      "name": "getMultipliers",
      "outputs": [
        {
          "internalType": "uint256",
          "name": "_winnerStakeMultiplier",
          "type": "uint256"
        },
        {
          "internalType": "uint256",
          "name": "_loserStakeMultiplier",
          "type": "uint256"
        },
        {
          "internalType": "uint256",
          "name": "_tieStakeMultiplier",
          "type": "uint256"
        },
        {
          "internalType": "uint256",
          "name": "_loserAppealPeriodMultiplier",
          "type": "uint256"
        },
        {
          "internalType": "uint256",
          "name": "divisor",
          "type": "uint256"
        }
      ],
      "stateMutability": "view",
      "type": "function"
    }
  ],
  "bytecode": "0x608060405260008054600160a060020a031916331790556127106001819055614e2060025560035561138860045534801561003957600080fd5b506125f0806100496000396000f3fe60806040526004361061019d576000357c01000000000000000000000000000000000000000000000000000000009004806367519fdd116100f3578063a723d6fa1161009c578063d661dd3111610076578063d661dd31146108c1578063ec388cc5146108d6578063ffa1ad741461091c5761019d565b8063a723d6fa146107f9578063c42cf53514610845578063cf38fb8e146108855761019d565b80638ea6baff116100cd5780638ea6baff146106ab57806394c1d371146106c05780639b806aed1461079f5761019d565b806367519fdd146105a657806379873f8a146106565780637b943383146106965761019d565b8063311a6c5611610155578063392b55c01161012f578063392b55c0146104c8578063564a565d146104dd5780635e021908146105075761019d565b8063311a6c561461039c57806337d0beba146103cc5780633822fa77146104755761019d565b80631c5064f8116101865780631c5064f8146102075780631d512085146102dc57806321a15e12146102f15761019d565b80630c139eb4146101a25780630c340a24146101c9575b600080fd5b3480156101ae57600080fd5b506101b76109a6565b60408051918252519081900360200190f35b3480156101d557600080fd5b506101de6109ac565b6040805173ffffffffffffffffffffffffffffffffffffffff9092168252519081900360200190f35b34801561021357600080fd5b5061024d6004803603604081101561022a57600080fd5b5073ffffffffffffffffffffffffffffffffffffffff81351690602001356109c8565b60405180806020018515158152602001848152602001838152602001828103825286818151815260200191508051906020019080838360005b8381101561029e578181015183820152602001610286565b50505050905090810190601f1680156102cb5780820380516001836020036101000a031916815260200191505b509550505050505060405180910390f35b3480156102e857600080fd5b506101b7610aa6565b3480156102fd57600080fd5b5061039a6004803603608081101561031457600080fd5b73ffffffffffffffffffffffffffffffffffffffff823581169260208101359260408201359092169181019060808101606082013564010000000081111561035b57600080fd5b82018360208201111561036d57600080fd5b8035906020019184602083028401116401000000008311171561038f57600080fd5b509092509050610aac565b005b3480156103a857600080fd5b5061039a600480360360408110156103bf57600080fd5b5080359060200135610b06565b3480156103d857600080fd5b506101b7600480360360808110156103ef57600080fd5b73ffffffffffffffffffffffffffffffffffffffff823581169260208101359260408201359092169181019060808101606082013564010000000081111561043657600080fd5b82018360208201111561044857600080fd5b8035906020019184602083028401116401000000008311171561046a57600080fd5b509092509050610cf7565b6104b46004803603606081101561048b57600080fd5b5073ffffffffffffffffffffffffffffffffffffffff8135169060208101359060400135611029565b604080519115158252519081900360200190f35b3480156104d457600080fd5b506101b76115a9565b3480156104e957600080fd5b5061024d6004803603602081101561050057600080fd5b50356115cd565b34801561051357600080fd5b5061039a6004803603606081101561052a57600080fd5b73ffffffffffffffffffffffffffffffffffffffff8235169160208101359181019060608101604082013564010000000081111561056757600080fd5b82018360208201111561057957600080fd5b8035906020019184600183028401116401000000008311171561059b57600080fd5b509092509050611669565b3480156105b257600080fd5b5061039a600480360360a08110156105c957600080fd5b73ffffffffffffffffffffffffffffffffffffffff82358116926020810135926040820135909216916060820135919081019060a08101608082013564010000000081111561061757600080fd5b82018360208201111561062957600080fd5b8035906020019184602083028401116401000000008311171561064b57600080fd5b5090925090506117ab565b34801561066257600080fd5b5061066b6117e9565b6040805195865260208601949094528484019290925260608401526080830152519081900360a00190f35b3480156106a257600080fd5b506101b76117ff565b3480156106b757600080fd5b506101b7611805565b6101b7600480360360808110156106d657600080fd5b73ffffffffffffffffffffffffffffffffffffffff823516919081019060408101602082013564010000000081111561070e57600080fd5b82018360208201111561072057600080fd5b8035906020019184600183028401116401000000008311171561074257600080fd5b91939092909160208101903564010000000081111561076057600080fd5b82018360208201111561077257600080fd5b8035906020019184600183028401116401000000008311171561079457600080fd5b91935091503561180b565b3480156107ab57600080fd5b506101b7600480360360a08110156107c257600080fd5b5073ffffffffffffffffffffffffffffffffffffffff81358116916020810135916040820135169060608101359060800135611b21565b34801561080557600080fd5b506101b76004803603606081101561081c57600080fd5b5073ffffffffffffffffffffffffffffffffffffffff8135169060208101359060400135611e5d565b34801561085157600080fd5b5061039a6004803603602081101561086857600080fd5b503573ffffffffffffffffffffffffffffffffffffffff16611ea1565b34801561089157600080fd5b5061039a600480360360808110156108a857600080fd5b5080359060208101359060408101359060600135611f58565b3480156108cd57600080fd5b506101b7611fdc565b3480156108e257600080fd5b506101b7600480360360408110156108f957600080fd5b5073ffffffffffffffffffffffffffffffffffffffff8135169060200135611fe2565b34801561092857600080fd5b50610931612019565b6040805160208082528351818301528351919283929083019185019080838360005b8381101561096b578181015183820152602001610953565b50505050905090810190601f1680156109985780820380516001836020036101000a031916815260200191505b509250505060405180910390f35b60045481565b60005473ffffffffffffffffffffffffffffffffffffffff1681565b600660209081526000928352604080842082529183529181902080548251601f60027fffffffffffffffffffffffffffffffffffffffffffffffffffffffffffffffff61010060018616150201909316929092049182018590048502810185019093528083529092839190830182828015610a845780601f10610a5957610100808354040283529160200191610a84565b820191906000526020600020905b815481529060010190602001808311610a6757829003601f168201915b5050505060018301546002840154600390940154929360ff9091169290915084565b60025481565b73ffffffffffffffffffffffffffffffffffffffff85166000908152600760209081526040808320878452909152812054905b81811015610afd57610af58787878488886117ab565b600101610adf565b50505050505050565b33600090815260066020908152604080832085845290915290206003810154821115610b9357604080517f08c379a000000000000000000000000000000000000000000000000000000000815260206004820152600f60248201527f496e76616c69642072756c696e672e0000000000000000000000000000000000604482015290519081900360640190fd5b600181015460ff1615610bf1576040517f08c379a00000000000000000000000000000000000000000000000000000000081526004018080602001828103825260248152602001806125266024913960400191505060405180910390fd5b600181810180547fffffffffffffffffffffffffffffffffffffffffffffffffffffffffffffff00169091179055600281018290553360009081526007602090815260408083208684529091528120805490919082907fffffffffffffffffffffffffffffffffffffffffffffffffffffffffffffffff8101908110610c7357fe5b90600052602060002090600502019050806004018054905060011415610cb55780600401600081548110610ca357fe5b60009182526020909120015460028401555b60028301546040805191825251869133917f394027a5fa6e098a1191094d1719d6929b9abc535fcc0c8f448d6a4e756222769181900360200190a35050505050565b73ffffffffffffffffffffffffffffffffffffffff85166000908152600760209081526040808320878452909152812054815b8181101561101e5760005b848110156110155773ffffffffffffffffffffffffffffffffffffffff891660008181526006602090815260408083208c84528252808320938352600782528083208c84529091528120805485908110610d8b57fe5b6000918252602082206002850154600590920201925090898986818110610dae57fe5b60018701546020909102929092013592505060ff16610e2e57604080517f08c379a000000000000000000000000000000000000000000000000000000000815260206004820152601c60248201527f54686520646973707574652073686f756c6420626520736f6c76656400000000604482015290519081900360640190fd5b600081815260018401602052604090205460ff16610e835773ffffffffffffffffffffffffffffffffffffffff8b16600090815260028401602090815260408083208484529091529020549790970196611005565b81811415610f2657600081815260208490526040902054610ea5576000610f1d565b8260000160008281526020019081526020016000205483600301548460020160008e73ffffffffffffffffffffffffffffffffffffffff1673ffffffffffffffffffffffffffffffffffffffff1681526020019081526020016000206000848152602001908152602001600020540281610f1b57fe5b045b88019750611005565b600082815260018401602052604090205460ff166110055782600001600084600401600181548110610f5457fe5b906000526020600020015481526020019081526020016000205483600001600085600401600081548110610f8457fe5b90600052602060002001548152602001908152602001600020540183600301548460020160008e73ffffffffffffffffffffffffffffffffffffffff1673ffffffffffffffffffffffffffffffffffffffff1681526020019081526020016000206000848152602001908152602001600020540281610fff57fe5b04880197505b505060019092019150610d359050565b50600101610d2a565b505095945050505050565b73ffffffffffffffffffffffffffffffffffffffff83166000908152600660209081526040808320858452909152812060038101548311156110cc57604080517f08c379a000000000000000000000000000000000000000000000000000000000815260206004820181905260248201527f5468657265206973206e6f20737563682072756c696e6720746f2066756e642e604482015290519081900360640190fd5b60008573ffffffffffffffffffffffffffffffffffffffff16631c3db16d866040518263ffffffff167c01000000000000000000000000000000000000000000000000000000000281526004018082815260200191505060206040518083038186803b15801561113b57600080fd5b505afa15801561114f573d6000803e3d6000fd5b505050506040513d602081101561116557600080fd5b5051905061117586868684612052565b600080611184888888866121f2565b73ffffffffffffffffffffffffffffffffffffffff8a1660009081526007602090815260408083208c845290915281208054939550919350909190827fffffffffffffffffffffffffffffffffffffffffffffffffffffffffffffffff83018381106111ec57fe5b600091825260208083208c84526001600590930201918201905260409091205490915060ff1615611268576040517f08c379a000000000000000000000000000000000000000000000000000000000815260040180806020018281038252602181526020018061256d6021913960400191505060405180910390fd5b600089815260208290526040812054903461128387846123b4565b116112975761129286836123b4565b611299565b345b9050600184038c8e73ffffffffffffffffffffffffffffffffffffffff167f645957daaec86fc2c1e6fa5c093b6599fd79b23029f2f8bbc6bf905ffb9640cc8e3386604051808481526020018373ffffffffffffffffffffffffffffffffffffffff168152602001828152602001935050505060405180910390a433600090815260028401602090815260408083208e845282528083208054850190559085905290209181019182905585821061140957818360030160008282540192505081905550826004018b908060018154018082558091505060019003906000526020600020016000909190919091505560018360010160008d815260200190815260200160002060006101000a81548160ff021916908315150217905550600184038c8e73ffffffffffffffffffffffffffffffffffffffff167f5c018be841f5c9c5b31141a3f6734f1a0477967583f1ecd16b1f1a6cb3a843488e6040518082815260200191505060405180910390a45b60048301546001101561154f57845460010185556000859052600383015461143190886123b4565b83600301819055508c73ffffffffffffffffffffffffffffffffffffffff166349912f88888e8c6000016040518463ffffffff167c010000000000000000000000000000000000000000000000000000000002815260040180838152602001806020018281038252838181546001816001161561010002031660029004815260200191508054600181600116156101000203166002900480156115155780601f106114ea57610100808354040283529160200191611515565b820191906000526020600020905b8154815290600101906020018083116114f857829003601f168201915b505093505050506000604051808303818588803b15801561153557600080fd5b505af1158015611549573d6000803e3d6000fd5b50505050505b336108fc61155d34846123b4565b6040518115909202916000818181858888f19350505050158015611585573d6000803e3d6000fd5b5050506000988952600101602052505060409095205460ff16979650505050505050565b7ffffffffffffffffffffffffffffffffffffffffffffffffffffffffffffffffe81565b600581815481106115dd57600080fd5b60009182526020918290206004919091020180546040805160026001841615610100027fffffffffffffffffffffffffffffffffffffffffffffffffffffffffffffffff0190931692909204601f810185900485028301850190915280825291935091839190830182828015610a845780601f10610a5957610100808354040283529160200191610a84565b73ffffffffffffffffffffffffffffffffffffffff841660009081526006602090815260408083208684529091529020600181015460ff16156116f7576040517f08c379a000000000000000000000000000000000000000000000000000000000815260040180806020018281038252602d81526020018061258e602d913960400191505060405180910390fd5b3373ffffffffffffffffffffffffffffffffffffffff16848673ffffffffffffffffffffffffffffffffffffffff167fdccf2f8b2cc26eafcd61905cba744cff4b81d14740725f6376390dc6298a6a3c868660405180806020018281038252848482818152602001925080828437600083820152604051601f9091017fffffffffffffffffffffffffffffffffffffffffffffffffffffffffffffffe0169092018290039550909350505050a45050505050565b8060005b818110156117df576117d6888888888888878181106117ca57fe5b90506020020135611b21565b506001016117af565b5050505050505050565b6001546002546003546004546127109091929394565b60015481565b60035481565b600081611836577ffffffffffffffffffffffffffffffffffffffffffffffffffffffffffffffffe91505b8673ffffffffffffffffffffffffffffffffffffffff1663c13517e1348489896040518563ffffffff167c010000000000000000000000000000000000000000000000000000000002815260040180848152602001806020018281038252848482818152602001925080828437600083820152604051601f9091017fffffffffffffffffffffffffffffffffffffffffffffffffffffffffffffffe01690920196506020955090935050508184039050818588803b1580156118f757600080fd5b505af115801561190b573d6000803e3d6000fd5b50505050506040513d602081101561192257600080fd5b50516040805160a06020601f8a018190040282018101909252608081018881529293509182918990899081908501838280828437600092018290525093855250505060208083018290526040808401839052606090930186905273ffffffffffffffffffffffffffffffffffffffff8b1682526006815282822085835281529190208251805191926119b992849290910190612456565b50602082810151600183810180547fffffffffffffffffffffffffffffffffffffffffffffffffffffffffffffff001692151592909217909155604080850151600285015560609094015160039093019290925573ffffffffffffffffffffffffffffffffffffffff8a1660009081526007825283812085825282528381208054909301835591909152815181815290810185905282917f61606860eb6c87306811e2695215385101daab53bd6ab4e9f9049aead9363c7d91879187919081908101848480828437600083820152604051601f9091017fffffffffffffffffffffffffffffffffffffffffffffffffffffffffffffffe0169092018290039550909350505050a2808773ffffffffffffffffffffffffffffffffffffffff167f74baab670a4015ab2f1b467c5252a96141a2573f2908e58a92081e80d3cfde3d8384604051808381526020018281526020019250505060405180910390a39695505050505050565b73ffffffffffffffffffffffffffffffffffffffff851660008181526006602090815260408083208884528252808320938352600782528083208884529091528120805491929183919086908110611b7557fe5b600091825260209091206001840154600590920201915060ff16611bfa57604080517f08c379a000000000000000000000000000000000000000000000000000000000815260206004820152601c60248201527f54686520646973707574652073686f756c6420626520736f6c76656400000000604482015290519081900360640190fd5b600084815260018201602052604090205460ff16611c4f5773ffffffffffffffffffffffffffffffffffffffff8616600090815260028201602090815260408083208784529091529020549290920191611d88565b8160020154841415611cc45760008481526020829052604090205480611c76576000611cba565b600382015473ffffffffffffffffffffffffffffffffffffffff88166000908152600284016020908152604080832089845290915290205482910281611cb857fe5b045b8401935050611d88565b6002820154600090815260018201602052604090205460ff16611d885780600001600082600401600181548110611cf757fe5b906000526020600020015481526020019081526020016000205481600001600083600401600081548110611d2757fe5b60009182526020808320909101548352828101939093526040918201812054600386015473ffffffffffffffffffffffffffffffffffffffff8c1683526002870185528383208a8452909452919020549201910281611d8257fe5b04830192505b73ffffffffffffffffffffffffffffffffffffffff861660009081526002820160209081526040808320878452909152812055821561101e5760405173ffffffffffffffffffffffffffffffffffffffff87169084156108fc029085906000818181858888f150506040805188815273ffffffffffffffffffffffffffffffffffffffff8b8116602083015281830189905291518a95508c9450918d1692507f10e6602262e2224b516e5379572a14b221c38f2a3b96df11dec135be6ac10101919081900360600190a4505095945050505050565b60076020528260005260406000206020528160005260406000208181548110611e8557600080fd5b6000918252602090912060036005909202010154925083915050565b60005473ffffffffffffffffffffffffffffffffffffffff163314611f11576040517f08c379a000000000000000000000000000000000000000000000000000000000815260040180806020018281038252602381526020018061254a6023913960400191505060405180910390fd5b600080547fffffffffffffffffffffffff00000000000000000000000000000000000000001673ffffffffffffffffffffffffffffffffffffffff92909216919091179055565b60005473ffffffffffffffffffffffffffffffffffffffff163314611fc8576040517f08c379a000000000000000000000000000000000000000000000000000000000815260040180806020018281038252602381526020018061254a6023913960400191505060405180910390fd5b600193909355600291909155600355600455565b61271081565b73ffffffffffffffffffffffffffffffffffffffff9091166000908152600660209081526040808320938352929052206003015490565b6040518060400160405280600581526020017f312e302e3000000000000000000000000000000000000000000000000000000081525081565b6000808573ffffffffffffffffffffffffffffffffffffffff1663afe15cfb866040518263ffffffff167c010000000000000000000000000000000000000000000000000000000002815260040180828152602001915050604080518083038186803b1580156120c157600080fd5b505afa1580156120d5573d6000803e3d6000fd5b505050506040513d60408110156120eb57600080fd5b508051602090910151909250905082841480612105575082155b156121735781421015801561211957508042105b61216e576040517f08c379a000000000000000000000000000000000000000000000000000000000815260040180806020018281038252602e8152602001806124f8602e913960400191505060405180910390fd5b6121ea565b8142101580156121955750612710600454838303028161218f57fe5b04820142105b6121ea576040517f08c379a000000000000000000000000000000000000000000000000000000000815260040180806020018281038252602e8152602001806124f8602e913960400191505060405180910390fd5b505050505050565b73ffffffffffffffffffffffffffffffffffffffff841660009081526006602090815260408083208684529091528120819081908461223557600354915061224d565b8486141561224757600154915061224d565b60025491505b604080517ff23f16e60000000000000000000000000000000000000000000000000000000081526004810189815260248201928352835460027fffffffffffffffffffffffffffffffffffffffffffffffffffffffffffffffff61010060018416150201909116046044830181905260009373ffffffffffffffffffffffffffffffffffffffff8d169363f23f16e6938d938893919260640190849080156123365780601f1061230b57610100808354040283529160200191612336565b820191906000526020600020905b81548152906001019060200180831161231957829003601f168201915b5050935050505060206040518083038186803b15801561235557600080fd5b505afa158015612369573d6000803e3d6000fd5b505050506040513d602081101561237f57600080fd5b50519050806123a461271061239483876123d1565b8161239b57fe5b84919004612423565b9450945050505094509492505050565b6000828211156123c6575060006123cb565b508082035b92915050565b6000826123e0575060006123cb565b828202828482816123ed57fe5b0414612419577fffffffffffffffffffffffffffffffffffffffffffffffffffffffffffffffff61241b565b805b949350505050565b600082820183811015612419577fffffffffffffffffffffffffffffffffffffffffffffffffffffffffffffffff61241b565b828054600181600116156101000203166002900490600052602060002090601f01602090048101928261248c57600085556124d2565b82601f106124a557805160ff19168380011785556124d2565b828001600101855582156124d2579182015b828111156124d25782518255916020019190600101906124b7565b506124de9291506124e2565b5090565b5b808211156124de57600081556001016124e356fe46756e64696e67206d757374206265206d6164652077697468696e207468652061707065616c20706572696f642e54686973206469737075746520686173206265656e2072756c656420616c72656164792e4f6e6c792074686520676f7665726e6f722063616e206578656375746520746869732e41707065616c206665652068617320616c7265616479206265656e20706169642e43616e6e6f74207375626d69742065766964656e636520746f2061207265736f6c76656420646973707574652ea26469706673582212206d93191d69ffcff2230250ba8de42d498b1198b1a7d4d4f0970d9ca530b9f06964736f6c63430007060033",
  "immutableReferences": {},
  "source": "// SPDX-License-Identifier: MIT\n\n/**\n *  @authors: [@ferittuncer]\n *  @reviewers: [@fnanni-0*, @unknownunknown1*, @mtsalenc]\n *  @auditors: []\n *  @bounties: []\n *  @deployments: []\n */\n\npragma solidity >=0.7;\n\nimport \"./IDisputeResolver.sol\";\nimport \"@kleros/ethereum-libraries/contracts/CappedMath.sol\";\n\n/**\n *  @title ArbitrableProxy\n *  A general purpose arbitrable contract. Supports non-binary rulings.\n */\ncontract ArbitrableProxy is IDisputeResolver {\n    using CappedMath for uint256; // Operations bounded between 0 and 2**256 - 2. Note the 0 is reserver for invalid / refused to rule.\n\n    uint256 public constant MAX_NO_OF_CHOICES = (2**256) - 2;\n\n    struct Round {\n        mapping(uint256 => uint256) paidFees; // Tracks the fees paid for each ruling option in this round.\n        mapping(uint256 => bool) hasPaid; // True if this ruling option was fully funded; false otherwise.\n        mapping(address => mapping(uint256 => uint256)) contributions; // Maps contributors to their contributions for each side.\n        uint256 feeRewards; // Sum of reimbursable appeal fees available to the parties that made contributions to the ruling that ultimately wins a dispute.\n        uint256[] fundedRulings; // Stores the ruling options that are fully funded.\n    }\n\n    struct DisputeStruct {\n        bytes arbitratorExtraData;\n        bool isRuled;\n        uint256 ruling;\n        uint256 numberOfRulingOptions;\n    }\n\n    address public governor = msg.sender;\n\n    // The required fee stake that a party must pay depends on who won the previous round and is proportional to the arbitration cost such that the fee stake for a round is stake multiplier * arbitration cost for that round.\n    uint256 public winnerStakeMultiplier = 10000; // Multiplier of the arbitration cost that the winner has to pay as fee stake for a round in basis points. Default is 1x of appeal fee.\n    uint256 public loserStakeMultiplier = 20000; // Multiplier of the arbitration cost that the loser has to pay as fee stake for a round in basis points. Default is 2x of appeal fee.\n    uint256 public tieStakeMultiplier = 10000; // Multiplier of the arbitration cost that the parties has to pay as fee stake for a round in basis points, in case of tie. Default is 1x of appeal fee.\n    uint256 public loserAppealPeriodMultiplier = 5000; // Multiplier of the appeal period for losers (any other ruling options) in basis points. Default is 1/2 of original appeal period.\n    uint256 public constant MULTIPLIER_DIVISOR = 10000; // Divisor parameter for multipliers.\n\n    DisputeStruct[] public disputes;\n    mapping(IArbitrator => mapping(uint256 => DisputeStruct)) public disputeIDtoDisputeStruct;\n\n    mapping(IArbitrator => mapping(uint256 => Round[])) public disputeIDtoRoundArray; // Maps dispute ids to round arrays.\n\n    /** @dev TRUSTED. Calls createDispute function of the specified arbitrator to create a dispute.\n        Note that we dont need to check that msg.value is enough to pay arbitration fees as its the responsibility of the arbitrator contract.\n     *  @param _arbitratorExtraData Extra data for the arbitrator of prospective dispute.\n     *  @param _metaevidenceURI Link to metaevidence of prospective dispute.\n     *  @param _numberOfRulingOptions Number of ruling options.\n     *  @return disputeID Dispute id (on arbitrator side) of the dispute created.\n     */\n    function createDispute(\n        IArbitrator _arbitrator,\n        bytes calldata _arbitratorExtraData,\n        string calldata _metaevidenceURI,\n        uint256 _numberOfRulingOptions\n    ) external payable returns (uint256 disputeID) {\n        if (_numberOfRulingOptions == 0) _numberOfRulingOptions = MAX_NO_OF_CHOICES;\n\n        disputeID = _arbitrator.createDispute{value: msg.value}(_numberOfRulingOptions, _arbitratorExtraData);\n\n        disputeIDtoDisputeStruct[_arbitrator][disputeID] = DisputeStruct({arbitratorExtraData: _arbitratorExtraData, isRuled: false, ruling: 0, numberOfRulingOptions: _numberOfRulingOptions});\n\n        disputeIDtoRoundArray[_arbitrator][disputeID].push();\n\n        emit MetaEvidence(disputeID, _metaevidenceURI);\n        emit Dispute(_arbitrator, disputeID, disputeID, disputeID);\n    }\n\n    /** @dev Returns number of possible ruling options. Valid rulings are [0, return value].\n     *  @param _disputeID Dispute id as in arbitrable contract.\n     *  @return count Number of possible ruling options.\n     */\n    function numberOfRulingOptions(IArbitrator _arbitrator, uint256 _disputeID) external view override returns (uint256 count) {\n        count = disputeIDtoDisputeStruct[_arbitrator][_disputeID].numberOfRulingOptions;\n    }\n\n    /** @dev TRUSTED. Manages contributions and calls appeal function of the specified arbitrator to appeal a dispute. This function lets appeals be crowdfunded.\n        Note that we dont need to check that msg.value is enough to pay arbitration fees as its the responsibility of the arbitrator contract.\n     *  @param _disputeID Index of the dispute in disputes array.\n     *  @param _ruling The ruling to which the caller wants to contribute.\n     *  @return fullyFunded Whether _ruling was fully funded after the call.\n     */\n    function fundAppeal(\n        IArbitrator _arbitrator,\n        uint256 _disputeID,\n        uint256 _ruling\n    ) external payable override returns (bool fullyFunded) {\n        DisputeStruct storage dispute = disputeIDtoDisputeStruct[_arbitrator][_disputeID];\n        require(_ruling <= dispute.numberOfRulingOptions, \"There is no such ruling to fund.\");\n        uint256 currentRuling = _arbitrator.currentRuling(_disputeID);\n\n        checkAppealPeriod(_arbitrator, _disputeID, _ruling, currentRuling);\n\n        (uint256 originalCost, uint256 totalCost) = appealCost(_arbitrator, _disputeID, _ruling, currentRuling);\n\n        Round[] storage rounds = disputeIDtoRoundArray[_arbitrator][_disputeID];\n        uint256 roundsLength = rounds.length;\n        Round storage lastRound = rounds[roundsLength - 1];\n        require(!lastRound.hasPaid[_ruling], \"Appeal fee has already been paid.\");\n        uint256 paidFeesInLastRound = lastRound.paidFees[_ruling];\n\n        uint256 contribution = totalCost.subCap(paidFeesInLastRound) > msg.value ? msg.value : totalCost.subCap(paidFeesInLastRound);\n        emit Contribution(_arbitrator, _disputeID, roundsLength - 1, _ruling, msg.sender, contribution);\n\n        lastRound.contributions[msg.sender][_ruling] += contribution;\n\n        paidFeesInLastRound += contribution;\n        lastRound.paidFees[_ruling] = paidFeesInLastRound;\n\n        if (paidFeesInLastRound >= totalCost) {\n            lastRound.feeRewards += paidFeesInLastRound;\n            lastRound.fundedRulings.push(_ruling);\n            lastRound.hasPaid[_ruling] = true;\n            emit RulingFunded(_arbitrator, _disputeID, roundsLength - 1, _ruling);\n        }\n\n        if (lastRound.fundedRulings.length > 1) {\n            // At least two ruling options are fully funded.\n            rounds.push();\n\n            lastRound.feeRewards = lastRound.feeRewards.subCap(originalCost);\n            _arbitrator.appeal{value: originalCost}(_disputeID, dispute.arbitratorExtraData);\n        }\n\n        msg.sender.transfer(msg.value.subCap(contribution)); // Sending extra value back to contributor.\n\n        return lastRound.hasPaid[_ruling];\n    }\n\n    /** @dev Retrieves appeal period for each ruling. It extends the function with the same name on the arbitrator by also requiring the _ruling parameter. This is because the arbitrable doesn't give losers of previous round as much time as the winner to avoid last-minute funding attacks.\n     *  @param _disputeID The dispute this function checks for appeal period.\n     *  @param _ruling The ruling option which the caller wants to learn about its appeal period.\n     */\n    function checkAppealPeriod(\n        IArbitrator arbitrator,\n        uint256 _disputeID,\n        uint256 _ruling,\n        uint256 _currentRuling\n    ) internal view {\n        (uint256 originalStart, uint256 originalEnd) = arbitrator.appealPeriod(_disputeID);\n\n        if (_currentRuling == _ruling || _currentRuling == 0) require(block.timestamp >= originalStart && block.timestamp < originalEnd, \"Funding must be made within the appeal period.\");\n        else {\n            require(block.timestamp >= originalStart && block.timestamp < (originalStart + ((originalEnd - originalStart) * loserAppealPeriodMultiplier) / MULTIPLIER_DIVISOR), \"Funding must be made within the appeal period.\");\n        }\n    }\n\n    /** @dev Retrieves appeal cost for each ruling. It extends the function with the same name on the arbitrator side by adding\n     *  _ruling parameter because total to be raised depends on multipliers.\n     *  @param _disputeID The dispute this function returns its appeal costs.\n     *  @param _ruling The ruling option which the caller wants to learn about its appeal cost.\n     */\n    function appealCost(\n        IArbitrator arbitrator,\n        uint256 _disputeID,\n        uint256 _ruling,\n        uint256 _currentRuling\n    ) internal view returns (uint256 originalCost, uint256 specificCost) {\n        uint256 multiplier;\n        DisputeStruct storage dispute = disputeIDtoDisputeStruct[arbitrator][_disputeID];\n        if (_currentRuling == 0) multiplier = tieStakeMultiplier;\n        else if (_ruling == _currentRuling) multiplier = winnerStakeMultiplier;\n        else multiplier = loserStakeMultiplier;\n\n        uint256 appealFee = arbitrator.appealCost(_disputeID, dispute.arbitratorExtraData);\n        return (appealFee, appealFee.addCap(appealFee.mulCap(multiplier) / MULTIPLIER_DIVISOR));\n    }\n\n    /** @dev Allows to withdraw any reimbursable fees or rewards after the dispute gets solved.\n     *  @param _disputeID Index of the dispute in disputes array.\n     *  @param _contributor The address to withdraw its rewards.\n     *  @param _roundNumber The number of the round caller wants to withdraw from.\n     *  @param _ruling The ruling option that the caller wants to withdraw fees and rewards related to it.\n     *  @return sum Reward amount that is to be withdrawn. Might be zero if arguments are not qualifying for a reward or reimbursement, or it might be withdrawn already.\n     */\n    function withdrawFeesAndRewards(\n        IArbitrator arbitrator,\n        uint256 _disputeID,\n        address payable _contributor,\n        uint256 _roundNumber,\n        uint256 _ruling\n    ) public override returns (uint256 sum) {\n        DisputeStruct storage dispute = disputeIDtoDisputeStruct[arbitrator][_disputeID];\n\n        Round storage round = disputeIDtoRoundArray[arbitrator][_disputeID][_roundNumber];\n\n        require(dispute.isRuled, \"The dispute should be solved\");\n\n        if (!round.hasPaid[_ruling]) {\n            // Allow to reimburse if funding was unsuccessful for this ruling option.\n            sum += round.contributions[_contributor][_ruling];\n        } else {\n            // Funding was successful for this ruling option.\n            if (_ruling == dispute.ruling) {\n                // This ruling option is the ultimate winner.\n                uint256 paidFees = round.paidFees[_ruling];\n                sum += paidFees > 0 ? (round.contributions[_contributor][_ruling] * round.feeRewards) / paidFees : 0;\n            } else if (!round.hasPaid[dispute.ruling]) {\n                // This ruling option was not the ultimate winner, but the ultimate winner was not funded in this round. In this case funded ruling option(s) wins by default. Prize is distributed among contributors of funded ruling option(s).\n                sum += (round.contributions[_contributor][_ruling] * round.feeRewards) / (round.paidFees[round.fundedRulings[0]] + round.paidFees[round.fundedRulings[1]]);\n            }\n        }\n\n        round.contributions[_contributor][_ruling] = 0;\n        if (sum != 0) {\n            _contributor.send(sum); // User is responsible for accepting the reward.\n            emit Withdrawal(arbitrator, _disputeID, _roundNumber, _ruling, _contributor, sum);\n        }\n    }\n\n    /** @dev Allows to withdraw any reimbursable fees or rewards after the dispute gets solved for multiple ruling options at once.\n     *  @param _disputeID Index of the dispute in disputes array.\n     *  @param _contributor The address to withdraw its rewards.\n     *  @param _roundNumber The number of the round caller wants to withdraw from.\n     *  @param _contributedTo Rulings that received contributions from contributor.\n     */\n    function withdrawFeesAndRewardsForMultipleRulings(\n        IArbitrator arbitrator,\n        uint256 _disputeID,\n        address payable _contributor,\n        uint256 _roundNumber,\n        uint256[] calldata _contributedTo\n    ) public override {\n        uint256 contributionArrayLength = _contributedTo.length;\n        for (uint256 contributionNumber = 0; contributionNumber < contributionArrayLength; contributionNumber++) {\n            withdrawFeesAndRewards(arbitrator, _disputeID, _contributor, _roundNumber, _contributedTo[contributionNumber]);\n        }\n    }\n\n    /** @dev Allows to withdraw any rewards or reimbursable fees after the dispute gets resolved. For multiple rulings options and for all rounds at once.\n     *  @param _disputeID Index of the dispute in disputes array.\n     *  @param _contributor The address to withdraw its rewards.\n     *  @param _contributedTo Rulings that received contributions from contributor.\n     */\n    function withdrawFeesAndRewardsForAllRounds(\n        IArbitrator arbitrator,\n        uint256 _disputeID,\n        address payable _contributor,\n        uint256[] calldata _contributedTo\n    ) external override {\n        uint256 noOfRounds = disputeIDtoRoundArray[arbitrator][_disputeID].length;\n        for (uint256 roundNumber = 0; roundNumber < noOfRounds; roundNumber++) {\n            withdrawFeesAndRewardsForMultipleRulings(arbitrator, _disputeID, _contributor, roundNumber, _contributedTo);\n        }\n    }\n\n    /** @dev Returns the sum of withdrawable amount. Although it's a nested loop, total iterations will be almost always less than 10. (Max number of rounds is 7 and it's very unlikely to have a contributor to contribute to more than 1 ruling option per round). Alternatively you can use Contribution events to calculate this off-chain.\n     *  @param _disputeID The ID of the associated question.\n     *  @param _contributor The contributor for which to query.\n     *  @param _contributedTo The array which includes ruling options to search for potential withdrawal. Caller can obtain this information using Contribution events.\n     *  @return sum The total amount available to withdraw.\n     */\n    function getTotalWithdrawableAmount(\n        IArbitrator arbitrator,\n        uint256 _disputeID,\n        address payable _contributor,\n        uint256[] calldata _contributedTo\n    ) public view override returns (uint256 sum) {\n        uint256 noOfRounds = disputeIDtoRoundArray[arbitrator][_disputeID].length;\n        for (uint256 roundNumber = 0; roundNumber < noOfRounds; roundNumber++) {\n            for (uint256 contributionNumber = 0; contributionNumber < _contributedTo.length; contributionNumber++) {\n                DisputeStruct storage dispute = disputeIDtoDisputeStruct[arbitrator][_disputeID];\n\n                Round storage round = disputeIDtoRoundArray[arbitrator][_disputeID][roundNumber];\n                uint256 finalRuling = dispute.ruling;\n                uint256 ruling = _contributedTo[contributionNumber];\n                require(dispute.isRuled, \"The dispute should be solved\");\n\n                if (!round.hasPaid[ruling]) {\n                    // Allow to reimburse if funding was unsuccessful for this ruling option.\n                    sum += round.contributions[_contributor][ruling];\n                } else {\n                    //Funding was successful for this ruling option.\n                    if (ruling == finalRuling) {\n                        // This ruling option is the ultimate winner.\n                        sum += round.paidFees[ruling] > 0 ? (round.contributions[_contributor][ruling] * round.feeRewards) / round.paidFees[ruling] : 0;\n                    } else if (!round.hasPaid[finalRuling]) {\n                        // This ruling option was not the ultimate winner, but the ultimate winner was not funded in this round. In this case funded ruling option(s) wins by default. Prize is distributed among contributors of funded ruling option(s).\n                        sum += (round.contributions[_contributor][ruling] * round.feeRewards) / (round.paidFees[round.fundedRulings[0]] + round.paidFees[round.fundedRulings[1]]);\n                    }\n                }\n            }\n        }\n        return sum;\n    }\n\n    /** @dev To be called by the arbitrator of the dispute, to declare winning ruling.\n     *  @param _externalDisputeID ID of the dispute in arbitrator contract.\n     *  @param _ruling The ruling choice of the arbitration.\n     */\n    function rule(uint256 _externalDisputeID, uint256 _ruling) external override {\n        DisputeStruct storage dispute = disputeIDtoDisputeStruct[IArbitrator(msg.sender)][_externalDisputeID];\n        require(_ruling <= dispute.numberOfRulingOptions, \"Invalid ruling.\");\n        require(dispute.isRuled == false, \"This dispute has been ruled already.\");\n\n        dispute.isRuled = true;\n        dispute.ruling = _ruling;\n\n        Round[] storage rounds = disputeIDtoRoundArray[IArbitrator(msg.sender)][_externalDisputeID];\n        Round storage lastRound = disputeIDtoRoundArray[IArbitrator(msg.sender)][_externalDisputeID][rounds.length - 1];\n        // If only one ruling option is funded, it wins by default. Note that if any other ruling had funded, an appeal would have been created.\n        if (lastRound.fundedRulings.length == 1) {\n            dispute.ruling = lastRound.fundedRulings[0];\n        }\n\n        emit Ruling(IArbitrator(msg.sender), _externalDisputeID, dispute.ruling);\n    }\n\n    /** @dev Allows to submit evidence for a given dispute.\n     *  @param _disputeID Index of the dispute in disputes array.\n     *  @param _evidenceURI Link to evidence.\n     */\n    function submitEvidence(\n        IArbitrator arbitrator,\n        uint256 _disputeID,\n        string calldata _evidenceURI\n    ) external override {\n        DisputeStruct storage dispute = disputeIDtoDisputeStruct[arbitrator][_disputeID];\n        require(dispute.isRuled == false, \"Cannot submit evidence to a resolved dispute.\");\n\n        emit Evidence(arbitrator, _disputeID, msg.sender, _evidenceURI);\n    }\n\n    /** @dev Changes governor.\n     *  @param _newGovernor The address of the new governor.\n     */\n    function setGovernor(address _newGovernor) external {\n        require(msg.sender == governor, \"Only the governor can execute this.\");\n        governor = _newGovernor;\n    }\n\n    /** @dev Changes the proportion of appeal fees that must be paid by winner.\n     *  @param _winnerStakeMultiplier The new winner stake multiplier value respect to MULTIPLIER_DIVISOR.\n     *  @param _loserStakeMultiplier The new loser stake multiplier value respect to MULTIPLIER_DIVISOR.\n     *  @param _tieStakeMultiplier The tie stake multiplier value respect to MULTIPLIER_DIVISOR.\n     *  @param _loserAppealPeriodMultiplier The new loser appeal period multiplier respect to MULTIPLIER_DIVISOR.\n     */\n    function changeMultipliers(\n        uint256 _winnerStakeMultiplier,\n        uint256 _loserStakeMultiplier,\n        uint256 _tieStakeMultiplier,\n        uint256 _loserAppealPeriodMultiplier\n    ) external {\n        require(msg.sender == governor, \"Only the governor can execute this.\");\n        winnerStakeMultiplier = _winnerStakeMultiplier;\n        loserStakeMultiplier = _loserStakeMultiplier;\n        tieStakeMultiplier = _tieStakeMultiplier;\n        loserAppealPeriodMultiplier = _loserAppealPeriodMultiplier;\n    }\n\n    /** @dev Returns stake multipliers.\n     *  @return _winnerStakeMultiplier Winners stake multiplier.\n     *  @return _loserStakeMultiplier Losers stake multiplier.\n     *  @return _tieStakeMultiplier Stake multiplier in case of tie.\n     *  @return _loserAppealPeriodMultiplier Multiplier for losers appeal period. The loser is given less time to fund its appeal to defend against last minute appeal funding attacks.\n     *  @return divisor Multiplier divisor in basis points.\n     */\n    function getMultipliers()\n        external\n        view\n        override\n        returns (\n            uint256 _winnerStakeMultiplier,\n            uint256 _loserStakeMultiplier,\n            uint256 _tieStakeMultiplier,\n            uint256 _loserAppealPeriodMultiplier,\n            uint256 divisor\n        )\n    {\n        return (winnerStakeMultiplier, loserStakeMultiplier, tieStakeMultiplier, loserAppealPeriodMultiplier, MULTIPLIER_DIVISOR);\n    }\n}\n",
  "sourcePath": "/home/f/repos/realitio-arbitrator-with-appeals/contracts/ArbitrableProxy.sol",
  "compiler": {
    "name": "solc",
    "version": "0.7.6+commit.7338295f.Emscripten.clang"
  },
  "schemaVersion": "3.4.0",
  "updatedAt": "2021-05-01T15:52:50.165Z",
  "devdoc": {
    "kind": "dev",
    "methods": {
      "changeMultipliers(uint256,uint256,uint256,uint256)": {
        "details": "Changes the proportion of appeal fees that must be paid by winner.",
        "params": {
          "_loserAppealPeriodMultiplier": "The new loser appeal period multiplier respect to MULTIPLIER_DIVISOR.",
          "_loserStakeMultiplier": "The new loser stake multiplier value respect to MULTIPLIER_DIVISOR.",
          "_tieStakeMultiplier": "The tie stake multiplier value respect to MULTIPLIER_DIVISOR.",
          "_winnerStakeMultiplier": "The new winner stake multiplier value respect to MULTIPLIER_DIVISOR."
        }
      },
      "createDispute(address,bytes,string,uint256)": {
        "details": "TRUSTED. Calls createDispute function of the specified arbitrator to create a dispute. Note that we dont need to check that msg.value is enough to pay arbitration fees as its the responsibility of the arbitrator contract.",
        "params": {
          "_arbitratorExtraData": "Extra data for the arbitrator of prospective dispute.",
          "_metaevidenceURI": "Link to metaevidence of prospective dispute.",
          "_numberOfRulingOptions": "Number of ruling options."
        },
        "returns": {
          "disputeID": "Dispute id (on arbitrator side) of the dispute created."
        }
      },
      "fundAppeal(address,uint256,uint256)": {
        "details": "TRUSTED. Manages contributions and calls appeal function of the specified arbitrator to appeal a dispute. This function lets appeals be crowdfunded. Note that we dont need to check that msg.value is enough to pay arbitration fees as its the responsibility of the arbitrator contract.",
        "params": {
          "_disputeID": "Index of the dispute in disputes array.",
          "_ruling": "The ruling to which the caller wants to contribute."
        },
        "returns": {
          "fullyFunded": "Whether _ruling was fully funded after the call."
        }
      },
      "getMultipliers()": {
        "details": "Returns stake multipliers.",
        "returns": {
          "_loserAppealPeriodMultiplier": "Multiplier for losers appeal period. The loser is given less time to fund its appeal to defend against last minute appeal funding attacks.",
          "_loserStakeMultiplier": "Losers stake multiplier.",
          "_tieStakeMultiplier": "Stake multiplier in case of tie.",
          "_winnerStakeMultiplier": "Winners stake multiplier.",
          "divisor": "Multiplier divisor in basis points."
        }
      },
      "getTotalWithdrawableAmount(address,uint256,address,uint256[])": {
        "details": "Returns the sum of withdrawable amount. Although it's a nested loop, total iterations will be almost always less than 10. (Max number of rounds is 7 and it's very unlikely to have a contributor to contribute to more than 1 ruling option per round). Alternatively you can use Contribution events to calculate this off-chain.",
        "params": {
          "_contributedTo": "The array which includes ruling options to search for potential withdrawal. Caller can obtain this information using Contribution events.",
          "_contributor": "The contributor for which to query.",
          "_disputeID": "The ID of the associated question."
        },
        "returns": {
          "sum": "The total amount available to withdraw."
        }
      },
      "numberOfRulingOptions(address,uint256)": {
        "details": "Returns number of possible ruling options. Valid rulings are [0, return value].",
        "params": {
          "_disputeID": "Dispute id as in arbitrable contract."
        },
        "returns": {
          "count": "Number of possible ruling options."
        }
      },
      "rule(uint256,uint256)": {
        "details": "To be called by the arbitrator of the dispute, to declare winning ruling.",
        "params": {
          "_externalDisputeID": "ID of the dispute in arbitrator contract.",
          "_ruling": "The ruling choice of the arbitration."
        }
      },
      "setGovernor(address)": {
        "details": "Changes governor.",
        "params": {
          "_newGovernor": "The address of the new governor."
        }
      },
      "submitEvidence(address,uint256,string)": {
        "details": "Allows to submit evidence for a given dispute.",
        "params": {
          "_disputeID": "Index of the dispute in disputes array.",
          "_evidenceURI": "Link to evidence."
        }
      },
      "withdrawFeesAndRewards(address,uint256,address,uint256,uint256)": {
        "details": "Allows to withdraw any reimbursable fees or rewards after the dispute gets solved.",
        "params": {
          "_contributor": "The address to withdraw its rewards.",
          "_disputeID": "Index of the dispute in disputes array.",
          "_roundNumber": "The number of the round caller wants to withdraw from.",
          "_ruling": "The ruling option that the caller wants to withdraw fees and rewards related to it."
        },
        "returns": {
          "sum": "Reward amount that is to be withdrawn. Might be zero if arguments are not qualifying for a reward or reimbursement, or it might be withdrawn already."
        }
      },
      "withdrawFeesAndRewardsForAllRounds(address,uint256,address,uint256[])": {
        "details": "Allows to withdraw any rewards or reimbursable fees after the dispute gets resolved. For multiple rulings options and for all rounds at once.",
        "params": {
          "_contributedTo": "Rulings that received contributions from contributor.",
          "_contributor": "The address to withdraw its rewards.",
          "_disputeID": "Index of the dispute in disputes array."
        }
      },
      "withdrawFeesAndRewardsForMultipleRulings(address,uint256,address,uint256,uint256[])": {
        "details": "Allows to withdraw any reimbursable fees or rewards after the dispute gets solved for multiple ruling options at once.",
        "params": {
          "_contributedTo": "Rulings that received contributions from contributor.",
          "_contributor": "The address to withdraw its rewards.",
          "_disputeID": "Index of the dispute in disputes array.",
          "_roundNumber": "The number of the round caller wants to withdraw from."
        }
      }
    },
    "title": "ArbitrableProxy  A general purpose arbitrable contract. Supports non-binary rulings.",
    "version": 1
  },
  "userdoc": {
    "kind": "user",
    "methods": {},
    "version": 1
  }
}