{
  "contractName": "AutoAppealableArbitrator",
  "abi": [
    {
      "inputs": [
        {
          "internalType": "uint256",
          "name": "_arbitrationPrice",
          "type": "uint256"
        }
      ],
      "stateMutability": "nonpayable",
      "type": "constructor"
    },
    {
      "anonymous": false,
      "inputs": [
        {
          "indexed": true,
          "internalType": "uint256",
          "name": "_disputeID",
          "type": "uint256"
        },
        {
          "indexed": true,
          "internalType": "contract IArbitrable",
          "name": "_arbitrable",
          "type": "address"
        }
      ],
      "name": "AppealDecision",
      "type": "event"
    },
    {
      "anonymous": false,
      "inputs": [
        {
          "indexed": true,
          "internalType": "uint256",
          "name": "_disputeID",
          "type": "uint256"
        },
        {
          "indexed": true,
          "internalType": "contract IArbitrable",
          "name": "_arbitrable",
          "type": "address"
        }
      ],
      "name": "AppealPossible",
      "type": "event"
    },
    {
      "anonymous": false,
      "inputs": [
        {
          "indexed": true,
          "internalType": "uint256",
          "name": "_disputeID",
          "type": "uint256"
        },
        {
          "indexed": true,
          "internalType": "contract IArbitrable",
          "name": "_arbitrable",
          "type": "address"
        }
      ],
      "name": "DisputeCreation",
      "type": "event"
    },
    {
      "inputs": [
        {
          "internalType": "uint256",
          "name": "",
          "type": "uint256"
        }
      ],
      "name": "disputes",
      "outputs": [
        {
          "internalType": "contract IArbitrable",
          "name": "arbitrated",
          "type": "address"
        },
        {
          "internalType": "uint256",
          "name": "choices",
          "type": "uint256"
        },
        {
          "internalType": "uint256",
          "name": "fees",
          "type": "uint256"
        },
        {
          "internalType": "uint256",
          "name": "ruling",
          "type": "uint256"
        },
        {
          "internalType": "enum IArbitrator.DisputeStatus",
          "name": "status",
          "type": "uint8"
        },
        {
          "internalType": "uint256",
          "name": "appealCost",
          "type": "uint256"
        },
        {
          "internalType": "uint256",
          "name": "appealPeriodStart",
          "type": "uint256"
        },
        {
          "internalType": "uint256",
          "name": "appealPeriodEnd",
          "type": "uint256"
        }
      ],
      "stateMutability": "view",
      "type": "function"
    },
    {
      "inputs": [],
      "name": "owner",
      "outputs": [
        {
          "internalType": "address",
          "name": "",
          "type": "address"
        }
      ],
      "stateMutability": "view",
      "type": "function"
    },
    {
      "inputs": [
        {
          "internalType": "uint256",
          "name": "_arbitrationPrice",
          "type": "uint256"
        }
      ],
      "name": "setArbitrationPrice",
      "outputs": [],
      "stateMutability": "nonpayable",
      "type": "function"
    },
    {
      "inputs": [
        {
          "internalType": "bytes",
          "name": "",
          "type": "bytes"
        }
      ],
      "name": "arbitrationCost",
      "outputs": [
        {
          "internalType": "uint256",
          "name": "fee",
          "type": "uint256"
        }
      ],
      "stateMutability": "view",
      "type": "function"
    },
    {
      "inputs": [
        {
          "internalType": "uint256",
          "name": "_disputeID",
          "type": "uint256"
        },
        {
          "internalType": "bytes",
          "name": "",
          "type": "bytes"
        }
      ],
      "name": "appealCost",
      "outputs": [
        {
          "internalType": "uint256",
          "name": "fee",
          "type": "uint256"
        }
      ],
      "stateMutability": "view",
      "type": "function"
    },
    {
      "inputs": [
        {
          "internalType": "uint256",
          "name": "_choices",
          "type": "uint256"
        },
        {
          "internalType": "bytes",
          "name": "_extraData",
          "type": "bytes"
        }
      ],
      "name": "createDispute",
      "outputs": [
        {
          "internalType": "uint256",
          "name": "disputeID",
          "type": "uint256"
        }
      ],
      "stateMutability": "payable",
      "type": "function"
    },
    {
      "inputs": [
        {
          "internalType": "uint256",
          "name": "_disputeID",
          "type": "uint256"
        },
        {
          "internalType": "uint256",
          "name": "_ruling",
          "type": "uint256"
        }
      ],
      "name": "giveRuling",
      "outputs": [],
      "stateMutability": "nonpayable",
      "type": "function"
    },
    {
      "inputs": [
        {
          "internalType": "uint256",
          "name": "_disputeID",
          "type": "uint256"
        },
        {
          "internalType": "uint256",
          "name": "_ruling",
          "type": "uint256"
        },
        {
          "internalType": "uint256",
          "name": "_appealCost",
          "type": "uint256"
        },
        {
          "internalType": "uint256",
          "name": "_timeToAppeal",
          "type": "uint256"
        }
      ],
      "name": "giveAppealableRuling",
      "outputs": [],
      "stateMutability": "nonpayable",
      "type": "function"
    },
    {
      "inputs": [
        {
          "internalType": "uint256",
          "name": "_disputeID",
          "type": "uint256"
        },
        {
          "internalType": "uint256",
          "name": "_appealCost",
          "type": "uint256"
        }
      ],
      "name": "changeAppealFee",
      "outputs": [],
      "stateMutability": "nonpayable",
      "type": "function"
    },
    {
      "inputs": [
        {
          "internalType": "uint256",
          "name": "_disputeID",
          "type": "uint256"
        },
        {
          "internalType": "bytes",
          "name": "_extraData",
          "type": "bytes"
        }
      ],
      "name": "appeal",
      "outputs": [],
      "stateMutability": "payable",
      "type": "function"
    },
    {
      "inputs": [
        {
          "internalType": "uint256",
          "name": "_disputeID",
          "type": "uint256"
        }
      ],
      "name": "executeRuling",
      "outputs": [],
      "stateMutability": "nonpayable",
      "type": "function"
    },
    {
      "inputs": [
        {
          "internalType": "uint256",
          "name": "_disputeID",
          "type": "uint256"
        }
      ],
      "name": "disputeStatus",
      "outputs": [
        {
          "internalType": "enum IArbitrator.DisputeStatus",
          "name": "status",
          "type": "uint8"
        }
      ],
      "stateMutability": "view",
      "type": "function"
    },
    {
      "inputs": [
        {
          "internalType": "uint256",
          "name": "_disputeID",
          "type": "uint256"
        }
      ],
      "name": "currentRuling",
      "outputs": [
        {
          "internalType": "uint256",
          "name": "ruling",
          "type": "uint256"
        }
      ],
      "stateMutability": "view",
      "type": "function"
    },
    {
      "inputs": [
        {
          "internalType": "uint256",
          "name": "_disputeID",
          "type": "uint256"
        }
      ],
      "name": "appealPeriod",
      "outputs": [
        {
          "internalType": "uint256",
          "name": "start",
          "type": "uint256"
        },
        {
          "internalType": "uint256",
          "name": "end",
          "type": "uint256"
        }
      ],
      "stateMutability": "view",
      "type": "function"
    }
  ],
  "bytecode": "0x608060405260008054600160a060020a0319163317905534801561002257600080fd5b5060405161162d38038061162d8339818101604052602081101561004557600080fd5b50516001556115d4806100596000396000f3fe6080604052600436106100fa576000357c0100000000000000000000000000000000000000000000000000000000900480638da5cb5b1161009c578063c97c4d5c11610076578063c97c4d5c1461048b578063f23f16e6146104bb578063f7434ea914610575578063ffb43c4814610628576100fa565b80638da5cb5b1461035d578063afe15cfb1461039b578063c13517e1146103de576100fa565b806349912f88116100d857806349912f88146101b8578063564a565d1461026557806378e5effc146102f75780638bb0487514610333576100fa565b80630688eef9146100ff57806310f169e8146101315780631c3db16d1461017c575b600080fd5b34801561010b57600080fd5b5061012f6004803603604081101561012257600080fd5b5080359060200135610652565b005b34801561013d57600080fd5b5061015b6004803603602081101561015457600080fd5b5035610781565b6040518082600281111561016b57fe5b815260200191505060405180910390f35b34801561018857600080fd5b506101a66004803603602081101561019f57600080fd5b5035610826565b60408051918252519081900360200190f35b61012f600480360360408110156101ce57600080fd5b813591908101906040810160208201356401000000008111156101f057600080fd5b82018360208201111561020257600080fd5b8035906020019184600183028401116401000000008311171561022457600080fd5b91908080601f01602080910402602001604051908101604052809392919081815260200183838082843760009201919091525092955061084e945050505050565b34801561027157600080fd5b5061028f6004803603602081101561028857600080fd5b5035610a26565b604051808973ffffffffffffffffffffffffffffffffffffffff1681526020018881526020018781526020018681526020018560028111156102cd57fe5b81526020018481526020018381526020018281526020019850505050505050505060405180910390f35b34801561030357600080fd5b5061012f6004803603608081101561031a57600080fd5b5080359060208101359060408101359060600135610a97565b34801561033f57600080fd5b5061012f6004803603602081101561035657600080fd5b5035610cb9565b34801561036957600080fd5b50610372610e9d565b6040805173ffffffffffffffffffffffffffffffffffffffff9092168252519081900360200190f35b3480156103a757600080fd5b506103c5600480360360208110156103be57600080fd5b5035610eb9565b6040805192835260208301919091528051918290030190f35b6101a6600480360360408110156103f457600080fd5b8135919081019060408101602082013564010000000081111561041657600080fd5b82018360208201111561042857600080fd5b8035906020019184600183028401116401000000008311171561044a57600080fd5b91908080601f016020809104026020016040519081016040528093929190818152602001838380828437600092019190915250929550610eef945050505050565b34801561049757600080fd5b5061012f600480360360408110156104ae57600080fd5b50803590602001356110fa565b3480156104c757600080fd5b506101a6600480360360408110156104de57600080fd5b8135919081019060408101602082013564010000000081111561050057600080fd5b82018360208201111561051257600080fd5b8035906020019184600183028401116401000000008311171561053457600080fd5b91908080601f016020809104026020016040519081016040528093929190818152602001838380828437600092019190915250929550611365945050505050565b34801561058157600080fd5b506101a66004803603602081101561059857600080fd5b8101906020810181356401000000008111156105b357600080fd5b8201836020820111156105c557600080fd5b803590602001918460018302840111640100000000831117156105e757600080fd5b91908080601f0160208091040260200160405190810160405280939291908181526020018383808284376000920191909152509295506113d8945050505050565b34801561063457600080fd5b5061012f6004803603602081101561064b57600080fd5b50356113df565b60005473ffffffffffffffffffffffffffffffffffffffff1633146106d857604080517f08c379a000000000000000000000000000000000000000000000000000000000815260206004820181905260248201527f43616e206f6e6c792062652063616c6c656420627920746865206f776e65722e604482015290519081900360640190fd5b6000600283815481106106e757fe5b6000918252602090912060089091020190506001600482015460ff16600281111561070e57fe5b1461077a57604080517f08c379a000000000000000000000000000000000000000000000000000000000815260206004820152601f60248201527f5468652064697370757465206d7573742062652061707065616c61626c652e00604482015290519081900360640190fd5b6005015550565b6000806002838154811061079157fe5b6000918252602090912060089091020190506001600284815481106107b257fe5b600091825260209091206004600890920201015460ff1660028111156107d457fe5b1480156107e5575080600701544210155b156107f4576002915050610821565b6002838154811061080157fe5b600091825260209091206004600890920201015460ff1691506108219050565b919050565b60006002828154811061083557fe5b9060005260206000209060080201600301549050919050565b60006002838154811061085d57fe5b9060005260206000209060080201905060006108798484611365565b90506001600483015460ff16600281111561089057fe5b146108fc57604080517f08c379a000000000000000000000000000000000000000000000000000000000815260206004820152601f60248201527f5468652064697370757465206d7573742062652061707065616c61626c652e00604482015290519081900360640190fd5b81600701544210610958576040517f08c379a000000000000000000000000000000000000000000000000000000000815260040180806020018281038252603a81526020018061150d603a913960400191505060405180910390fd5b803410156109b1576040517f08c379a00000000000000000000000000000000000000000000000000000000081526004018080602001828103825260268152602001806114a86026913960400191505060405180910390fd5b60006006830181905560078301819055600283018054340190556004830180547fffffffffffffffffffffffffffffffffffffffffffffffffffffffffffffff00169055604051339186917f9c9b64db9e130f48381bf697abf638e73117dbfbfd7a4484f2da3ba188f4187d9190a350505050565b60028181548110610a3657600080fd5b60009182526020909120600890910201805460018201546002830154600384015460048501546005860154600687015460079097015473ffffffffffffffffffffffffffffffffffffffff909616975093959294919360ff90911692909188565b60005473ffffffffffffffffffffffffffffffffffffffff163314610b1d57604080517f08c379a000000000000000000000000000000000000000000000000000000000815260206004820181905260248201527f43616e206f6e6c792062652063616c6c656420627920746865206f776e65722e604482015290519081900360640190fd5b600060028581548110610b2c57fe5b906000526020600020906008020190508060010154841115610baf57604080517f08c379a000000000000000000000000000000000000000000000000000000000815260206004820152600f60248201527f496e76616c69642072756c696e672e0000000000000000000000000000000000604482015290519081900360640190fd5b6000600482015460ff166002811115610bc457fe5b14610c1a576040517f08c379a000000000000000000000000000000000000000000000000000000000815260040180806020018281038252602c815260200180611547602c913960400191505060405180910390fd5b600381018490556004810180547fffffffffffffffffffffffffffffffffffffffffffffffffffffffffffffff00166001179055600581018390554260068201819055610c67908361146a565b6007820155805460405173ffffffffffffffffffffffffffffffffffffffff9091169086907fa5d41b970d849372be1da1481ffd78d162bfe57a7aa2fe4e5fb73481fa5ac24f90600090a35050505050565b600060028281548110610cc857fe5b6000918252602090912060089091020190506001600482015460ff166002811115610cef57fe5b14610d5b57604080517f08c379a000000000000000000000000000000000000000000000000000000000815260206004820152601f60248201527f5468652064697370757465206d7573742062652061707065616c61626c652e00604482015290519081900360640190fd5b8060070154421015610db8576040517f08c379a000000000000000000000000000000000000000000000000000000000815260040180806020018281038252603f8152602001806114ce603f913960400191505060405180910390fd5b6004810180547fffffffffffffffffffffffffffffffffffffffffffffffffffffffffffffff0016600290811790915581015460405133916108fc811502916000818181858888f1505083546003850154604080517f311a6c560000000000000000000000000000000000000000000000000000000081526004810189905260248101929092525173ffffffffffffffffffffffffffffffffffffffff909216945063311a6c569350604480820193506000929182900301818387803b158015610e8157600080fd5b505af1158015610e95573d6000803e3d6000fd5b505050505050565b60005473ffffffffffffffffffffffffffffffffffffffff1681565b600080600060028481548110610ecb57fe5b90600052602060002090600802019050806006015481600701549250925050915091565b600080610efb836113d8565b905080341015610f56576040517f08c379a000000000000000000000000000000000000000000000000000000000815260040180806020018281038252602c815260200180611573602c913960400191505060405180910390fd5b60026040518061010001604052803373ffffffffffffffffffffffffffffffffffffffff1681526020018681526020013481526020016000815260200160006002811115610fa057fe5b8152600060208083018290526040808401839052606093840183905285546001808201885596845292829020855160089094020180547fffffffffffffffffffffffff00000000000000000000000000000000000000001673ffffffffffffffffffffffffffffffffffffffff9094169390931783559084015182860155830151600280830191909155918301516003820155608083015160048201805494959294919390927fffffffffffffffffffffffffffffffffffffffffffffffffffffffffffffff009092169190849081111561107757fe5b021790555060a0820151600582015560c0820151600682015560e0909101516007909101556002546040517fffffffffffffffffffffffffffffffffffffffffffffffffffffffffffffffff919091019250339083907f141dfc18aa6a56fc816f44f0e9e2f1ebc92b15ab167770e17db5b084c10ed99590600090a35092915050565b60005473ffffffffffffffffffffffffffffffffffffffff16331461118057604080517f08c379a000000000000000000000000000000000000000000000000000000000815260206004820181905260248201527f43616e206f6e6c792062652063616c6c656420627920746865206f776e65722e604482015290519081900360640190fd5b60006002838154811061118f57fe5b90600052602060002090600802019050806001015482111561121257604080517f08c379a000000000000000000000000000000000000000000000000000000000815260206004820152600f60248201527f496e76616c69642072756c696e672e0000000000000000000000000000000000604482015290519081900360640190fd5b6000600482015460ff16600281111561122757fe5b1461127d576040517f08c379a000000000000000000000000000000000000000000000000000000000815260040180806020018281038252602c815260200180611547602c913960400191505060405180910390fd5b600381018290556004810180547fffffffffffffffffffffffffffffffffffffffffffffffffffffffffffffff0016600290811790915581015460405133916108fc811502916000818181858888f150508354604080517f311a6c560000000000000000000000000000000000000000000000000000000081526004810189905260248101889052905173ffffffffffffffffffffffffffffffffffffffff909216945063311a6c569350604480820193506000929182900301818387803b15801561134857600080fd5b505af115801561135c573d6000803e3d6000fd5b50505050505050565b6000806002848154811061137557fe5b6000918252602090912060089091020190506001600482015460ff16600281111561139c57fe5b14156113ad576005015490506113d2565b7f7fffffffffffffffffffffffffffffffffffffffffffffffffffffffffffffff9150505b92915050565b5060015490565b60005473ffffffffffffffffffffffffffffffffffffffff16331461146557604080517f08c379a000000000000000000000000000000000000000000000000000000000815260206004820181905260248201527f43616e206f6e6c792062652063616c6c656420627920746865206f776e65722e604482015290519081900360640190fd5b600155565b60008282018381101561149d577fffffffffffffffffffffffffffffffffffffffffffffffffffffffffffffffff61149f565b805b94935050505056fe56616c7565206973206c657373207468616e2072657175697265642061707065616c206665655468652064697370757465206d757374206265206578656375746564206166746572206974732061707065616c20706572696f642068617320656e6465642e5468652061707065616c206d757374206f63637572206265666f72652074686520656e64206f66207468652061707065616c20706572696f642e5468652064697370757465206d7573742062652077616974696e6720666f72206172626974726174696f6e2e56616c7565206973206c657373207468616e207265717569726564206172626974726174696f6e206665652ea264697066735822122080e4428db453ef4d9578d4918143b3876d57a96371011c99f4e4431e121b863764736f6c63430007060033",
  "immutableReferences": {},
  "source": "// SPDX-License-Identifier: MIT\n\n/**\n *  @authors: [@clesaege]\n *  @reviewers: []\n *  @auditors: []\n *  @bounties: []\n *  @deployments: []\n */\n\npragma solidity >=0.7;\n\nimport \"@kleros/erc-792/contracts/IArbitrable.sol\";\nimport \"@kleros/erc-792/contracts/IArbitrator.sol\";\nimport \"/@kleros/ethereum-libraries/contracts/CappedMath.sol\";\n\n/** @title Auto Appealable Arbitrator\n *  @dev This is a centralized arbitrator which either gives direct rulings or provides a time and fee for appeal.\n */\ncontract AutoAppealableArbitrator is IArbitrator {\n    using CappedMath for uint256; // Operations bounded between 0 and 2**256 - 1.\n\n    address public owner = msg.sender;\n    uint256 arbitrationPrice; // Not public because arbitrationCost already acts as an accessor.\n    uint256 constant NOT_PAYABLE_VALUE = (2**256 - 2) / 2; // High value to be sure that the appeal is too expensive.\n\n    struct Dispute {\n        IArbitrable arbitrated; // The contract requiring arbitration.\n        uint256 choices; // The amount of possible choices, 0 excluded.\n        uint256 fees; // The total amount of fees collected by the arbitrator.\n        uint256 ruling; // The current ruling.\n        DisputeStatus status; // The status of the dispute.\n        uint256 appealCost; // The cost to appeal. 0 before it is appealable.\n        uint256 appealPeriodStart; // The start of the appeal period. 0 before it is appealable.\n        uint256 appealPeriodEnd; // The end of the appeal Period. 0 before it is appealable.\n    }\n\n    modifier onlyOwner {\n        require(msg.sender == owner, \"Can only be called by the owner.\");\n        _;\n    }\n\n    Dispute[] public disputes;\n\n    /** @dev Constructor. Set the initial arbitration price.\n     *  @param _arbitrationPrice Amount to be paid for arbitration.\n     */\n    constructor(uint256 _arbitrationPrice) public {\n        arbitrationPrice = _arbitrationPrice;\n    }\n\n    /** @dev Set the arbitration price. Only callable by the owner.\n     *  @param _arbitrationPrice Amount to be paid for arbitration.\n     */\n    function setArbitrationPrice(uint256 _arbitrationPrice) external onlyOwner {\n        arbitrationPrice = _arbitrationPrice;\n    }\n\n    /** @dev Cost of arbitration. Accessor to arbitrationPrice.\n     *  @return fee Amount to be paid.\n     */\n    function arbitrationCost(bytes memory) public view override returns (uint256 fee) {\n        return arbitrationPrice;\n    }\n\n    /** @dev Cost of appeal. If appeal is not possible, it's a high value which can never be paid.\n     *  @param _disputeID ID of the dispute to be appealed.\n     *  @return fee Amount to be paid.\n     */\n    function appealCost(uint256 _disputeID, bytes memory) public view override returns (uint256 fee) {\n        Dispute storage dispute = disputes[_disputeID];\n        if (dispute.status == DisputeStatus.Appealable) return dispute.appealCost;\n        else return NOT_PAYABLE_VALUE;\n    }\n\n    /** @dev Create a dispute. Must be called by the arbitrable contract.\n     *  Must be paid at least arbitrationCost().\n     *  @param _choices Amount of choices the arbitrator can make in this dispute. When ruling <= choices.\n     *  @param _extraData Can be used to give additional info on the dispute to be created.\n     *  @return disputeID ID of the dispute created.\n     */\n    function createDispute(uint256 _choices, bytes memory _extraData) public payable override returns (uint256 disputeID) {\n        uint256 arbitrationFee = arbitrationCost(_extraData);\n        require(msg.value >= arbitrationFee, \"Value is less than required arbitration fee.\");\n        disputes.push(Dispute({arbitrated: IArbitrable(msg.sender), choices: _choices, fees: msg.value, ruling: 0, status: DisputeStatus.Waiting, appealCost: 0, appealPeriodStart: 0, appealPeriodEnd: 0})); // Create the dispute and return its number.\n        disputeID = disputes.length - 1;\n        emit DisputeCreation(disputeID, IArbitrable(msg.sender));\n    }\n\n    /** @dev Give a ruling. UNTRUSTED.\n     *  @param _disputeID ID of the dispute to rule.\n     *  @param _ruling Ruling given by the arbitrator. Note that 0 means \"Not able/wanting to make a decision\".\n     */\n    function giveRuling(uint256 _disputeID, uint256 _ruling) external onlyOwner {\n        Dispute storage dispute = disputes[_disputeID];\n        require(_ruling <= dispute.choices, \"Invalid ruling.\");\n        require(dispute.status == DisputeStatus.Waiting, \"The dispute must be waiting for arbitration.\");\n\n        dispute.ruling = _ruling;\n        dispute.status = DisputeStatus.Solved;\n\n        msg.sender.send(dispute.fees); // Avoid blocking.\n        dispute.arbitrated.rule(_disputeID, _ruling);\n    }\n\n    /** @dev Give an appealable ruling.\n     *  @param _disputeID ID of the dispute to rule.\n     *  @param _ruling Ruling given by the arbitrator. Note that 0 means \"Not able/wanting to make a decision\".\n     *  @param _appealCost The cost of appeal.\n     *  @param _timeToAppeal The time to appeal the ruling.\n     */\n    function giveAppealableRuling(\n        uint256 _disputeID,\n        uint256 _ruling,\n        uint256 _appealCost,\n        uint256 _timeToAppeal\n    ) external onlyOwner {\n        Dispute storage dispute = disputes[_disputeID];\n        require(_ruling <= dispute.choices, \"Invalid ruling.\");\n        require(dispute.status == DisputeStatus.Waiting, \"The dispute must be waiting for arbitration.\");\n\n        dispute.ruling = _ruling;\n        dispute.status = DisputeStatus.Appealable;\n        dispute.appealCost = _appealCost;\n        dispute.appealPeriodStart = block.timestamp;\n        dispute.appealPeriodEnd = block.timestamp.addCap(_timeToAppeal);\n\n        emit AppealPossible(_disputeID, dispute.arbitrated);\n    }\n\n    /** @dev Change the appeal fee of a dispute.\n     *  @param _disputeID The ID of the dispute to update.\n     *  @param _appealCost The new cost to appeal this ruling.\n     */\n    function changeAppealFee(uint256 _disputeID, uint256 _appealCost) external onlyOwner {\n        Dispute storage dispute = disputes[_disputeID];\n        require(dispute.status == DisputeStatus.Appealable, \"The dispute must be appealable.\");\n\n        dispute.appealCost = _appealCost;\n    }\n\n    /** @dev Appeal a ruling. Note that it has to be called before the arbitrator contract calls rule.\n     *  @param _disputeID ID of the dispute to be appealed.\n     *  @param _extraData Can be used to give extra info on the appeal.\n     */\n    function appeal(uint256 _disputeID, bytes memory _extraData) public payable override {\n        Dispute storage dispute = disputes[_disputeID];\n        uint256 appealFee = appealCost(_disputeID, _extraData);\n        require(dispute.status == DisputeStatus.Appealable, \"The dispute must be appealable.\");\n        require(block.timestamp < dispute.appealPeriodEnd, \"The appeal must occur before the end of the appeal period.\");\n        require(msg.value >= appealFee, \"Value is less than required appeal fee\");\n\n        dispute.appealPeriodStart = 0;\n        dispute.appealPeriodEnd = 0;\n        dispute.fees += msg.value;\n        dispute.status = DisputeStatus.Waiting;\n        emit AppealDecision(_disputeID, IArbitrable(msg.sender));\n    }\n\n    /** @dev Execute the ruling of a dispute after the appeal period has passed. UNTRUSTED.\n     *  @param _disputeID ID of the dispute to execute.\n     */\n    function executeRuling(uint256 _disputeID) external {\n        Dispute storage dispute = disputes[_disputeID];\n        require(dispute.status == DisputeStatus.Appealable, \"The dispute must be appealable.\");\n        require(block.timestamp >= dispute.appealPeriodEnd, \"The dispute must be executed after its appeal period has ended.\");\n\n        dispute.status = DisputeStatus.Solved;\n        msg.sender.send(dispute.fees); // Avoid blocking.\n        dispute.arbitrated.rule(_disputeID, dispute.ruling);\n    }\n\n    /** @dev Return the status of a dispute (in the sense of ERC792, not the Dispute property).\n     *  @param _disputeID ID of the dispute to rule.\n     *  @return status The status of the dispute.\n     */\n    function disputeStatus(uint256 _disputeID) public view override returns (DisputeStatus status) {\n        Dispute storage dispute = disputes[_disputeID];\n        if (disputes[_disputeID].status == DisputeStatus.Appealable && block.timestamp >= dispute.appealPeriodEnd)\n            // If the appeal period is over, consider it solved even if rule has not been called yet.\n            return DisputeStatus.Solved;\n        else return disputes[_disputeID].status;\n    }\n\n    /** @dev Return the ruling of a dispute.\n     *  @param _disputeID ID of the dispute.\n     *  @return ruling The ruling which have been given or which would be given if no appeals are raised.\n     */\n    function currentRuling(uint256 _disputeID) public view override returns (uint256 ruling) {\n        return disputes[_disputeID].ruling;\n    }\n\n    /** @dev Compute the start and end of the dispute's current or next appeal period, if possible.\n     *  @param _disputeID ID of the dispute.\n     *  @return start The start of the period.\n     *  @return end The End of the period.\n     */\n    function appealPeriod(uint256 _disputeID) public view override returns (uint256 start, uint256 end) {\n        Dispute storage dispute = disputes[_disputeID];\n        return (dispute.appealPeriodStart, dispute.appealPeriodEnd);\n    }\n}\n",
  "sourcePath": "/home/f/repos/realitio-arbitrator-with-appeals/contracts/AutoAppealableArbitrator.sol",
  "compiler": {
    "name": "solc",
    "version": "0.7.6+commit.7338295f.Emscripten.clang"
  },
  "schemaVersion": "3.4.0",
  "updatedAt": "2021-05-01T17:47:29.667Z",
  "devdoc": {
    "details": "This is a centralized arbitrator which either gives direct rulings or provides a time and fee for appeal.",
    "kind": "dev",
    "methods": {
      "appeal(uint256,bytes)": {
        "details": "Appeal a ruling. Note that it has to be called before the arbitrator contract calls rule.",
        "params": {
          "_disputeID": "ID of the dispute to be appealed.",
          "_extraData": "Can be used to give extra info on the appeal."
        }
      },
      "appealCost(uint256,bytes)": {
        "details": "Cost of appeal. If appeal is not possible, it's a high value which can never be paid.",
        "params": {
          "_disputeID": "ID of the dispute to be appealed."
        },
        "returns": {
          "fee": "Amount to be paid."
        }
      },
      "appealPeriod(uint256)": {
        "details": "Compute the start and end of the dispute's current or next appeal period, if possible.",
        "params": {
          "_disputeID": "ID of the dispute."
        },
        "returns": {
          "end": "The End of the period.",
          "start": "The start of the period."
        }
      },
      "arbitrationCost(bytes)": {
        "details": "Cost of arbitration. Accessor to arbitrationPrice.",
        "returns": {
          "fee": "Amount to be paid."
        }
      },
      "changeAppealFee(uint256,uint256)": {
        "details": "Change the appeal fee of a dispute.",
        "params": {
          "_appealCost": "The new cost to appeal this ruling.",
          "_disputeID": "The ID of the dispute to update."
        }
      },
      "constructor": {
        "details": "Constructor. Set the initial arbitration price.",
        "params": {
          "_arbitrationPrice": "Amount to be paid for arbitration."
        }
      },
      "createDispute(uint256,bytes)": {
        "details": "Create a dispute. Must be called by the arbitrable contract.  Must be paid at least arbitrationCost().",
        "params": {
          "_choices": "Amount of choices the arbitrator can make in this dispute. When ruling <= choices.",
          "_extraData": "Can be used to give additional info on the dispute to be created."
        },
        "returns": {
          "disputeID": "ID of the dispute created."
        }
      },
      "currentRuling(uint256)": {
        "details": "Return the ruling of a dispute.",
        "params": {
          "_disputeID": "ID of the dispute."
        },
        "returns": {
          "ruling": "The ruling which have been given or which would be given if no appeals are raised."
        }
      },
      "disputeStatus(uint256)": {
        "details": "Return the status of a dispute (in the sense of ERC792, not the Dispute property).",
        "params": {
          "_disputeID": "ID of the dispute to rule."
        },
        "returns": {
          "status": "The status of the dispute."
        }
      },
      "executeRuling(uint256)": {
        "details": "Execute the ruling of a dispute after the appeal period has passed. UNTRUSTED.",
        "params": {
          "_disputeID": "ID of the dispute to execute."
        }
      },
      "giveAppealableRuling(uint256,uint256,uint256,uint256)": {
        "details": "Give an appealable ruling.",
        "params": {
          "_appealCost": "The cost of appeal.",
          "_disputeID": "ID of the dispute to rule.",
          "_ruling": "Ruling given by the arbitrator. Note that 0 means \"Not able/wanting to make a decision\".",
          "_timeToAppeal": "The time to appeal the ruling."
        }
      },
      "giveRuling(uint256,uint256)": {
        "details": "Give a ruling. UNTRUSTED.",
        "params": {
          "_disputeID": "ID of the dispute to rule.",
          "_ruling": "Ruling given by the arbitrator. Note that 0 means \"Not able/wanting to make a decision\"."
        }
      },
      "setArbitrationPrice(uint256)": {
        "details": "Set the arbitration price. Only callable by the owner.",
        "params": {
          "_arbitrationPrice": "Amount to be paid for arbitration."
        }
      }
    },
    "title": "Auto Appealable Arbitrator",
    "version": 1
  },
  "userdoc": {
    "kind": "user",
    "methods": {},
    "version": 1
  }
}