{
  "contractName": "BinaryArbitrableProxy",
  "abi": [
    {
      "inputs": [
        {
          "internalType": "contract IArbitrator",
          "name": "_arbitrator",
          "type": "address"
        },
        {
          "internalType": "uint256",
          "name": "_winnerStakeMultiplier",
          "type": "uint256"
        },
        {
          "internalType": "uint256",
          "name": "_loserStakeMultiplier",
          "type": "uint256"
        },
        {
          "internalType": "uint256",
          "name": "_sharedStakeMultiplier",
          "type": "uint256"
        }
      ],
      "stateMutability": "nonpayable",
      "type": "constructor"
    },
    {
      "anonymous": false,
      "inputs": [
        {
          "indexed": true,
          "internalType": "contract IArbitrator",
          "name": "_arbitrator",
          "type": "address"
        },
        {
          "indexed": true,
          "internalType": "uint256",
          "name": "_disputeID",
          "type": "uint256"
        },
        {
          "indexed": false,
          "internalType": "uint256",
          "name": "_metaEvidenceID",
          "type": "uint256"
        },
        {
          "indexed": false,
          "internalType": "uint256",
          "name": "_evidenceGroupID",
          "type": "uint256"
        }
      ],
      "name": "Dispute",
      "type": "event"
    },
    {
      "anonymous": false,
      "inputs": [
        {
          "indexed": true,
          "internalType": "contract IArbitrator",
          "name": "_arbitrator",
          "type": "address"
        },
        {
          "indexed": true,
          "internalType": "uint256",
          "name": "_evidenceGroupID",
          "type": "uint256"
        },
        {
          "indexed": true,
          "internalType": "address",
          "name": "_party",
          "type": "address"
        },
        {
          "indexed": false,
          "internalType": "string",
          "name": "_evidence",
          "type": "string"
        }
      ],
      "name": "Evidence",
      "type": "event"
    },
    {
      "anonymous": false,
      "inputs": [
        {
          "indexed": true,
          "internalType": "uint256",
          "name": "_metaEvidenceID",
          "type": "uint256"
        },
        {
          "indexed": false,
          "internalType": "string",
          "name": "_evidence",
          "type": "string"
        }
      ],
      "name": "MetaEvidence",
      "type": "event"
    },
    {
      "anonymous": false,
      "inputs": [
        {
          "indexed": true,
          "internalType": "contract IArbitrator",
          "name": "_arbitrator",
          "type": "address"
        },
        {
          "indexed": true,
          "internalType": "uint256",
          "name": "_disputeID",
          "type": "uint256"
        },
        {
          "indexed": false,
          "internalType": "uint256",
          "name": "_ruling",
          "type": "uint256"
        }
      ],
      "name": "Ruling",
      "type": "event"
    },
    {
      "inputs": [],
      "name": "MULTIPLIER_DIVISOR",
      "outputs": [
        {
          "internalType": "uint256",
          "name": "",
          "type": "uint256"
        }
      ],
      "stateMutability": "view",
      "type": "function"
    },
    {
      "inputs": [],
      "name": "arbitrator",
      "outputs": [
        {
          "internalType": "contract IArbitrator",
          "name": "",
          "type": "address"
        }
      ],
      "stateMutability": "view",
      "type": "function"
    },
    {
      "inputs": [
        {
          "internalType": "uint256",
          "name": "",
          "type": "uint256"
        },
        {
          "internalType": "uint256",
          "name": "",
          "type": "uint256"
        }
      ],
      "name": "disputeIDRoundIDtoRound",
      "outputs": [
        {
          "internalType": "uint256",
          "name": "feeRewards",
          "type": "uint256"
        }
      ],
      "stateMutability": "view",
      "type": "function"
    },
    {
      "inputs": [
        {
          "internalType": "uint256",
          "name": "",
          "type": "uint256"
        }
      ],
      "name": "disputes",
      "outputs": [
        {
          "internalType": "bytes",
          "name": "arbitratorExtraData",
          "type": "bytes"
        },
        {
          "internalType": "bool",
          "name": "isRuled",
          "type": "bool"
        },
        {
          "internalType": "enum BinaryArbitrableProxy.Party",
          "name": "ruling",
          "type": "uint8"
        },
        {
          "internalType": "uint256",
          "name": "disputeIDOnArbitratorSide",
          "type": "uint256"
        }
      ],
      "stateMutability": "view",
      "type": "function"
    },
    {
      "inputs": [
        {
          "internalType": "uint256",
          "name": "",
          "type": "uint256"
        }
      ],
      "name": "externalIDtoLocalID",
      "outputs": [
        {
          "internalType": "uint256",
          "name": "",
          "type": "uint256"
        }
      ],
      "stateMutability": "view",
      "type": "function"
    },
    {
      "inputs": [],
      "name": "governor",
      "outputs": [
        {
          "internalType": "address",
          "name": "",
          "type": "address"
        }
      ],
      "stateMutability": "view",
      "type": "function"
    },
    {
      "inputs": [],
      "name": "loserStakeMultiplier",
      "outputs": [
        {
          "internalType": "uint256",
          "name": "",
          "type": "uint256"
        }
      ],
      "stateMutability": "view",
      "type": "function"
    },
    {
      "inputs": [],
      "name": "sharedStakeMultiplier",
      "outputs": [
        {
          "internalType": "uint256",
          "name": "",
          "type": "uint256"
        }
      ],
      "stateMutability": "view",
      "type": "function"
    },
    {
      "inputs": [],
      "name": "winnerStakeMultiplier",
      "outputs": [
        {
          "internalType": "uint256",
          "name": "",
          "type": "uint256"
        }
      ],
      "stateMutability": "view",
      "type": "function"
    },
    {
      "inputs": [
        {
          "internalType": "uint256",
          "name": "",
          "type": "uint256"
        },
        {
          "internalType": "address",
          "name": "",
          "type": "address"
        }
      ],
      "name": "withdrewAlready",
      "outputs": [
        {
          "internalType": "bool",
          "name": "",
          "type": "bool"
        }
      ],
      "stateMutability": "view",
      "type": "function"
    },
    {
      "inputs": [
        {
          "internalType": "bytes",
          "name": "_arbitratorExtraData",
          "type": "bytes"
        },
        {
          "internalType": "string",
          "name": "_metaevidenceURI",
          "type": "string"
        }
      ],
      "name": "createDispute",
      "outputs": [
        {
          "internalType": "uint256",
          "name": "disputeID",
          "type": "uint256"
        }
      ],
      "stateMutability": "payable",
      "type": "function"
    },
    {
      "inputs": [
        {
          "internalType": "uint256",
          "name": "_localDisputeID",
          "type": "uint256"
        },
        {
          "internalType": "enum BinaryArbitrableProxy.Party",
          "name": "_side",
          "type": "uint8"
        }
      ],
      "name": "fundAppeal",
      "outputs": [],
      "stateMutability": "payable",
      "type": "function"
    },
    {
      "inputs": [
        {
          "internalType": "uint256",
          "name": "_localDisputeID",
          "type": "uint256"
        },
        {
          "internalType": "address payable",
          "name": "_contributor",
          "type": "address"
        },
        {
          "internalType": "uint256",
          "name": "_roundNumber",
          "type": "uint256"
        }
      ],
      "name": "withdrawFeesAndRewards",
      "outputs": [],
      "stateMutability": "nonpayable",
      "type": "function"
    },
    {
      "inputs": [
        {
          "internalType": "uint256",
          "name": "_localDisputeID",
          "type": "uint256"
        },
        {
          "internalType": "address payable",
          "name": "_contributor",
          "type": "address"
        }
      ],
      "name": "withdrawFeesAndRewardsForAllRounds",
      "outputs": [],
      "stateMutability": "nonpayable",
      "type": "function"
    },
    {
      "inputs": [
        {
          "internalType": "uint256",
          "name": "_externalDisputeID",
          "type": "uint256"
        },
        {
          "internalType": "uint256",
          "name": "_ruling",
          "type": "uint256"
        }
      ],
      "name": "rule",
      "outputs": [],
      "stateMutability": "nonpayable",
      "type": "function"
    },
    {
      "inputs": [
        {
          "internalType": "uint256",
          "name": "_localDisputeID",
          "type": "uint256"
        },
        {
          "internalType": "string",
          "name": "_evidenceURI",
          "type": "string"
        }
      ],
      "name": "submitEvidence",
      "outputs": [],
      "stateMutability": "nonpayable",
      "type": "function"
    },
    {
      "inputs": [
        {
          "internalType": "uint256",
          "name": "_sharedStakeMultiplier",
          "type": "uint256"
        }
      ],
      "name": "changeSharedStakeMultiplier",
      "outputs": [],
      "stateMutability": "nonpayable",
      "type": "function"
    },
    {
      "inputs": [
        {
          "internalType": "uint256",
          "name": "_winnerStakeMultiplier",
          "type": "uint256"
        }
      ],
      "name": "changeWinnerStakeMultiplier",
      "outputs": [],
      "stateMutability": "nonpayable",
      "type": "function"
    },
    {
      "inputs": [
        {
          "internalType": "uint256",
          "name": "_loserStakeMultiplier",
          "type": "uint256"
        }
      ],
      "name": "changeLoserStakeMultiplier",
      "outputs": [],
      "stateMutability": "nonpayable",
      "type": "function"
    },
    {
      "inputs": [
        {
          "internalType": "uint256",
          "name": "_localDisputeID",
          "type": "uint256"
        },
        {
          "internalType": "uint256",
          "name": "_round",
          "type": "uint256"
        }
      ],
      "name": "getRoundInfo",
      "outputs": [
        {
          "internalType": "bool",
          "name": "appealed",
          "type": "bool"
        },
        {
          "internalType": "uint256[3]",
          "name": "paidFees",
          "type": "uint256[3]"
        },
        {
          "internalType": "bool[3]",
          "name": "hasPaid",
          "type": "bool[3]"
        },
        {
          "internalType": "uint256",
          "name": "feeRewards",
          "type": "uint256"
        }
      ],
      "stateMutability": "view",
      "type": "function"
    },
    {
      "inputs": [],
      "name": "getMultipliers",
      "outputs": [
        {
          "internalType": "uint256",
          "name": "winner",
          "type": "uint256"
        },
        {
          "internalType": "uint256",
          "name": "loser",
          "type": "uint256"
        },
        {
          "internalType": "uint256",
          "name": "shared",
          "type": "uint256"
        },
        {
          "internalType": "uint256",
          "name": "divisor",
          "type": "uint256"
        }
      ],
      "stateMutability": "view",
      "type": "function"
    },
    {
      "inputs": [
        {
          "internalType": "uint256",
          "name": "_localDisputeID",
          "type": "uint256"
        },
        {
          "internalType": "address",
          "name": "_participant",
          "type": "address"
        }
      ],
      "name": "crowdfundingStatus",
      "outputs": [
        {
          "internalType": "uint256[3]",
          "name": "paidFees",
          "type": "uint256[3]"
        },
        {
          "internalType": "bool[3]",
          "name": "hasPaid",
          "type": "bool[3]"
        },
        {
          "internalType": "uint256",
          "name": "feeRewards",
          "type": "uint256"
        },
        {
          "internalType": "uint256[3]",
          "name": "contributions",
          "type": "uint256[3]"
        }
      ],
      "stateMutability": "view",
      "type": "function"
    },
    {
      "inputs": [
        {
          "internalType": "bytes",
          "name": "_arbitratorExtraData",
          "type": "bytes"
        }
      ],
      "name": "getArbitrationCost",
      "outputs": [
        {
          "internalType": "uint256",
          "name": "arbitrationFee",
          "type": "uint256"
        }
      ],
      "stateMutability": "view",
      "type": "function"
    },
    {
      "inputs": [
        {
          "internalType": "uint256",
          "name": "_cursor",
          "type": "uint256"
        },
        {
          "internalType": "uint256",
          "name": "_count",
          "type": "uint256"
        }
      ],
      "name": "getOpenDisputes",
      "outputs": [
        {
          "internalType": "uint256[]",
          "name": "openDisputes",
          "type": "uint256[]"
        },
        {
          "internalType": "bool",
          "name": "hasMore",
          "type": "bool"
        }
      ],
      "stateMutability": "view",
      "type": "function"
    }
  ],
  "bytecode": "0x608060405260008054600160a060020a0319163317905534801561002257600080fd5b506040516128833803806128838339818101604052608081101561004557600080fd5b5080516020820151604083015160609093015160018054600160a060020a031916600160a060020a03909416939093179092556002556003919091556004556127f0806100936000396000f3fe6080604052600436106101a8576000357c01000000000000000000000000000000000000000000000000000000009004806379873f8a116100f357806396b2598b1161009c578063c21ae06111610076578063c21ae061146108b9578063d661dd31146108e3578063eb0b9c06146108f8576101a8565b806396b2598b146107db578063a6a7f0eb1461080b578063adc7faba1461088f576101a8565b806382b5f98e116100cd57806382b5f98e146106805780638a9bb02a1461070d57806392239dff146107b1576101a8565b806379873f8a146105535780637abda7831461058e5780637b9433831461066b576101a8565b8063223e275711610155578063416583411161012f5780634165834114610465578063564a565d1461047a5780636cc6cde11461053e576101a8565b8063223e27571461036c57806326e3a53b146103b8578063311a6c5614610435576101a8565b806312ce35251161018657806312ce35251461025957806318774a77146102835780631d51208514610357576101a8565b8063087e03af146101ad5780630c340a24146101f557806312b3a2c014610233575b600080fd5b3480156101b957600080fd5b506101f3600480360360408110156101d057600080fd5b508035906020013573ffffffffffffffffffffffffffffffffffffffff16610952565b005b34801561020157600080fd5b5061020a610a63565b6040805173ffffffffffffffffffffffffffffffffffffffff9092168252519081900360200190f35b6101f36004803603604081101561024957600080fd5b508035906020013560ff16610a7f565b34801561026557600080fd5b506101f36004803603602081101561027c57600080fd5b50356111a4565b6103456004803603604081101561029957600080fd5b8101906020810181356401000000008111156102b457600080fd5b8201836020820111156102c657600080fd5b803590602001918460018302840111640100000000831117156102e857600080fd5b91939092909160208101903564010000000081111561030657600080fd5b82018360208201111561031857600080fd5b8035906020019184600183028401116401000000008311171561033a57600080fd5b509092509050611219565b60408051918252519081900360200190f35b34801561036357600080fd5b5061034561153b565b34801561037857600080fd5b506101f36004803603606081101561038f57600080fd5b5080359073ffffffffffffffffffffffffffffffffffffffff6020820135169060400135611541565b3480156103c457600080fd5b50610345600480360360208110156103db57600080fd5b8101906020810181356401000000008111156103f657600080fd5b82018360208201111561040857600080fd5b8035906020019184600183028401116401000000008311171561042a57600080fd5b509092509050611898565b34801561044157600080fd5b506101f36004803603604081101561045857600080fd5b5080359060200135611985565b34801561047157600080fd5b50610345611cbe565b34801561048657600080fd5b506104a46004803603602081101561049d57600080fd5b5035611cc4565b604051808060200185151581526020018460028111156104c057fe5b8152602001838152602001828103825286818151815260200191508051906020019080838360005b838110156105005781810151838201526020016104e8565b50505050905090810190601f16801561052d5780820380516001836020036101000a031916815260200191505b509550505050505060405180910390f35b34801561054a57600080fd5b5061020a611dae565b34801561055f57600080fd5b50610568611dca565b604080519485526020850193909352838301919091526060830152519081900360800190f35b34801561059a57600080fd5b506105d4600480360360408110156105b157600080fd5b508035906020013573ffffffffffffffffffffffffffffffffffffffff16611ddc565b6040518085606080838360005b838110156105f95781810151838201526020016105e1565b5050505090500184600360200280838360005b8381101561062457818101518382015260200161060c565b5050505090500183815260200182600360200280838360005b8381101561065557818101518382015260200161063d565b5050505090500194505050505060405180910390f35b34801561067757600080fd5b50610345611f3c565b34801561068c57600080fd5b506106b0600480360360408110156106a357600080fd5b5080359060200135611f42565b60405180806020018315158152602001828103825284818151815260200191508051906020019060200280838360005b838110156106f85781810151838201526020016106e0565b50505050905001935050505060405180910390f35b34801561071957600080fd5b5061073d6004803603604081101561073057600080fd5b508035906020013561207b565b60405184151581526020810184606080838360005b8381101561076a578181015183820152602001610752565b5050505090500183600360200280838360005b8381101561079557818101518382015260200161077d565b5050505090500182815260200194505050505060405180910390f35b3480156107bd57600080fd5b506101f3600480360360208110156107d457600080fd5b503561218f565b3480156107e757600080fd5b50610345600480360360408110156107fe57600080fd5b5080359060200135612204565b34801561081757600080fd5b506101f36004803603604081101561082e57600080fd5b8135919081019060408101602082013564010000000081111561085057600080fd5b82018360208201111561086257600080fd5b8035906020019184600183028401116401000000008311171561088457600080fd5b50909250905061223b565b34801561089b57600080fd5b506101f3600480360360208110156108b257600080fd5b503561235e565b3480156108c557600080fd5b50610345600480360360208110156108dc57600080fd5b50356123d3565b3480156108ef57600080fd5b506103456123e5565b34801561090457600080fd5b5061093e6004803603604081101561091b57600080fd5b508035906020013573ffffffffffffffffffffffffffffffffffffffff166123eb565b604080519115158252519081900360200190f35b600082815260086020908152604080832073ffffffffffffffffffffffffffffffffffffffff8516845290915290205460ff16156109db576040517f08c379a00000000000000000000000000000000000000000000000000000000081526004018080602001828103825260268152602001806127956026913960400191505060405180910390fd5b60005b600083815260076020526040902054811015610a07576109ff838383611541565b6001016109de565b50600091825260086020908152604080842073ffffffffffffffffffffffffffffffffffffffff9093168452919052902080547fffffffffffffffffffffffffffffffffffffffffffffffffffffffffffffff00166001179055565b60005473ffffffffffffffffffffffffffffffffffffffff1681565b6000816002811115610a8d57fe5b1415610ae4576040517f08c379a000000000000000000000000000000000000000000000000000000000815260040180806020018281038252603b8152602001806126e5603b913960400191505060405180910390fd5b600060058381548110610af357fe5b90600052602060002090600302019050600080600160009054906101000a900473ffffffffffffffffffffffffffffffffffffffff1673ffffffffffffffffffffffffffffffffffffffff1663afe15cfb84600201546040518263ffffffff167c010000000000000000000000000000000000000000000000000000000002815260040180828152602001915050604080518083038186803b158015610b9857600080fd5b505afa158015610bac573d6000803e3d6000fd5b505050506040513d6040811015610bc257600080fd5b5080516020909101519092509050428211801590610bdf57508042105b610c34576040517f08c379a000000000000000000000000000000000000000000000000000000000815260040180806020018281038252602e815260200180612672602e913960400191505060405180910390fd5b6001546002840154604080517f1c3db16d00000000000000000000000000000000000000000000000000000000815260048101929092525160009273ffffffffffffffffffffffffffffffffffffffff1691631c3db16d916024808301926020929190829003018186803b158015610cab57600080fd5b505afa158015610cbf573d6000803e3d6000fd5b505050506040513d6020811015610cd557600080fd5b50516002811115610ce257fe5b905060006001826002811115610cf457fe5b1415610d0257506002610d1a565b6002826002811115610d1057fe5b1415610d1a575060015b806002811115610d2657fe5b866002811115610d3257fe5b141580610d455750600284840304844203105b610d9a576040517f08c379a00000000000000000000000000000000000000000000000000000000081526004018080602001828103825260458152602001806126a06045913960600191505060405180910390fd5b6000826002811115610da857fe5b876002811115610db457fe5b1415610dc35750600254610def565b816002811115610dcf57fe5b876002811115610ddb57fe5b1415610dea5750600354610def565b506004545b60018054600280890154604080517ff23f16e600000000000000000000000000000000000000000000000000000000815260048101838152602482019283528c547fffffffffffffffffffffffffffffffffffffffffffffffffffffffffffffffff978116156101000297909701909616939093046044840181905260009573ffffffffffffffffffffffffffffffffffffffff9095169463f23f16e6948d93919260649091019084908015610ee65780601f10610ebb57610100808354040283529160200191610ee6565b820191906000526020600020905b815481529060010190602001808311610ec957829003601f168201915b5050935050505060206040518083038186803b158015610f0557600080fd5b505afa158015610f19573d6000803e3d6000fd5b505050506040513d6020811015610f2f57600080fd5b505190506000610f55612710610f45848661240b565b81610f4c57fe5b8491900461245f565b60008b815260076020526040812080549293509182907fffffffffffffffffffffffffffffffffffffffffffffffffffffffffffffffff8101908110610f9757fe5b90600052602060002090600602019050610fb4818c333487612492565b82818c6002811115610fc257fe5b60038110610fcc57fe5b01541061100f576001816003018c6002811115610fe557fe5b60038110610fef57fe5b602091828204019190066101000a81548160ff0219169083151502179055505b6003810154610100900460ff1680156110325750600381015462010000900460ff165b156111965781546001018255600082905260048101546110529085612572565b8160040181905550600160009054906101000a900473ffffffffffffffffffffffffffffffffffffffff1673ffffffffffffffffffffffffffffffffffffffff166349912f88858c600201548d6000016040518463ffffffff167c0100000000000000000000000000000000000000000000000000000000028152600401808381526020018060200182810382528381815460018160011615610100020316600290048152602001915080546001816001161561010002031660029004801561115c5780601f106111315761010080835404028352916020019161115c565b820191906000526020600020905b81548152906001019060200180831161113f57829003601f168201915b505093505050506000604051808303818588803b15801561117c57600080fd5b505af1158015611190573d6000803e3d6000fd5b50505050505b505050505050505050505050565b60005473ffffffffffffffffffffffffffffffffffffffff163314611214576040517f08c379a00000000000000000000000000000000000000000000000000000000081526004018080602001828103825260238152602001806127206023913960400191505060405180910390fd5b600455565b600154604080517fc13517e1000000000000000000000000000000000000000000000000000000008152600260048201818152602483019384526044830188905260009473ffffffffffffffffffffffffffffffffffffffff169363c13517e1933493928b928b92606401848480828437600083820152604051601f9091017fffffffffffffffffffffffffffffffffffffffffffffffffffffffffffffffe01690920196506020955090935050508184039050818588803b1580156112de57600080fd5b505af11580156112f2573d6000803e3d6000fd5b50505050506040513d602081101561130957600080fd5b50516040805160a06020601f8901819004028201810190925260808101878152929350600592909182919089908990819085018382808284376000920182905250938552505050602080830182905260408301829052606090920185905283546001810185559381528190208251805193946003029091019261138f92849201906125b2565b5060208201516001820180547fffffffffffffffffffffffffffffffffffffffffffffffffffffffffffffff001691151591909117808255604084015191907fffffffffffffffffffffffffffffffffffffffffffffffffffffffffffff00ff166101008360028111156113ff57fe5b02179055506060919091015160029091015560055460008281526006602090815260408083207fffffffffffffffffffffffffffffffffffffffffffffffffffffffffffffffff909401938490558383526007825280832080546001018155909252815181815290810185905282917f61606860eb6c87306811e2695215385101daab53bd6ab4e9f9049aead9363c7d91879187919081908101848480828437600083820152604051601f9091017fffffffffffffffffffffffffffffffffffffffffffffffffffffffffffffffe0169092018290039550909350505050a260015460408051838152602081018490528151859373ffffffffffffffffffffffffffffffffffffffff16927f74baab670a4015ab2f1b467c5252a96141a2573f2908e58a92081e80d3cfde3d928290030190a350949350505050565b60035481565b60006005848154811061155057fe5b90600052602060002090600302019050600060076000868152602001908152602001600020838154811061158057fe5b6000918252602082206001850154600690920201925060ff6101009091041660028111156115aa57fe5b600184015490915060ff1661162057604080517f08c379a000000000000000000000000000000000000000000000000000000000815260206004820152601c60248201527f54686520646973707574652073686f756c6420626520736f6c76656400000000604482015290519081900360640190fd5b6003820154600090610100900460ff1615806116475750600383015462010000900460ff16155b1561168e575073ffffffffffffffffffffffffffffffffffffffff85166000908152600583016020526040812060028101805460019092018054908490559290550161185d565b60008260ff16600281111561169f57fe5b60028111156116aa57fe5b14156117ab576000808460010154116116c457600061170d565b83600201548460010154600486015473ffffffffffffffffffffffffffffffffffffffff8a1660009081526005880160205260409020929091019160010154028161170b57fe5b045b905060008085600201541161172357600061176c565b84600201548560010154600487015473ffffffffffffffffffffffffffffffffffffffff8b1660009081526005890160205260409020929091019160020154028161176a57fe5b045b73ffffffffffffffffffffffffffffffffffffffff891660009081526005870160205260408120600181018290556002015591909101915061185d9050565b60008360ff8416600381106117bc57fe5b0154116117ca576000611821565b8260ff8316600381106117d957fe5b0154600484015473ffffffffffffffffffffffffffffffffffffffff88166000908152600586016020526040902060ff85166003811061181557fe5b0154028161181f57fe5b045b73ffffffffffffffffffffffffffffffffffffffff8716600090815260058501602052604081209192509060ff84166003811061185a57fe5b01555b60405173ffffffffffffffffffffffffffffffffffffffff87169082156108fc029083906000818181858888f1505050505050505050505050565b6001546040517ff7434ea90000000000000000000000000000000000000000000000000000000081526020600482019081526024820184905260009273ffffffffffffffffffffffffffffffffffffffff169163f7434ea99186918691908190604401848480828437600083820152604051601f9091017fffffffffffffffffffffffffffffffffffffffffffffffffffffffffffffffe01690920195506020945090925050508083038186803b15801561195257600080fd5b505afa158015611966573d6000803e3d6000fd5b505050506040513d602081101561197c57600080fd5b50519392505050565b60008281526006602052604081205460058054919291839081106119a557fe5b60009182526020909120600154600390920201915073ffffffffffffffffffffffffffffffffffffffff163314611a27576040517f08c379a00000000000000000000000000000000000000000000000000000000081526004018080602001828103825260258152602001806127706025913960400191505060405180910390fd5b6002831115611a9757604080517f08c379a000000000000000000000000000000000000000000000000000000000815260206004820152600f60248201527f496e76616c69642072756c696e672e0000000000000000000000000000000000604482015290519081900360640190fd5b600181015460ff1615611b0b57604080517f08c379a000000000000000000000000000000000000000000000000000000000815260206004820152601160248201527f49732072756c656420616c72656164792e000000000000000000000000000000604482015290519081900360640190fd5b600181810180547fffffffffffffffffffffffffffffffffffffffffffffffffffffffffffffff00169091179055826002811115611b4557fe5b6001820180547fffffffffffffffffffffffffffffffffffffffffffffffffffffffffffff00ff16610100836002811115611b7c57fe5b02179055506000828152600760205260408120805490919082907fffffffffffffffffffffffffffffffffffffffffffffffffffffffffffffffff8101908110611bc257fe5b600091825260209091206006909102016003810154909150600161010090910460ff1615151415611c20576001830180547fffffffffffffffffffffffffffffffffffffffffffffffffffffffffffff00ff16610100179055611c67565b600381015462010000900460ff16151560011415611c67576001830180547fffffffffffffffffffffffffffffffffffffffffffffffffffffffffffff00ff166102001790555b6001830154869033907f394027a5fa6e098a1191094d1719d6929b9abc535fcc0c8f448d6a4e7562227690610100900460ff166002811115611ca557fe5b60408051918252519081900360200190a3505050505050565b60045481565b60058181548110611cd457600080fd5b60009182526020918290206003919091020180546040805160026001841615610100027fffffffffffffffffffffffffffffffffffffffffffffffffffffffffffffffff0190931692909204601f810185900485028301850190915280825291935091839190830182828015611d8b5780601f10611d6057610100808354040283529160200191611d8b565b820191906000526020600020905b815481529060010190602001808311611d6e57829003601f168201915b505050506001830154600290930154919260ff8082169361010090920416915084565b60015473ffffffffffffffffffffffffffffffffffffffff1681565b60025460035460045461271090919293565b611de461263e565b611dec61263e565b6000611df661263e565b6000868152600760205260408120805490919082907fffffffffffffffffffffffffffffffffffffffffffffffffffffffffffffffff8101908110611e3757fe5b600091825260208083206004600693909302019182015473ffffffffffffffffffffffffffffffffffffffff8b168452600583019091526040928390208351606081019485905292945084936003808601949186919082845b815481526020019060010190808311611e90575050604080516060810191829052949850879350600392509050826000855b825461010083900a900460ff161515815260206001928301818104948501949093039092029101808411611ec2575050604080516060810191829052959850869450600393509150839050845b815481526020019060010190808311611f0f57505050505090509550955095509550505092959194509250565b60025481565b6060600080805b600554811015611f8a5760058181548110611f6057fe5b600091825260209091206001600390920201015460ff16611f82576001909101905b600101611f49565b508067ffffffffffffffff81118015611fa257600080fd5b50604051908082528060200260200182016040528015611fcc578160200160208202803683370190505b509250600191506000855b60055481108015611fef575085821080611fef575085155b15612062576005818154811061200157fe5b600091825260209091206001600390920201015460ff1661205a576005818154811061202957fe5b90600052602060002090600302016002015485838060010194508151811061204d57fe5b6020026020010181815250505b600101611fd7565b60055481141561207157600093505b5050509250929050565b600061208561263e565b61208d61263e565b60008581526007602052604081208054829190879081106120aa57fe5b600091825260208083208a8452600790915260409283902054600692909202016004810154835160608101948590529194507fffffffffffffffffffffffffffffffffffffffffffffffffffffffffffffffff909201891415928492600380850193919285919082845b815481526020019060010190808311612114575050604080516060810191829052949750869350600392509050826000855b825461010083900a900460ff1615158152602060019283018181049485019490930390920291018084116121465790505050505050915094509450945094505092959194509250565b60005473ffffffffffffffffffffffffffffffffffffffff1633146121ff576040517f08c379a00000000000000000000000000000000000000000000000000000000081526004018080602001828103825260238152602001806127206023913960400191505060405180910390fd5b600355565b6007602052816000526040600020818154811061222057600080fd5b60009182526020909120600460069092020101549150829050565b60006005848154811061224a57fe5b60009182526020909120600390910201600181015490915060ff16156122bb576040517f08c379a000000000000000000000000000000000000000000000000000000000815260040180806020018281038252602d815260200180612743602d913960400191505060405180910390fd5b60015460408051602080825281018590523392879273ffffffffffffffffffffffffffffffffffffffff909116917fdccf2f8b2cc26eafcd61905cba744cff4b81d14740725f6376390dc6298a6a3c918891889181908101848480828437600083820152604051601f9091017fffffffffffffffffffffffffffffffffffffffffffffffffffffffffffffffe0169092018290039550909350505050a450505050565b60005473ffffffffffffffffffffffffffffffffffffffff1633146123ce576040517f08c379a00000000000000000000000000000000000000000000000000000000081526004018080602001828103825260238152602001806127206023913960400191505060405180910390fd5b600255565b60066020526000908152604090205481565b61271081565b600860209081526000928352604080842090915290825290205460ff1681565b60008261241a57506000612459565b8282028284828161242757fe5b0414612453577fffffffffffffffffffffffffffffffffffffffffffffffffffffffffffffffff612455565b805b9150505b92915050565b600082820183811015612453577fffffffffffffffffffffffffffffffffffffffffffffffffffffffffffffffff612455565b6000806124c1846124bc898960028111156124a957fe5b600381106124b357fe5b01548690612572565b61258d565b73ffffffffffffffffffffffffffffffffffffffff8716600090815260058a0160205260409020919350915082908760028111156124fb57fe5b6003811061250557fe5b0180549091019055818787600281111561251b57fe5b6003811061252557fe5b01805490910190556004870180548301905560405173ffffffffffffffffffffffffffffffffffffffff86169082156108fc029083906000818181858888f1505050505050505050505050565b60008282111561258457506000612459565b50808203612459565b600080838311156125a3575082905060006125ab565b508190508083035b9250929050565b828054600181600116156101000203166002900490600052602060002090601f0160209004810192826125e8576000855561262e565b82601f1061260157805160ff191683800117855561262e565b8280016001018555821561262e579182015b8281111561262e578251825591602001919060010190612613565b5061263a92915061265c565b5090565b60405180606001604052806003906020820280368337509192915050565b5b8082111561263a576000815560010161265d56fe46756e64696e67206d757374206265206d6164652077697468696e207468652061707065616c20706572696f642e546865206c6f736572206d75737420636f6e7472696275746520647572696e67207468652066697273742068616c66206f66207468652061707065616c20706572696f642e596f752063616e27742066756e6420616e2061707065616c20696e206661766f72206f66207265667573696e6720746f206172626974726174652e4f6e6c792074686520676f7665726e6f722063616e206578656375746520746869732e43616e6e6f74207375626d69742065766964656e636520746f2061207265736f6c76656420646973707574652e4f6e6c79207468652061726269747261746f722063616e206578656375746520746869732e5468697320636f6e7472696275746f7220776974686472657720616c6c20616c72656164792ea264697066735822122073579cf987a7764372b0e5474627fdb89b40180d3e2d3068802cce067de41c7e64736f6c63430007060033",
  "immutableReferences": {},
  "source": "// SPDX-License-Identifier: MIT\n\n/**\n *  @authors: [@ferittuncer]\n *  @reviewers: [@remedcu]\n *  @auditors: []\n *  @bounties: []\n *  @deployments: [0xeF6F9665B3aAC2894Ea4c458F93aBA5BB8f8b86d, 0xc7e49251807780dFBbCA72778890B80bd946590B]\n */\n\npragma solidity >=0.7;\n\nimport \"@kleros/erc-792/contracts/IArbitrable.sol\";\nimport \"@kleros/erc-792/contracts/erc-1497/IEvidence.sol\";\nimport \"@kleros/erc-792/contracts/IArbitrator.sol\";\nimport \"@kleros/ethereum-libraries/contracts/CappedMath.sol\";\n\n/**\n *  @title BinaryArbitrableProxy\n *  This contract acts as a general purpose dispute creator.\n */\ncontract BinaryArbitrableProxy is IArbitrable, IEvidence {\n    using CappedMath for uint256; // Operations bounded between 0 and 2**256 - 1.\n    address public governor = msg.sender;\n    IArbitrator public arbitrator;\n\n    // The required fee stake that a party must pay depends on who won the previous round and is proportional to the arbitration cost such that the fee stake for a round is stake multiplier * arbitration cost for that round.\n    // Multipliers are in basis points.\n    uint256 public winnerStakeMultiplier; // Multiplier for calculating the fee stake paid by the party that won the previous round.\n    uint256 public loserStakeMultiplier; // Multiplier for calculating the fee stake paid by the party that lost the previous round.\n    uint256 public sharedStakeMultiplier; // Multiplier for calculating the fee stake that must be paid in the case where there isn't a winner and loser (e.g. when it's the first round or the arbitrator ruled \"refused to rule\"/\"could not rule\").\n    uint256 public constant MULTIPLIER_DIVISOR = 10000; // Divisor parameter for multipliers.\n\n    uint256 constant NUMBER_OF_CHOICES = 2;\n    enum Party {None, Requester, Respondent}\n\n    /** @dev Constructor\n     *  @param _arbitrator Target global arbitrator for any disputes.\n     *  @param _winnerStakeMultiplier Multiplier of the arbitration cost that the winner has to pay as fee stake for a round in basis points.\n     *  @param _loserStakeMultiplier Multiplier of the arbitration cost that the loser has to pay as fee stake for a round in basis points.\n     *  @param _sharedStakeMultiplier Multiplier of the arbitration cost that each party must pay as fee stake for a round when there isn't a winner/loser in the previous round (e.g. when it's the first round or the arbitrator refused to or did not rule). In basis points.\n     */\n    constructor(\n        IArbitrator _arbitrator,\n        uint256 _winnerStakeMultiplier,\n        uint256 _loserStakeMultiplier,\n        uint256 _sharedStakeMultiplier\n    ) public {\n        arbitrator = _arbitrator;\n        winnerStakeMultiplier = _winnerStakeMultiplier;\n        loserStakeMultiplier = _loserStakeMultiplier;\n        sharedStakeMultiplier = _sharedStakeMultiplier;\n    }\n\n    struct Round {\n        uint256[3] paidFees; // Tracks the fees paid by each side in this round.\n        bool[3] hasPaid; // True when the side has fully paid its fee. False otherwise.\n        uint256 feeRewards; // Sum of reimbursable appeal fees available to the parties that made contributions to the side that ultimately wins a dispute.\n        mapping(address => uint256[3]) contributions; // Maps contributors to their contributions for each side.\n    }\n\n    struct DisputeStruct {\n        bytes arbitratorExtraData;\n        bool isRuled;\n        Party ruling;\n        uint256 disputeIDOnArbitratorSide;\n    }\n\n    DisputeStruct[] public disputes;\n    mapping(uint256 => uint256) public externalIDtoLocalID;\n    mapping(uint256 => Round[]) public disputeIDRoundIDtoRound;\n    mapping(uint256 => mapping(address => bool)) public withdrewAlready;\n\n    /** @dev TRUSTED. Calls createDispute function of the specified arbitrator to create a dispute.\n        Note that we dont need to check that msg.value is enough to pay arbitration fees as its the responsibility of the arbitrator contract.\n     *  @param _arbitratorExtraData Extra data for the arbitrator of prospective dispute.\n     *  @param _metaevidenceURI Link to metaevidence of prospective dispute.\n     */\n    function createDispute(bytes calldata _arbitratorExtraData, string calldata _metaevidenceURI) external payable returns (uint256 disputeID) {\n        disputeID = arbitrator.createDispute{value: msg.value}(NUMBER_OF_CHOICES, _arbitratorExtraData);\n\n        disputes.push(DisputeStruct({arbitratorExtraData: _arbitratorExtraData, isRuled: false, ruling: Party.None, disputeIDOnArbitratorSide: disputeID}));\n\n        uint256 localDisputeID = disputes.length - 1;\n        externalIDtoLocalID[disputeID] = localDisputeID;\n\n        disputeIDRoundIDtoRound[localDisputeID].push();\n\n        emit MetaEvidence(localDisputeID, _metaevidenceURI);\n        emit Dispute(arbitrator, disputeID, localDisputeID, localDisputeID);\n    }\n\n    /** @dev Returns the contribution value and remainder from available ETH and required amount.\n     *  @param _available The amount of ETH available for the contribution.\n     *  @param _requiredAmount The amount of ETH required for the contribution.\n     *  @return taken The amount of ETH taken.\n     *  @return remainder The amount of ETH left from the contribution.\n     */\n    function calculateContribution(uint256 _available, uint256 _requiredAmount) internal pure returns (uint256 taken, uint256 remainder) {\n        if (_requiredAmount > _available) return (_available, 0); // Take whatever is available, return 0 as leftover ETH.\n\n        remainder = _available - _requiredAmount;\n        return (_requiredAmount, remainder);\n    }\n\n    /** @dev Make a fee contribution.\n     *  @param _round The round to contribute.\n     *  @param _side The side for which to contribute.\n     *  @param _contributor The contributor.\n     *  @param _amount The amount contributed.\n     *  @param _totalRequired The total amount required for this side.\n     */\n    function contribute(\n        Round storage _round,\n        Party _side,\n        address payable _contributor,\n        uint256 _amount,\n        uint256 _totalRequired\n    ) internal {\n        // Take up to the amount necessary to fund the current round at the current costs.\n        uint256 contribution; // Amount contributed.\n        uint256 remainingETH; // Remaining ETH to send back.\n        (contribution, remainingETH) = calculateContribution(_amount, _totalRequired.subCap(_round.paidFees[uint256(_side)]));\n        _round.contributions[_contributor][uint256(_side)] += contribution;\n        _round.paidFees[uint256(_side)] += contribution;\n        _round.feeRewards += contribution;\n\n        // Reimburse leftover ETH.\n        _contributor.send(remainingETH); // Deliberate use of send in order to not block the contract in case of reverting fallback.\n    }\n\n    /** @dev TRUSTED. Manages contributions and calls appeal function of the specified arbitrator to appeal a dispute. This function lets appeals be crowdfunded.\n        Note that we dont need to check that msg.value is enough to pay arbitration fees as its the responsibility of the arbitrator contract.\n     *  @param _localDisputeID Index of the dispute in disputes array.\n     *  @param _side The side to which the caller wants to contribute.\n     */\n    function fundAppeal(uint256 _localDisputeID, Party _side) external payable {\n        require(_side != Party.None, \"You can't fund an appeal in favor of refusing to arbitrate.\");\n        DisputeStruct storage dispute = disputes[_localDisputeID];\n\n        (uint256 appealPeriodStart, uint256 appealPeriodEnd) = arbitrator.appealPeriod(dispute.disputeIDOnArbitratorSide);\n        require(block.timestamp >= appealPeriodStart && block.timestamp < appealPeriodEnd, \"Funding must be made within the appeal period.\");\n\n        Party winner = Party(arbitrator.currentRuling(dispute.disputeIDOnArbitratorSide));\n        Party loser;\n        if (winner == Party.Requester) loser = Party.Respondent;\n        else if (winner == Party.Respondent) loser = Party.Requester;\n        require(!(_side == loser) || (block.timestamp - appealPeriodStart < (appealPeriodEnd - appealPeriodStart) / 2), \"The loser must contribute during the first half of the appeal period.\");\n\n        uint256 multiplier;\n        if (_side == winner) {\n            multiplier = winnerStakeMultiplier;\n        } else if (_side == loser) {\n            multiplier = loserStakeMultiplier;\n        } else {\n            multiplier = sharedStakeMultiplier;\n        }\n\n        uint256 appealCost = arbitrator.appealCost(dispute.disputeIDOnArbitratorSide, dispute.arbitratorExtraData);\n        uint256 totalCost = appealCost.addCap(appealCost.mulCap(multiplier) / MULTIPLIER_DIVISOR);\n\n        Round[] storage rounds = disputeIDRoundIDtoRound[_localDisputeID];\n        Round storage lastRound = disputeIDRoundIDtoRound[_localDisputeID][rounds.length - 1];\n\n        contribute(lastRound, _side, msg.sender, msg.value, totalCost);\n\n        if (lastRound.paidFees[uint256(_side)] >= totalCost) lastRound.hasPaid[uint256(_side)] = true;\n\n        if (lastRound.hasPaid[uint8(Party.Requester)] && lastRound.hasPaid[uint8(Party.Respondent)]) {\n            rounds.push();\n            lastRound.feeRewards = lastRound.feeRewards.subCap(appealCost);\n            arbitrator.appeal{value: appealCost}(dispute.disputeIDOnArbitratorSide, dispute.arbitratorExtraData);\n        }\n    }\n\n    /** @dev Allows to withdraw any reimbursable fees or rewards after the dispute gets solved.\n     *  @param _localDisputeID Index of the dispute in disputes array.\n     *  @param _contributor The address to withdraw its rewards.\n     *  @param _roundNumber The number of the round caller wants to withdraw from.\n     */\n    function withdrawFeesAndRewards(\n        uint256 _localDisputeID,\n        address payable _contributor,\n        uint256 _roundNumber\n    ) public {\n        DisputeStruct storage dispute = disputes[_localDisputeID];\n\n        Round storage round = disputeIDRoundIDtoRound[_localDisputeID][_roundNumber];\n        uint8 ruling = uint8(dispute.ruling);\n\n        require(dispute.isRuled, \"The dispute should be solved\");\n        uint256 reward;\n        if (!round.hasPaid[uint8(Party.Requester)] || !round.hasPaid[uint8(Party.Respondent)]) {\n            // Allow to reimburse if funding was unsuccessful.\n            reward = round.contributions[_contributor][uint8(Party.Requester)] + round.contributions[_contributor][uint8(Party.Respondent)];\n            round.contributions[_contributor][uint8(Party.Requester)] = 0;\n            round.contributions[_contributor][uint8(Party.Respondent)] = 0;\n        } else if (Party(ruling) == Party.None) {\n            // Reimburse unspent fees proportionally if there is no winner and loser.\n            uint256 rewardRequester = round.paidFees[uint8(Party.Requester)] > 0 ? (round.contributions[_contributor][uint8(Party.Requester)] * round.feeRewards) / (round.paidFees[uint8(Party.Requester)] + round.paidFees[uint8(Party.Respondent)]) : 0;\n            uint256 rewardRespondent = round.paidFees[uint8(Party.Respondent)] > 0 ? (round.contributions[_contributor][uint8(Party.Respondent)] * round.feeRewards) / (round.paidFees[uint8(Party.Requester)] + round.paidFees[uint8(Party.Respondent)]) : 0;\n\n            reward = rewardRequester + rewardRespondent;\n            round.contributions[_contributor][uint8(Party.Requester)] = 0;\n            round.contributions[_contributor][uint8(Party.Respondent)] = 0;\n        } else {\n            // Reward the winner.\n            reward = round.paidFees[ruling] > 0 ? (round.contributions[_contributor][ruling] * round.feeRewards) / round.paidFees[ruling] : 0;\n            round.contributions[_contributor][ruling] = 0;\n        }\n\n        _contributor.send(reward); // User is responsible for accepting the reward.\n    }\n\n    /** @dev Allows to withdraw any rewards or reimbursable fees after the dispute gets resolved, for all rounds.\n     *  @param _localDisputeID Index of the dispute in disputes array.\n     *  @param _contributor The address to withdraw its rewards.\n     */\n    function withdrawFeesAndRewardsForAllRounds(uint256 _localDisputeID, address payable _contributor) external {\n        require(withdrewAlready[_localDisputeID][_contributor] == false, \"This contributor withdrew all already.\");\n        for (uint256 roundNumber = 0; roundNumber < disputeIDRoundIDtoRound[_localDisputeID].length; roundNumber++) {\n            withdrawFeesAndRewards(_localDisputeID, _contributor, roundNumber);\n        }\n\n        withdrewAlready[_localDisputeID][_contributor] = true;\n    }\n\n    /** @dev To be called by the arbitrator of the dispute, to declare winning side.\n     *  @param _externalDisputeID ID of the dispute in arbitrator contract.\n     *  @param _ruling The ruling choice of the arbitration.\n     */\n    function rule(uint256 _externalDisputeID, uint256 _ruling) external override {\n        uint256 _localDisputeID = externalIDtoLocalID[_externalDisputeID];\n        DisputeStruct storage dispute = disputes[_localDisputeID];\n        require(msg.sender == address(arbitrator), \"Only the arbitrator can execute this.\");\n        require(_ruling <= NUMBER_OF_CHOICES, \"Invalid ruling.\");\n        require(dispute.isRuled == false, \"Is ruled already.\");\n\n        dispute.isRuled = true;\n        dispute.ruling = Party(_ruling);\n\n        Round[] storage rounds = disputeIDRoundIDtoRound[_localDisputeID];\n        Round storage round = disputeIDRoundIDtoRound[_localDisputeID][rounds.length - 1];\n\n        if (round.hasPaid[uint8(Party.Requester)] == true)\n            // If one side paid its fees, the ruling is in its favor. Note that if the other side had also paid, an appeal would have been created.\n            dispute.ruling = Party.Requester;\n        else if (round.hasPaid[uint8(Party.Respondent)] == true) dispute.ruling = Party.Respondent;\n\n        emit Ruling(IArbitrator(msg.sender), _externalDisputeID, uint256(dispute.ruling));\n    }\n\n    /** @dev Allows to submit evidence for a given dispute.\n     *  @param _localDisputeID Index of the dispute in disputes array.\n     *  @param _evidenceURI Link to evidence.\n     */\n    function submitEvidence(uint256 _localDisputeID, string calldata _evidenceURI) external {\n        DisputeStruct storage dispute = disputes[_localDisputeID];\n        require(dispute.isRuled == false, \"Cannot submit evidence to a resolved dispute.\");\n\n        emit Evidence(arbitrator, _localDisputeID, msg.sender, _evidenceURI);\n    }\n\n    /** @dev Changes the proportion of appeal fees that must be paid when there is no winner or loser.\n     *  @param _sharedStakeMultiplier The new tie multiplier value respect to MULTIPLIER_DIVISOR.\n     */\n    function changeSharedStakeMultiplier(uint256 _sharedStakeMultiplier) external {\n        require(msg.sender == governor, \"Only the governor can execute this.\");\n        sharedStakeMultiplier = _sharedStakeMultiplier;\n    }\n\n    /** @dev Changes the proportion of appeal fees that must be paid by winner.\n     *  @param _winnerStakeMultiplier The new winner multiplier value respect to MULTIPLIER_DIVISOR.\n     */\n    function changeWinnerStakeMultiplier(uint256 _winnerStakeMultiplier) external {\n        require(msg.sender == governor, \"Only the governor can execute this.\");\n        winnerStakeMultiplier = _winnerStakeMultiplier;\n    }\n\n    /** @dev Changes the proportion of appeal fees that must be paid by loser.\n     *  @param _loserStakeMultiplier The new loser multiplier value respect to MULTIPLIER_DIVISOR.\n     */\n    function changeLoserStakeMultiplier(uint256 _loserStakeMultiplier) external {\n        require(msg.sender == governor, \"Only the governor can execute this.\");\n        loserStakeMultiplier = _loserStakeMultiplier;\n    }\n\n    /** @dev Gets the information of a round of a dispute.\n     *  @param _localDisputeID ID of the dispute.\n     *  @param _round The round to be queried.\n     *  @return appealed Whether the round is appealed or not.\n     *  @return paidFees Total fees paid for each party.\n     *  @return hasPaid Whether given party paid required amount or not, for each party.\n     *  @return feeRewards Total fees collected for parties excluding appeal cost.\n     */\n    function getRoundInfo(uint256 _localDisputeID, uint256 _round)\n        external\n        view\n        returns (\n            bool appealed,\n            uint256[3] memory paidFees,\n            bool[3] memory hasPaid,\n            uint256 feeRewards\n        )\n    {\n        Round storage round = disputeIDRoundIDtoRound[_localDisputeID][_round];\n        return (_round != (disputeIDRoundIDtoRound[_localDisputeID].length - 1), round.paidFees, round.hasPaid, round.feeRewards);\n    }\n\n    /** @dev Returns stake multipliers.\n     *  @return winner Winners stake multiplier.\n     *  @return loser Losers stake multiplier.\n     *  @return shared Multiplier when it's tied.\n     *  @return divisor Multiplier divisor.\n     */\n    function getMultipliers()\n        external\n        view\n        returns (\n            uint256 winner,\n            uint256 loser,\n            uint256 shared,\n            uint256 divisor\n        )\n    {\n        return (winnerStakeMultiplier, loserStakeMultiplier, sharedStakeMultiplier, MULTIPLIER_DIVISOR);\n    }\n\n    /** @dev Returns crowdfunding status, useful for user interfaces.\n     *  @param _localDisputeID Dispute ID as in this contract.\n     *  @param _participant Address of crowdfunding participant to get details of.\n     *  @return paidFees Total fees paid for each party in the last round.\n     *  @return hasPaid Whether given party paid required amount or not, for each party, in the last round.\n     *  @return feeRewards Total fees collected for parties excluding appeal cost, in the last round.\n     * @return contributions Contributions of given participant in the last round.\n     */\n    function crowdfundingStatus(uint256 _localDisputeID, address _participant)\n        external\n        view\n        returns (\n            uint256[3] memory paidFees,\n            bool[3] memory hasPaid,\n            uint256 feeRewards,\n            uint256[3] memory contributions\n        )\n    {\n        Round[] storage rounds = disputeIDRoundIDtoRound[_localDisputeID];\n        Round storage round = disputeIDRoundIDtoRound[_localDisputeID][rounds.length - 1];\n\n        return (round.paidFees, round.hasPaid, round.feeRewards, round.contributions[_participant]);\n    }\n\n    /** @dev Proxy getter for arbitration cost.\n     *  @param  _arbitratorExtraData Extra data for arbitration cost calculation. See arbitrator for details.\n     *  @return arbitrationFee Arbitration cost of the arbitrator of this contract.\n     */\n    function getArbitrationCost(bytes calldata _arbitratorExtraData) external view returns (uint256 arbitrationFee) {\n        arbitrationFee = arbitrator.arbitrationCost(_arbitratorExtraData);\n    }\n\n    /** @dev Returns active disputes.\n     *  @param _cursor Starting point for search.\n     *  @param _count Number of items to return.\n     *  @return openDisputes Dispute identifiers of open disputes, as in arbitrator.\n     *  @return hasMore Whether the search was exhausted (has no more) or not (has more).\n     */\n    function getOpenDisputes(uint256 _cursor, uint256 _count) external view returns (uint256[] memory openDisputes, bool hasMore) {\n        uint256 noOfOpenDisputes = 0;\n        for (uint256 i = 0; i < disputes.length; i++) {\n            if (disputes[i].isRuled == false) {\n                noOfOpenDisputes++;\n            }\n        }\n        openDisputes = new uint256[](noOfOpenDisputes);\n\n        uint256 count = 0;\n        hasMore = true;\n        uint256 i;\n        for (i = _cursor; i < disputes.length && (count < _count || 0 == _count); i++) {\n            if (disputes[i].isRuled == false) {\n                openDisputes[count++] = disputes[i].disputeIDOnArbitratorSide;\n            }\n        }\n\n        if (i == disputes.length) hasMore = false;\n    }\n}\n",
  "sourcePath": "/home/f/repos/realitio-arbitrator-with-appeals/contracts/BinaryArbitrableProxy.sol",
  "compiler": {
    "name": "solc",
    "version": "0.7.6+commit.7338295f.Emscripten.clang"
  },
  "schemaVersion": "3.4.0",
  "updatedAt": "2021-05-01T15:13:05.785Z",
  "devdoc": {
    "kind": "dev",
    "methods": {
      "changeLoserStakeMultiplier(uint256)": {
        "details": "Changes the proportion of appeal fees that must be paid by loser.",
        "params": {
          "_loserStakeMultiplier": "The new loser multiplier value respect to MULTIPLIER_DIVISOR."
        }
      },
      "changeSharedStakeMultiplier(uint256)": {
        "details": "Changes the proportion of appeal fees that must be paid when there is no winner or loser.",
        "params": {
          "_sharedStakeMultiplier": "The new tie multiplier value respect to MULTIPLIER_DIVISOR."
        }
      },
      "changeWinnerStakeMultiplier(uint256)": {
        "details": "Changes the proportion of appeal fees that must be paid by winner.",
        "params": {
          "_winnerStakeMultiplier": "The new winner multiplier value respect to MULTIPLIER_DIVISOR."
        }
      },
      "constructor": {
        "details": "Constructor",
        "params": {
          "_arbitrator": "Target global arbitrator for any disputes.",
          "_loserStakeMultiplier": "Multiplier of the arbitration cost that the loser has to pay as fee stake for a round in basis points.",
          "_sharedStakeMultiplier": "Multiplier of the arbitration cost that each party must pay as fee stake for a round when there isn't a winner/loser in the previous round (e.g. when it's the first round or the arbitrator refused to or did not rule). In basis points.",
          "_winnerStakeMultiplier": "Multiplier of the arbitration cost that the winner has to pay as fee stake for a round in basis points."
        }
      },
      "createDispute(bytes,string)": {
        "details": "TRUSTED. Calls createDispute function of the specified arbitrator to create a dispute. Note that we dont need to check that msg.value is enough to pay arbitration fees as its the responsibility of the arbitrator contract.",
        "params": {
          "_arbitratorExtraData": "Extra data for the arbitrator of prospective dispute.",
          "_metaevidenceURI": "Link to metaevidence of prospective dispute."
        }
      },
      "crowdfundingStatus(uint256,address)": {
        "details": "Returns crowdfunding status, useful for user interfaces.",
        "params": {
          "_localDisputeID": "Dispute ID as in this contract.",
          "_participant": "Address of crowdfunding participant to get details of."
        },
        "returns": {
          "contributions": "Contributions of given participant in the last round.",
          "feeRewards": "Total fees collected for parties excluding appeal cost, in the last round.",
          "hasPaid": "Whether given party paid required amount or not, for each party, in the last round.",
          "paidFees": "Total fees paid for each party in the last round."
        }
      },
      "fundAppeal(uint256,uint8)": {
        "details": "TRUSTED. Manages contributions and calls appeal function of the specified arbitrator to appeal a dispute. This function lets appeals be crowdfunded. Note that we dont need to check that msg.value is enough to pay arbitration fees as its the responsibility of the arbitrator contract.",
        "params": {
          "_localDisputeID": "Index of the dispute in disputes array.",
          "_side": "The side to which the caller wants to contribute."
        }
      },
      "getArbitrationCost(bytes)": {
        "details": "Proxy getter for arbitration cost.",
        "params": {
          "_arbitratorExtraData": "Extra data for arbitration cost calculation. See arbitrator for details."
        },
        "returns": {
          "arbitrationFee": "Arbitration cost of the arbitrator of this contract."
        }
      },
      "getMultipliers()": {
        "details": "Returns stake multipliers.",
        "returns": {
          "divisor": "Multiplier divisor.",
          "loser": "Losers stake multiplier.",
          "shared": "Multiplier when it's tied.",
          "winner": "Winners stake multiplier."
        }
      },
      "getOpenDisputes(uint256,uint256)": {
        "details": "Returns active disputes.",
        "params": {
          "_count": "Number of items to return.",
          "_cursor": "Starting point for search."
        },
        "returns": {
          "hasMore": "Whether the search was exhausted (has no more) or not (has more).",
          "openDisputes": "Dispute identifiers of open disputes, as in arbitrator."
        }
      },
      "getRoundInfo(uint256,uint256)": {
        "details": "Gets the information of a round of a dispute.",
        "params": {
          "_localDisputeID": "ID of the dispute.",
          "_round": "The round to be queried."
        },
        "returns": {
          "appealed": "Whether the round is appealed or not.",
          "feeRewards": "Total fees collected for parties excluding appeal cost.",
          "hasPaid": "Whether given party paid required amount or not, for each party.",
          "paidFees": "Total fees paid for each party."
        }
      },
      "rule(uint256,uint256)": {
        "details": "To be called by the arbitrator of the dispute, to declare winning side.",
        "params": {
          "_externalDisputeID": "ID of the dispute in arbitrator contract.",
          "_ruling": "The ruling choice of the arbitration."
        }
      },
      "submitEvidence(uint256,string)": {
        "details": "Allows to submit evidence for a given dispute.",
        "params": {
          "_evidenceURI": "Link to evidence.",
          "_localDisputeID": "Index of the dispute in disputes array."
        }
      },
      "withdrawFeesAndRewards(uint256,address,uint256)": {
        "details": "Allows to withdraw any reimbursable fees or rewards after the dispute gets solved.",
        "params": {
          "_contributor": "The address to withdraw its rewards.",
          "_localDisputeID": "Index of the dispute in disputes array.",
          "_roundNumber": "The number of the round caller wants to withdraw from."
        }
      },
      "withdrawFeesAndRewardsForAllRounds(uint256,address)": {
        "details": "Allows to withdraw any rewards or reimbursable fees after the dispute gets resolved, for all rounds.",
        "params": {
          "_contributor": "The address to withdraw its rewards.",
          "_localDisputeID": "Index of the dispute in disputes array."
        }
      }
    },
    "title": "BinaryArbitrableProxy  This contract acts as a general purpose dispute creator.",
    "version": 1
  },
  "userdoc": {
    "kind": "user",
    "methods": {},
    "version": 1
  }
}