{
  "contractName": "RealitioMock",
  "abi": [
    {
      "inputs": [],
      "name": "answer",
      "outputs": [
        {
          "internalType": "bytes32",
          "name": "",
          "type": "bytes32"
        }
      ],
      "stateMutability": "view",
      "type": "function"
    },
    {
      "inputs": [],
      "name": "arbitrator",
      "outputs": [
        {
          "internalType": "address",
          "name": "",
          "type": "address"
        }
      ],
      "stateMutability": "view",
      "type": "function"
    },
    {
      "inputs": [],
      "name": "is_pending_arbitration",
      "outputs": [
        {
          "internalType": "bool",
          "name": "",
          "type": "bool"
        }
      ],
      "stateMutability": "view",
      "type": "function"
    },
    {
      "inputs": [],
      "name": "question_id",
      "outputs": [
        {
          "internalType": "bytes32",
          "name": "",
          "type": "bytes32"
        }
      ],
      "stateMutability": "view",
      "type": "function"
    },
    {
      "inputs": [
        {
          "internalType": "address",
          "name": "_arbitrator",
          "type": "address"
        },
        {
          "internalType": "bytes32",
          "name": "_question_id",
          "type": "bytes32"
        }
      ],
      "name": "setArbitratorAndQuestion",
      "outputs": [],
      "stateMutability": "nonpayable",
      "type": "function"
    },
    {
      "inputs": [
        {
          "internalType": "bytes32",
          "name": "_question_id",
          "type": "bytes32"
        },
        {
          "internalType": "address",
          "name": "_requester",
          "type": "address"
        },
        {
          "internalType": "uint256",
          "name": "_max_previous",
          "type": "uint256"
        }
      ],
      "name": "notifyOfArbitrationRequest",
      "outputs": [],
      "stateMutability": "nonpayable",
      "type": "function"
    },
    {
      "inputs": [
        {
          "internalType": "bytes32",
          "name": "_question_id",
          "type": "bytes32"
        },
        {
          "internalType": "bytes32",
          "name": "_answer",
          "type": "bytes32"
        },
        {
          "internalType": "address",
          "name": "_answerer",
          "type": "address"
        }
      ],
      "name": "submitAnswerByArbitrator",
      "outputs": [],
      "stateMutability": "nonpayable",
      "type": "function"
    },
    {
      "inputs": [
        {
          "internalType": "bytes32",
          "name": "_answer_or_commitment_id",
          "type": "bytes32"
        },
        {
          "internalType": "address",
          "name": "_answerer",
          "type": "address"
        },
        {
          "internalType": "uint256",
          "name": "_bond",
          "type": "uint256"
        },
        {
          "internalType": "bool",
          "name": "_is_commitment",
          "type": "bool"
        }
      ],
      "name": "addAnswerToHistory",
      "outputs": [],
      "stateMutability": "nonpayable",
      "type": "function"
    },
    {
      "inputs": [
        {
          "internalType": "bool",
          "name": "_isRevealed",
          "type": "bool"
        },
        {
          "internalType": "bytes32",
          "name": "_revealedAnswer",
          "type": "bytes32"
        }
      ],
      "name": "setCommitment",
      "outputs": [],
      "stateMutability": "nonpayable",
      "type": "function"
    },
    {
      "inputs": [
        {
          "internalType": "bytes32",
          "name": "_commitmentID",
          "type": "bytes32"
        }
      ],
      "name": "commitments",
      "outputs": [
        {
          "internalType": "uint32",
          "name": "",
          "type": "uint32"
        },
        {
          "internalType": "bool",
          "name": "",
          "type": "bool"
        },
        {
          "internalType": "bytes32",
          "name": "",
          "type": "bytes32"
        }
      ],
      "stateMutability": "view",
      "type": "function"
    },
    {
      "inputs": [
        {
          "internalType": "bytes32",
          "name": "_question_id",
          "type": "bytes32"
        }
      ],
      "name": "getHistoryHash",
      "outputs": [
        {
          "internalType": "bytes32",
          "name": "",
          "type": "bytes32"
        }
      ],
      "stateMutability": "view",
      "type": "function"
    },
    {
      "inputs": [
        {
          "internalType": "uint256",
          "name": "_a",
          "type": "uint256"
        }
      ],
      "name": "toBytes",
      "outputs": [
        {
          "internalType": "bytes32",
          "name": "",
          "type": "bytes32"
        }
      ],
      "stateMutability": "pure",
      "type": "function"
    }
  ],
  "bytecode": "0x608060405234801561001057600080fd5b506107c8806100206000396000f3fe608060405234801561001057600080fd5b50600436106100f1576000357c010000000000000000000000000000000000000000000000000000000090048063839df9451161009e578063ad654b3611610078578063ad654b361461024f578063f6a94ecb14610288578063fe92049d146102c7576100f1565b8063839df945146101fd57806385bb7d691461023f5780638cbb4fee14610247576100f1565b80636feb5825116100cf5780636feb58251461016a578063775a8f5e146101b157806382ffa9f7146101e0576100f1565b8063056e677a146100f65780631f0156bb146101125780636cc6cde114610139575b600080fd5b6100fe610306565b604080519115158252519081900360200190f35b6101376004803603604081101561012857600080fd5b50803515159060200135610327565b005b61014161038d565b6040805173ffffffffffffffffffffffffffffffffffffffff9092168252519081900360200190f35b6101376004803603608081101561018057600080fd5b5080359073ffffffffffffffffffffffffffffffffffffffff602082013516906040810135906060013515156103a9565b6101ce600480360360208110156101c757600080fd5b5035610447565b60408051918252519081900360200190f35b6101ce600480360360208110156101f657600080fd5b503561044a565b61021a6004803603602081101561021357600080fd5b5035610451565b6040805163ffffffff9094168452911515602084015282820152519081900360600190f35b6101ce61046c565b6101ce610472565b6101376004803603604081101561026557600080fd5b5073ffffffffffffffffffffffffffffffffffffffff8135169060200135610478565b6101376004803603606081101561029e57600080fd5b5080359073ffffffffffffffffffffffffffffffffffffffff60208201351690604001356104c3565b610137600480360360608110156102dd57600080fd5b508035906020810135906040013573ffffffffffffffffffffffffffffffffffffffff166105fd565b60005474010000000000000000000000000000000000000000900460ff1681565b600380547fffffffffffffffffffffffffffffffffffffffffffffffffffffff00000000ff1661010042600a0163ffffffff1602177fffffffffffffffffffffffffffffffffffffffffffffffffffffffffffffff001692151592909217909155600455565b60005473ffffffffffffffffffffffffffffffffffffffff1681565b60055484838584604051602001808681526020018581526020018481526020018373ffffffffffffffffffffffffffffffffffffffff166c010000000000000000000000000281526014018215157f0100000000000000000000000000000000000000000000000000000000000000028152600101955050505050506040516020818303038152906040528051906020012060058190555050505050565b90565b5060055490565b50600354600454610100820463ffffffff169260ff90921691565b60025481565b60015481565b600080547fffffffffffffffffffffffff00000000000000000000000000000000000000001673ffffffffffffffffffffffffffffffffffffffff9390931692909217909155600155565b60005473ffffffffffffffffffffffffffffffffffffffff16331461054957604080517f08c379a000000000000000000000000000000000000000000000000000000000815260206004820152601d60248201527f6d73672e73656e646572206d7573742062652061726269747261746f72000000604482015290519081900360640190fd5b60015483146105b957604080517f08c379a000000000000000000000000000000000000000000000000000000000815260206004820152601d60248201527f4944206f6620746865207175657374696f6e206e6f74206d617463682e000000604482015290519081900360640190fd5b5050600080547fffffffffffffffffffffff00ffffffffffffffffffffffffffffffffffffffff167401000000000000000000000000000000000000000017905550565b60005473ffffffffffffffffffffffffffffffffffffffff16331461068357604080517f08c379a000000000000000000000000000000000000000000000000000000000815260206004820152601d60248201527f6d73672e73656e646572206d7573742062652061726269747261746f72000000604482015290519081900360640190fd5b60015483146106f357604080517f08c379a000000000000000000000000000000000000000000000000000000000815260206004820152601d60248201527f4944206f6620746865207175657374696f6e206e6f74206d617463682e000000604482015290519081900360640190fd5b600080547fffffffffffffffffffffff00ffffffffffffffffffffffffffffffffffffffff16815560058054604080516020808201939093528082018790526060810185905273ffffffffffffffffffffffffffffffffffffffff959095166c0100000000000000000000000002608086015260948501939093528251808503607501815260959094019092528251929091019190912090556002555056fea2646970667358221220a1265ba8a401bbf7fd91ea028907688e1b3200f853f5ceda73ab6466f59c7e0764736f6c63430007060033",
  "immutableReferences": {},
  "source": "pragma solidity >=0.7;\n\ncontract RealitioMock {\n    address public arbitrator;\n    bool public is_pending_arbitration;\n    bytes32 public question_id;\n    bytes32 public answer;\n    bool private isRevealed;\n    uint32 private reveal_ts;\n    bytes32 private revealedAnswer;\n    bytes32 private history_hash;\n\n    modifier onlyArbitrator() {\n        require(msg.sender == arbitrator, \"msg.sender must be arbitrator\");\n        _;\n    }\n\n    function setArbitratorAndQuestion(address _arbitrator, bytes32 _question_id) external {\n        arbitrator = _arbitrator;\n        question_id = _question_id;\n    }\n\n    function notifyOfArbitrationRequest(\n        bytes32 _question_id,\n        address _requester,\n        uint256 _max_previous\n    ) external onlyArbitrator() {\n        require(_question_id == question_id, \"ID of the question not match.\");\n        is_pending_arbitration = true;\n    }\n\n    function submitAnswerByArbitrator(\n        bytes32 _question_id,\n        bytes32 _answer,\n        address _answerer\n    ) external onlyArbitrator() {\n        require(_question_id == question_id, \"ID of the question not match.\");\n        is_pending_arbitration = false;\n        history_hash = keccak256(abi.encodePacked(history_hash, _answer, uint256(0), _answerer, false));\n        answer = _answer;\n    }\n\n    // To simulate the answer submission.\n    function addAnswerToHistory(\n        bytes32 _answer_or_commitment_id,\n        address _answerer,\n        uint256 _bond,\n        bool _is_commitment\n    ) external {\n        history_hash = keccak256(abi.encodePacked(history_hash, _answer_or_commitment_id, _bond, _answerer, _is_commitment));\n    }\n\n    function setCommitment(bool _isRevealed, bytes32 _revealedAnswer) external {\n        reveal_ts = uint32(block.timestamp + 10);\n        isRevealed = _isRevealed;\n        revealedAnswer = _revealedAnswer;\n    }\n\n    function commitments(bytes32 _commitmentID)\n        external\n        view\n        returns (\n            uint32,\n            bool,\n            bytes32\n        )\n    {\n        return (reveal_ts, isRevealed, revealedAnswer);\n    }\n\n    function getHistoryHash(bytes32 _question_id) external view returns (bytes32) {\n        return history_hash;\n    }\n\n    function toBytes(uint256 _a) external pure returns (bytes32) {\n        return bytes32(_a);\n    }\n}\n",
  "sourcePath": "/home/f/repos/realitio-arbitrator-with-appeals/contracts/test/RealitioMock.sol",
  "compiler": {
    "name": "solc",
    "version": "0.7.6+commit.7338295f.Emscripten.clang"
  },
  "schemaVersion": "3.4.0",
  "updatedAt": "2021-05-01T17:47:29.725Z",
  "devdoc": {
    "kind": "dev",
    "methods": {},
    "version": 1
  },
  "userdoc": {
    "kind": "user",
    "methods": {},
    "version": 1
  }
}