{
  "contractName": "RealitioArbitratorWithAppeals",
  "abi": [
    {
      "inputs": [
        {
          "internalType": "contract IRealitio",
          "name": "_realitio",
          "type": "address"
        },
        {
          "internalType": "string",
          "name": "_metadata",
          "type": "string"
        },
        {
          "internalType": "contract IArbitrator",
          "name": "_arbitrator",
          "type": "address"
        },
        {
          "internalType": "bytes",
          "name": "_arbitratorExtraData",
          "type": "bytes"
        }
      ],
      "stateMutability": "nonpayable",
      "type": "constructor"
    },
    {
      "anonymous": false,
      "inputs": [
        {
          "indexed": true,
          "internalType": "uint256",
          "name": "localDisputeID",
          "type": "uint256"
        },
        {
          "indexed": true,
          "internalType": "uint256",
          "name": "round",
          "type": "uint256"
        },
        {
          "indexed": false,
          "internalType": "uint256",
          "name": "ruling",
          "type": "uint256"
        },
        {
          "indexed": true,
          "internalType": "address",
          "name": "contributor",
          "type": "address"
        },
        {
          "indexed": false,
          "internalType": "uint256",
          "name": "amount",
          "type": "uint256"
        }
      ],
      "name": "Contribution",
      "type": "event"
    },
    {
      "anonymous": false,
      "inputs": [
        {
          "indexed": true,
          "internalType": "contract IArbitrator",
          "name": "_arbitrator",
          "type": "address"
        },
        {
          "indexed": true,
          "internalType": "uint256",
          "name": "_disputeID",
          "type": "uint256"
        },
        {
          "indexed": false,
          "internalType": "uint256",
          "name": "_metaEvidenceID",
          "type": "uint256"
        },
        {
          "indexed": false,
          "internalType": "uint256",
          "name": "_evidenceGroupID",
          "type": "uint256"
        }
      ],
      "name": "Dispute",
      "type": "event"
    },
    {
      "anonymous": false,
      "inputs": [
        {
          "indexed": true,
          "internalType": "uint256",
          "name": "_disputeID",
          "type": "uint256"
        },
        {
          "indexed": false,
          "internalType": "bytes32",
          "name": "_questionID",
          "type": "bytes32"
        }
      ],
      "name": "DisputeIDToQuestionID",
      "type": "event"
    },
    {
      "anonymous": false,
      "inputs": [
        {
          "indexed": true,
          "internalType": "contract IArbitrator",
          "name": "_arbitrator",
          "type": "address"
        },
        {
          "indexed": true,
          "internalType": "uint256",
          "name": "_evidenceGroupID",
          "type": "uint256"
        },
        {
          "indexed": true,
          "internalType": "address",
          "name": "_party",
          "type": "address"
        },
        {
          "indexed": false,
          "internalType": "string",
          "name": "_evidence",
          "type": "string"
        }
      ],
      "name": "Evidence",
      "type": "event"
    },
    {
      "anonymous": false,
      "inputs": [
        {
          "indexed": true,
          "internalType": "uint256",
          "name": "_metaEvidenceID",
          "type": "uint256"
        },
        {
          "indexed": false,
          "internalType": "string",
          "name": "_evidence",
          "type": "string"
        }
      ],
      "name": "MetaEvidence",
      "type": "event"
    },
    {
      "anonymous": false,
      "inputs": [
        {
          "indexed": true,
          "internalType": "contract IArbitrator",
          "name": "_arbitrator",
          "type": "address"
        },
        {
          "indexed": true,
          "internalType": "uint256",
          "name": "_disputeID",
          "type": "uint256"
        },
        {
          "indexed": false,
          "internalType": "uint256",
          "name": "_ruling",
          "type": "uint256"
        }
      ],
      "name": "Ruling",
      "type": "event"
    },
    {
      "anonymous": false,
      "inputs": [
        {
          "indexed": true,
          "internalType": "uint256",
          "name": "localDisputeID",
          "type": "uint256"
        },
        {
          "indexed": true,
          "internalType": "uint256",
          "name": "round",
          "type": "uint256"
        },
        {
          "indexed": true,
          "internalType": "uint256",
          "name": "ruling",
          "type": "uint256"
        }
      ],
      "name": "RulingFunded",
      "type": "event"
    },
    {
      "anonymous": false,
      "inputs": [
        {
          "indexed": true,
          "internalType": "uint256",
          "name": "localDisputeID",
          "type": "uint256"
        },
        {
          "indexed": true,
          "internalType": "uint256",
          "name": "round",
          "type": "uint256"
        },
        {
          "indexed": false,
          "internalType": "uint256",
          "name": "ruling",
          "type": "uint256"
        },
        {
          "indexed": true,
          "internalType": "address",
          "name": "contributor",
          "type": "address"
        },
        {
          "indexed": false,
          "internalType": "uint256",
          "name": "reward",
          "type": "uint256"
        }
      ],
      "name": "Withdrawal",
      "type": "event"
    },
    {
      "inputs": [
        {
          "internalType": "uint256",
          "name": "",
          "type": "uint256"
        }
      ],
      "name": "ArbitrationRequests",
      "outputs": [
        {
          "internalType": "enum RealitioArbitratorWithAppeals.Status",
          "name": "status",
          "type": "uint8"
        },
        {
          "internalType": "address",
          "name": "disputer",
          "type": "address"
        },
        {
          "internalType": "uint256",
          "name": "disputeID",
          "type": "uint256"
        },
        {
          "internalType": "uint256",
          "name": "answer",
          "type": "uint256"
        }
      ],
      "stateMutability": "view",
      "type": "function"
    },
    {
      "inputs": [],
      "name": "MULTIPLIER_DIVISOR",
      "outputs": [
        {
          "internalType": "uint256",
          "name": "",
          "type": "uint256"
        }
      ],
      "stateMutability": "view",
      "type": "function"
    },
    {
      "inputs": [],
      "name": "VERSION",
      "outputs": [
        {
          "internalType": "string",
          "name": "",
          "type": "string"
        }
      ],
      "stateMutability": "view",
      "type": "function"
    },
    {
      "inputs": [],
      "name": "arbitrator",
      "outputs": [
        {
          "internalType": "contract IArbitrator",
          "name": "",
          "type": "address"
        }
      ],
      "stateMutability": "view",
      "type": "function"
    },
    {
      "inputs": [],
      "name": "arbitratorExtraData",
      "outputs": [
        {
          "internalType": "bytes",
          "name": "",
          "type": "bytes"
        }
      ],
      "stateMutability": "view",
      "type": "function"
    },
    {
      "inputs": [
        {
          "internalType": "uint256",
          "name": "",
          "type": "uint256"
        }
      ],
      "name": "externalIDtoLocalID",
      "outputs": [
        {
          "internalType": "uint256",
          "name": "",
          "type": "uint256"
        }
      ],
      "stateMutability": "view",
      "type": "function"
    },
    {
      "inputs": [],
      "name": "governor",
      "outputs": [
        {
          "internalType": "address",
          "name": "",
          "type": "address"
        }
      ],
      "stateMutability": "view",
      "type": "function"
    },
    {
      "inputs": [],
      "name": "loserAppealPeriodMultiplier",
      "outputs": [
        {
          "internalType": "uint256",
          "name": "",
          "type": "uint256"
        }
      ],
      "stateMutability": "view",
      "type": "function"
    },
    {
      "inputs": [],
      "name": "loserStakeMultiplier",
      "outputs": [
        {
          "internalType": "uint256",
          "name": "",
          "type": "uint256"
        }
      ],
      "stateMutability": "view",
      "type": "function"
    },
    {
      "inputs": [],
      "name": "metaEvidenceUpdates",
      "outputs": [
        {
          "internalType": "uint256",
          "name": "",
          "type": "uint256"
        }
      ],
      "stateMutability": "view",
      "type": "function"
    },
    {
      "inputs": [],
      "name": "metadata",
      "outputs": [
        {
          "internalType": "string",
          "name": "",
          "type": "string"
        }
      ],
      "stateMutability": "view",
      "type": "function"
    },
    {
      "inputs": [],
      "name": "realitio",
      "outputs": [
        {
          "internalType": "contract IRealitio",
          "name": "",
          "type": "address"
        }
      ],
      "stateMutability": "view",
      "type": "function"
    },
    {
      "inputs": [],
      "name": "winnerStakeMultiplier",
      "outputs": [
        {
          "internalType": "uint256",
          "name": "",
          "type": "uint256"
        }
      ],
      "stateMutability": "view",
      "type": "function"
    },
    {
      "inputs": [
        {
          "internalType": "address",
          "name": "_governor",
          "type": "address"
        }
      ],
      "name": "changeGovernor",
      "outputs": [],
      "stateMutability": "nonpayable",
      "type": "function"
    },
    {
      "inputs": [
        {
          "internalType": "uint64",
          "name": "_winnerMultiplier",
          "type": "uint64"
        }
      ],
      "name": "changeWinnerMultiplier",
      "outputs": [],
      "stateMutability": "nonpayable",
      "type": "function"
    },
    {
      "inputs": [
        {
          "internalType": "uint64",
          "name": "_loserMultiplier",
          "type": "uint64"
        }
      ],
      "name": "changeLoserMultiplier",
      "outputs": [],
      "stateMutability": "nonpayable",
      "type": "function"
    },
    {
      "inputs": [
        {
          "internalType": "uint256",
          "name": "_loserAppealPeriodMultiplier",
          "type": "uint256"
        }
      ],
      "name": "changeLoserAppealPeriodMultiplier",
      "outputs": [],
      "stateMutability": "nonpayable",
      "type": "function"
    },
    {
      "inputs": [
        {
          "internalType": "string",
          "name": "_metaEvidence",
          "type": "string"
        }
      ],
      "name": "changeMetaEvidence",
      "outputs": [],
      "stateMutability": "nonpayable",
      "type": "function"
    },
    {
      "inputs": [
        {
          "internalType": "bytes32",
          "name": "_questionID",
          "type": "bytes32"
        }
      ],
      "name": "getDisputeFee",
      "outputs": [
        {
          "internalType": "uint256",
          "name": "fee",
          "type": "uint256"
        }
      ],
      "stateMutability": "view",
      "type": "function"
    },
    {
      "inputs": [
        {
          "internalType": "bytes32",
          "name": "_questionID",
          "type": "bytes32"
        },
        {
          "internalType": "uint256",
          "name": "_maxPrevious",
          "type": "uint256"
        }
      ],
      "name": "requestArbitration",
      "outputs": [
        {
          "internalType": "uint256",
          "name": "disputeID",
          "type": "uint256"
        }
      ],
      "stateMutability": "payable",
      "type": "function"
    },
    {
      "inputs": [
        {
          "internalType": "bytes32",
          "name": "_questionID",
          "type": "bytes32"
        },
        {
          "internalType": "bytes32",
          "name": "_lastHistoryHash",
          "type": "bytes32"
        },
        {
          "internalType": "bytes32",
          "name": "_lastAnswerOrCommitmentID",
          "type": "bytes32"
        },
        {
          "internalType": "address",
          "name": "_lastAnswerer",
          "type": "address"
        }
      ],
      "name": "reportAnswer",
      "outputs": [],
      "stateMutability": "nonpayable",
      "type": "function"
    },
    {
      "inputs": [
        {
          "internalType": "uint256",
          "name": "",
          "type": "uint256"
        }
      ],
      "name": "numberOfRulingOptions",
      "outputs": [
        {
          "internalType": "uint256",
          "name": "count",
          "type": "uint256"
        }
      ],
      "stateMutability": "pure",
      "type": "function"
    },
    {
      "inputs": [
        {
          "internalType": "uint256",
          "name": "_disputeID",
          "type": "uint256"
        },
        {
          "internalType": "uint256",
          "name": "_ruling",
          "type": "uint256"
        }
      ],
      "name": "rule",
      "outputs": [],
      "stateMutability": "nonpayable",
      "type": "function"
    },
    {
      "inputs": [
        {
          "internalType": "uint256",
          "name": "_questionID",
          "type": "uint256"
        },
        {
          "internalType": "string",
          "name": "_evidenceURI",
          "type": "string"
        }
      ],
      "name": "submitEvidence",
      "outputs": [],
      "stateMutability": "nonpayable",
      "type": "function"
    },
    {
      "inputs": [
        {
          "internalType": "uint256",
          "name": "_disputeID",
          "type": "uint256"
        },
        {
          "internalType": "uint256",
          "name": "_ruling",
          "type": "uint256"
        }
      ],
      "name": "fundAppeal",
      "outputs": [
        {
          "internalType": "bool",
          "name": "fullyFunded",
          "type": "bool"
        }
      ],
      "stateMutability": "payable",
      "type": "function"
    },
    {
      "inputs": [],
      "name": "getMultipliers",
      "outputs": [
        {
          "internalType": "uint256",
          "name": "_winnerStakeMultiplier",
          "type": "uint256"
        },
        {
          "internalType": "uint256",
          "name": "_loserStakeMultiplier",
          "type": "uint256"
        },
        {
          "internalType": "uint256",
          "name": "_loserAppealPeriodMultiplier",
          "type": "uint256"
        },
        {
          "internalType": "uint256",
          "name": "_divisor",
          "type": "uint256"
        }
      ],
      "stateMutability": "view",
      "type": "function"
    },
    {
      "inputs": [
        {
          "internalType": "uint256",
          "name": "_disputeID",
          "type": "uint256"
        },
        {
          "internalType": "address payable",
          "name": "_contributor",
          "type": "address"
        },
        {
          "internalType": "uint256",
          "name": "_roundNumber",
          "type": "uint256"
        },
        {
          "internalType": "uint256",
          "name": "_ruling",
          "type": "uint256"
        }
      ],
      "name": "withdrawFeesAndRewards",
      "outputs": [
        {
          "internalType": "uint256",
          "name": "amount",
          "type": "uint256"
        }
      ],
      "stateMutability": "nonpayable",
      "type": "function"
    },
    {
      "inputs": [
        {
          "internalType": "uint256",
          "name": "_disputeID",
          "type": "uint256"
        },
        {
          "internalType": "address payable",
          "name": "_contributor",
          "type": "address"
        },
        {
          "internalType": "uint256",
          "name": "_roundNumber",
          "type": "uint256"
        },
        {
          "internalType": "uint256[]",
          "name": "_contributedTo",
          "type": "uint256[]"
        }
      ],
      "name": "withdrawFeesAndRewardsForMultipleRulings",
      "outputs": [],
      "stateMutability": "nonpayable",
      "type": "function"
    },
    {
      "inputs": [
        {
          "internalType": "uint256",
          "name": "_disputeID",
          "type": "uint256"
        },
        {
          "internalType": "address payable",
          "name": "_contributor",
          "type": "address"
        },
        {
          "internalType": "uint256[]",
          "name": "_contributedTo",
          "type": "uint256[]"
        }
      ],
      "name": "withdrawFeesAndRewardsForAllRounds",
      "outputs": [],
      "stateMutability": "nonpayable",
      "type": "function"
    },
    {
      "inputs": [
        {
          "internalType": "uint256",
          "name": "_disputeID",
          "type": "uint256"
        },
        {
          "internalType": "address payable",
          "name": "_contributor",
          "type": "address"
        },
        {
          "internalType": "uint256[]",
          "name": "_contributedTo",
          "type": "uint256[]"
        }
      ],
      "name": "getTotalWithdrawableAmount",
      "outputs": [
        {
          "internalType": "uint256",
          "name": "sum",
          "type": "uint256"
        }
      ],
      "stateMutability": "view",
      "type": "function"
    }
  ],
  "bytecode": "0x60c060405260018054600160a060020a03191633179055610bb8600455611b586005556113886006553480156200003557600080fd5b5060405162002e7f38038062002e7f833981016040819052620000589162000200565b6c01000000000000000000000000600160a060020a03851602608052825162000089906002906020860190620000c6565b506c01000000000000000000000000600160a060020a0383160260a0528051620000bb906000906020840190620000c6565b5050505050620002d6565b828054600181600116156101000203166002900490600052602060002090601f016020900481019282620000fe576000855562000149565b82601f106200011957805160ff191683800117855562000149565b8280016001018555821562000149579182015b82811115620001495782518255916020019190600101906200012c565b50620001579291506200015b565b5090565b5b808211156200015757600081556001016200015c565b60006001604060020a03808411156200018757fe5b6040516020601f8601601f1916820181018381118382101715620001a757fe5b8060405250819350858252868686011115620001c257600080fd5b600092505b85831015620001e4578483015182840182015291820191620001c7565b85831115620001f65760008187840101525b5050509392505050565b6000806000806080858703121562000216578384fd5b84516200022381620002bd565b60208601519094506001604060020a038082111562000240578485fd5b818701915087601f83011262000254578485fd5b620002658883516020850162000172565b9450604087015191506200027982620002bd565b6060870151919350808211156200028e578283fd5b508501601f81018713620002a0578182fd5b620002b18782516020840162000172565b91505092959194509250565b600160a060020a0381168114620002d357600080fd5b50565b6080516c01000000000000000000000000900460a0516c010000000000000000000000009004612b29620003566000398061076f5280610dd152806110d652806111a152806113a152806114c952806115d3528061169852806117495280611e97528061207b5250806118b052806119545280611d2b5250612b296000f3fe6080604052600436106101ea576000357c01000000000000000000000000000000000000000000000000000000009004806385632b1211610114578063bc8802a2116100b2578063d661dd3111610081578063d661dd3114610506578063e32511da1461051b578063e4c0aaf41461053b578063ffa1ad741461055b576101ea565b8063bc8802a214610491578063c21ae061146104a6578063c25516e9146104c6578063c94828f0146104e6576101ea565b80639b0bcb3d116100ee5780639b0bcb3d1461041e578063a22352e21461043e578063a6a7f0eb1461045e578063a829c3d11461047e576101ea565b806385632b12146103be5780638d8b2d7e146103de57806390765279146103fe576101ea565b8063311a6c561161018c5780636cc6cde11161015b5780636cc6cde11461035a5780636cdc090f1461036f57806379873f8a146103845780637b943383146103a9576101ea565b8063311a6c56146102e5578063362c347914610305578063392f37e9146103255780634b2f0ea01461033a576101ea565b80630c7ac7b6116101c85780630c7ac7b61461025e5780630e274e4c14610280578063166ca0b0146102a05780631d512085146102d0576101ea565b80630402641e146101ef5780630c139eb4146102115780630c340a241461023c575b600080fd5b3480156101fb57600080fd5b5061020f61020a3660046124f4565b610570565b005b34801561021d57600080fd5b506102266105d9565b6040516102339190612651565b60405180910390f35b34801561024857600080fd5b506102516105df565b6040516102339190612625565b34801561026a57600080fd5b506102736105fb565b60405161023391906126c7565b34801561028c57600080fd5b5061020f61029b366004612393565b6106a7565b3480156102ac57600080fd5b506102c06102bb3660046122c2565b6106f3565b60405161023394939291906126ed565b3480156102dc57600080fd5b50610226610734565b3480156102f157600080fd5b5061020f61030036600461231a565b61073a565b34801561031157600080fd5b5061022661032036600461244b565b61097c565b34801561033157600080fd5b50610273610c59565b61034d61034836600461231a565b610ccf565b6040516102339190612646565b34801561036657600080fd5b5061025161119f565b34801561037b57600080fd5b506102266111c3565b34801561039057600080fd5b506103996111c9565b6040516102339493929190612aa7565b3480156103b557600080fd5b506102266111db565b3480156103ca57600080fd5b5061020f6103d93660046123ea565b6111e1565b3480156103ea57600080fd5b506102266103f93660046122c2565b61121e565b34801561040a57600080fd5b5061020f61041936600461233b565b611245565b34801561042a57600080fd5b5061020f6104393660046124f4565b6112df565b34801561044a57600080fd5b506102266104593660046122c2565b61133f565b34801561046a57600080fd5b5061020f610479366004612487565b611458565b61022661048c36600461231a565b61153d565b34801561049d57600080fd5b50610251611952565b3480156104b257600080fd5b506102266104c13660046122c2565b611976565b3480156104d257600080fd5b506102266104e1366004612393565b611988565b3480156104f257600080fd5b5061020f6105013660046122c2565b611c21565b34801561051257600080fd5b50610226611c77565b34801561052757600080fd5b5061020f6105363660046122da565b611c7d565b34801561054757600080fd5b5061020f6105563660046122a6565b611dc1565b34801561056757600080fd5b50610273611e59565b60015473ffffffffffffffffffffffffffffffffffffffff1633146105ca576040517f08c379a00000000000000000000000000000000000000000000000000000000081526004016105c1906128b3565b60405180910390fd5b67ffffffffffffffff16600555565b60065481565b60015473ffffffffffffffffffffffffffffffffffffffff1681565b6000805460408051602060026001851615610100027fffffffffffffffffffffffffffffffffffffffffffffffffffffffffffffffff0190941693909304601f8101849004840282018401909252818152929183018282801561069f5780601f106106745761010080835404028352916020019161069f565b820191906000526020600020905b81548152906001019060200180831161068257829003601f168201915b505050505081565b60008381526008602090815260408083205480845260079092528220600381015491929091905b818110156106ea576106e2878783886111e1565b6001016106ce565b50505050505050565b60076020526000908152604090208054600182015460029092015460ff82169261010090920473ffffffffffffffffffffffffffffffffffffffff16919084565b60055481565b60008281526008602090815260408083205480845260079092529091203373ffffffffffffffffffffffffffffffffffffffff7f000000000000000000000000000000000000000000000000000000000000000016146107c6576040517f08c379a00000000000000000000000000000000000000000000000000000000081526004016105c1906127d7565b7ffffffffffffffffffffffffffffffffffffffffffffffffffffffffffffffffe831115610820576040517f08c379a00000000000000000000000000000000000000000000000000000000081526004016105c190612845565b6001815460ff16600381111561083257fe5b14610869576040517f08c379a00000000000000000000000000000000000000000000000000000000081526004016105c190612a49565b600381018054600091907fffffffffffffffffffffffffffffffffffffffffffffffffffffffffffffffff810190811061089f57fe5b90600052602060002090600502019050600081600401805490506001146108c657846108e2565b816004016000815481106108d657fe5b90600052602060002001545b7fffffffffffffffffffffffffffffffffffffffffffffffffffffffffffffffff810160028581019190915584547fffffffffffffffffffffffffffffffffffffffffffffffffffffffffffffff0016178455604051909150869033907f394027a5fa6e098a1191094d1719d6929b9abc535fcc0c8f448d6a4e756222769061096c908590612651565b60405180910390a3505050505050565b60008481526008602090815260408083205480845260079092528220600381018054849190879081106109ab57fe5b6000918252602090912060059091020190506001825460ff1660038111156109cf57fe5b11610a06576040517f08c379a00000000000000000000000000000000000000000000000000000000081526004016105c190612921565b600085815260018201602052604090205460ff16610a585773ffffffffffffffffffffffffffffffffffffffff8716600090815260028201602090815260408083208884529091529020549350610b98565b8160020154600101851415610ad05760008581526020829052604090205480610a82576000610ac6565b600382015473ffffffffffffffffffffffffffffffffffffffff8916600090815260028401602090815260408083208a845290915290205482910281610ac457fe5b045b8501945050610b98565b600282015460019081016000908152908201602052604090205460ff16610b985780600001600082600401600181548110610b0757fe5b906000526020600020015481526020019081526020016000205481600001600083600401600081548110610b3757fe5b60009182526020808320909101548352828101939093526040918201812054600386015473ffffffffffffffffffffffffffffffffffffffff8d1683526002870185528383208b8452909452919020549201910281610b9257fe5b04840193505b8315801590610bd5575060405173ffffffffffffffffffffffffffffffffffffffff88169085156108fc029086906000818181858888f193505050505b15610c4e5773ffffffffffffffffffffffffffffffffffffffff871660008181526002830160209081526040808320898452909152808220919091555187908a907f54b3cab3cb5c4aca3209db1151caff092e878011202e43a36782d4ebe0b963ae90610c45908a908a90612a99565b60405180910390a45b505050949350505050565b600280546040805160206001841615610100027fffffffffffffffffffffffffffffffffffffffffffffffffffffffffffffffff01909316849004601f8101849004840282018401909252818152929183018282801561069f5780601f106106745761010080835404028352916020019161069f565b60007ffffffffffffffffffffffffffffffffffffffffffffffffffffffffffffffffe821115610d2b576040517f08c379a00000000000000000000000000000000000000000000000000000000081526004016105c1906128ea565b60008381526008602090815260408083205480845260079092529091206001815460ff166003811115610d5a57fe5b14610d91576040517f08c379a00000000000000000000000000000000000000000000000000000000081526004016105c190612958565b6040517f1c3db16d00000000000000000000000000000000000000000000000000000000815260009073ffffffffffffffffffffffffffffffffffffffff7f00000000000000000000000000000000000000000000000000000000000000001690631c3db16d90610e06908990600401612651565b60206040518083038186803b158015610e1e57600080fd5b505afa158015610e32573d6000803e3d6000fd5b505050506040513d601f19601f82011682018060405250810190610e56919061237b565b9050610e63868683611e92565b600080610e71888885612017565b6003860180549294509092507fffffffffffffffffffffffffffffffffffffffffffffffffffffffffffffffff8201916000919083908110610eaf57fe5b600091825260208083208c84526001600590930201918201905260409091205490915060ff1615610f0c576040517f08c379a00000000000000000000000000000000000000000000000000000000081526004016105c19061298f565b6000898152602082905260408120543490610f28908690612133565b11610f4c5760008a815260208390526040902054610f47908590612133565b610f4e565b345b90503373ffffffffffffffffffffffffffffffffffffffff16838c7fcae597f39a3ad75c2e10d46b031f023c5c2babcd58ca0491b122acda3968d4c08d85604051610f9a929190612a99565b60405180910390a433600090815260028301602090815260408083208d845282528083208054850190559084905290208054820190819055841161106b5760008a81526020838152604080832054600386018054909101905560048501805460018181018355918552838520018e90558d845280860190925280832080547fffffffffffffffffffffffffffffffffffffffffffffffffffffffffffffff0016909217909155518b9185918e917f39493c1b78d9a13bcc9e1d532fc7faed3889248d93affa811416ce3c6bcb1a6891a45b600482015460021415611143576003808801805460010181556000528201546110949086612133565b60038301556040517f49912f8800000000000000000000000000000000000000000000000000000000815273ffffffffffffffffffffffffffffffffffffffff7f000000000000000000000000000000000000000000000000000000000000000016906349912f88908790611110908f90600090600401612a80565b6000604051808303818588803b15801561112957600080fd5b505af115801561113d573d6000803e3d6000fd5b50505050505b336108fc6111513484612133565b6040518115909202916000818181858888f19350505050158015611179573d6000803e3d6000fd5b505060008981526001909101602052604090205460ff1696505050505050505b92915050565b7f000000000000000000000000000000000000000000000000000000000000000081565b60035481565b60045460055460065461271090919293565b60045481565b805160005b818110156112165761120d86868686858151811061120057fe5b602002602001015161097c565b506001016111e6565b505050505050565b7ffffffffffffffffffffffffffffffffffffffffffffffffffffffffffffffffe5b919050565b60015473ffffffffffffffffffffffffffffffffffffffff163314611296576040517f08c379a00000000000000000000000000000000000000000000000000000000081526004016105c1906128b3565b6003547f61606860eb6c87306811e2695215385101daab53bd6ab4e9f9049aead9363c7d83836040516112ca92919061272d565b60405180910390a25050600380546001019055565b60015473ffffffffffffffffffffffffffffffffffffffff163314611330576040517f08c379a00000000000000000000000000000000000000000000000000000000081526004016105c1906128b3565b67ffffffffffffffff16600455565b600081815260076020526040812081815460ff16600381111561135e57fe5b141561142f576040517ff7434ea900000000000000000000000000000000000000000000000000000000815273ffffffffffffffffffffffffffffffffffffffff7f0000000000000000000000000000000000000000000000000000000000000000169063f7434ea9906113d7906000906004016126da565b60206040518083038186803b1580156113ef57600080fd5b505afa158015611403573d6000803e3d6000fd5b505050506040513d601f19601f82011682018060405250810190611427919061237b565b915050611240565b7fffffffffffffffffffffffffffffffffffffffffffffffffffffffffffffffff915050611240565b60008381526007602052604090206002815460ff16600381111561147857fe5b106114af576040517f08c379a00000000000000000000000000000000000000000000000000000000081526004016105c1906129ec565b3373ffffffffffffffffffffffffffffffffffffffff16847f000000000000000000000000000000000000000000000000000000000000000073ffffffffffffffffffffffffffffffffffffffff167fdccf2f8b2cc26eafcd61905cba744cff4b81d14740725f6376390dc6298a6a3c868660405161152f92919061272d565b60405180910390a450505050565b600082815260076020526040812081815460ff16600381111561155c57fe5b14611593576040517f08c379a00000000000000000000000000000000000000000000000000000000081526004016105c19061280e565b6040517ff7434ea900000000000000000000000000000000000000000000000000000000815260009073ffffffffffffffffffffffffffffffffffffffff7f0000000000000000000000000000000000000000000000000000000000000000169063f7434ea9906116089084906004016126da565b60206040518083038186803b15801561162057600080fd5b505afa158015611634573d6000803e3d6000fd5b505050506040513d601f19601f82011682018060405250810190611658919061237b565b6040517fc13517e100000000000000000000000000000000000000000000000000000000815290915073ffffffffffffffffffffffffffffffffffffffff7f0000000000000000000000000000000000000000000000000000000000000000169063c13517e19034906116f2907ffffffffffffffffffffffffffffffffffffffffffffffffffffffffffffffffe90600090600401612a80565b6020604051808303818588803b15801561170b57600080fd5b505af115801561171f573d6000803e3d6000fd5b50505050506040513d601f19601f82011682018060405250810190611744919061237b565b9250827f000000000000000000000000000000000000000000000000000000000000000073ffffffffffffffffffffffffffffffffffffffff167f74baab670a4015ab2f1b467c5252a96141a2573f2908e58a92081e80d3cfde3d60016003540388600190046040516117b8929190612a99565b60405180910390a3827fcbb827f06aed2dd1e157f8e6b29f32604bc4e88360964014c4d4ad259f8d3fa8866040516117f09190612651565b60405180910390a2600083815260086020526040808220879055835460017fffffffffffffffffffffff0000000000000000000000000000000000000000ff909116336101008102919091177fffffffffffffffffffffffffffffffffffffffffffffffffffffffffffffff00168217865581860187905560038601805490920182559252517ff6a94ecb00000000000000000000000000000000000000000000000000000000815273ffffffffffffffffffffffffffffffffffffffff7f0000000000000000000000000000000000000000000000000000000000000000169163f6a94ecb916118e7918991899060040161265a565b600060405180830381600087803b15801561190157600080fd5b505af1158015611915573d6000803e3d6000fd5b50506040513392503484900380156108fc029250906000818181858888f19350505050158015611949573d6000803e3d6000fd5b50505092915050565b7f000000000000000000000000000000000000000000000000000000000000000081565b60086020526000908152604090205481565b600083815260086020908152604080832054808452600790925282206002815460ff1660038111156119b657fe5b10156119c757600092505050611c1a565b6003810154600282015460010160005b82811015611c145760008460030182815481106119f057fe5b9060005260206000209060050201905060005b8851811015611c0a576000898281518110611a1a57fe5b60209081029190910181015160008181526001860190925260409091205490915060ff16611a7f5773ffffffffffffffffffffffffffffffffffffffff8b16600090815260028401602090815260408083208484529091529020549890980197611c01565b84811415611b2257600081815260208490526040902054611aa1576000611b19565b8260000160008281526020019081526020016000205483600301548460020160008e73ffffffffffffffffffffffffffffffffffffffff1673ffffffffffffffffffffffffffffffffffffffff1681526020019081526020016000206000848152602001908152602001600020540281611b1757fe5b045b89019850611c01565b600085815260018401602052604090205460ff16611c015782600001600084600401600181548110611b5057fe5b906000526020600020015481526020019081526020016000205483600001600085600401600081548110611b8057fe5b90600052602060002001548152602001908152602001600020540183600301548460020160008e73ffffffffffffffffffffffffffffffffffffffff1673ffffffffffffffffffffffffffffffffffffffff1681526020019081526020016000206000848152602001908152602001600020540281611bfb57fe5b04890198505b50600101611a03565b50506001016119d7565b50505050505b9392505050565b60015473ffffffffffffffffffffffffffffffffffffffff163314611c72576040517f08c379a00000000000000000000000000000000000000000000000000000000081526004016105c1906128b3565b600655565b61271081565b60008481526007602052604090206002815460ff166003811115611c9d57fe5b14611cd4576040517f08c379a00000000000000000000000000000000000000000000000000000000081526004016105c19061287c565b80547fffffffffffffffffffffffffffffffffffffffffffffffffffffffffffffff001660031780825560028201546040517fd44e293c0000000000000000000000000000000000000000000000000000000081527f000000000000000000000000000000000000000000000000000000000000000073ffffffffffffffffffffffffffffffffffffffff9081169363d44e293c93611d88938b9391926101009004909116908a908a908a90600401612686565b600060405180830381600087803b158015611da257600080fd5b505af1158015611db6573d6000803e3d6000fd5b505050505050505050565b60015473ffffffffffffffffffffffffffffffffffffffff163314611e12576040517f08c379a00000000000000000000000000000000000000000000000000000000081526004016105c1906128b3565b600180547fffffffffffffffffffffffff00000000000000000000000000000000000000001673ffffffffffffffffffffffffffffffffffffffff92909216919091179055565b6040518060400160405280600581526020017f312e302e3000000000000000000000000000000000000000000000000000000081525081565b6000807f000000000000000000000000000000000000000000000000000000000000000073ffffffffffffffffffffffffffffffffffffffff1663afe15cfb866040518263ffffffff167c0100000000000000000000000000000000000000000000000000000000028152600401611f0a9190612651565b604080518083038186803b158015611f2157600080fd5b505afa158015611f35573d6000803e3d6000fd5b505050506040513d601f19601f82011682018060405250810190611f5991906124d1565b9150915083831480611f69575082155b15611fb857814210158015611f7d57508042105b611fb3576040517f08c379a00000000000000000000000000000000000000000000000000000000081526004016105c19061277a565b612010565b814210158015611fda57506127106006548383030281611fd457fe5b04820142105b612010576040517f08c379a00000000000000000000000000000000000000000000000000000000081526004016105c19061277a565b5050505050565b600080600083851480612028575083155b15612036575060045461203b565b506005545b6040517ff23f16e600000000000000000000000000000000000000000000000000000000815260009073ffffffffffffffffffffffffffffffffffffffff7f0000000000000000000000000000000000000000000000000000000000000000169063f23f16e6906120b2908a908590600401612a80565b60206040518083038186803b1580156120ca57600080fd5b505afa1580156120de573d6000803e3d6000fd5b505050506040513d601f19601f82011682018060405250810190612102919061237b565b905080612125612710612115838661214e565b8161211c57fe5b849190046121a0565b935093505050935093915050565b60008282111561214557506000611199565b50808203611199565b60008261215d57506000611199565b8282028284828161216a57fe5b0414612196577fffffffffffffffffffffffffffffffffffffffffffffffffffffffffffffffff612198565b805b949350505050565b600082820183811015612196577fffffffffffffffffffffffffffffffffffffffffffffffffffffffffffffffff612198565b600082601f8301126121e3578081fd5b8135602067ffffffffffffffff808311156121fa57fe5b8183026040518382820101818110848211171561221357fe5b60405284815283810192508684018288018501891015612231578687fd5b8692505b85831015612253578035845292840192600192909201918401612235565b50979650505050505050565b60008083601f840112612270578182fd5b50813567ffffffffffffffff811115612287578182fd5b60208301915083602082850101111561229f57600080fd5b9250929050565b6000602082840312156122b7578081fd5b813561219681612ace565b6000602082840312156122d3578081fd5b5035919050565b600080600080608085870312156122ef578283fd5b843593506020850135925060408501359150606085013561230f81612ace565b939692955090935050565b6000806040838503121561232c578182fd5b50508035926020909101359150565b6000806020838503121561234d578182fd5b823567ffffffffffffffff811115612363578283fd5b61236f8582860161225f565b90969095509350505050565b60006020828403121561238c578081fd5b5051919050565b6000806000606084860312156123a7578283fd5b8335925060208401356123b981612ace565b9150604084013567ffffffffffffffff8111156123d4578182fd5b6123e0868287016121d3565b9150509250925092565b600080600080608085870312156123ff578384fd5b84359350602085013561241181612ace565b925060408501359150606085013567ffffffffffffffff811115612433578182fd5b61243f878288016121d3565b91505092959194509250565b60008060008060808587031215612460578384fd5b84359350602085013561247281612ace565b93969395505050506040820135916060013590565b60008060006040848603121561249b578283fd5b83359250602084013567ffffffffffffffff8111156124b8578283fd5b6124c48682870161225f565b9497909650939450505050565b600080604083850312156124e3578081fd5b505080516020909101519092909150565b600060208284031215612505578081fd5b813567ffffffffffffffff81168114612196578182fd5b60008151808452815b8181101561254157602081850181015186830182015201612525565b818111156125525782602083870101525b50601f017fffffffffffffffffffffffffffffffffffffffffffffffffffffffffffffffe0169290920160200192915050565b600081546001808216600081146125a357600181146125df57611949565b607f600284041686527fffffffffffffffffffffffffffffffffffffffffffffffffffffffffffffff0083166020870152604086019350611949565b600283048087526125ef86612ac2565b60005b828110156126135781546020828b01015284820191506020810190506125f2565b88016020019550505050505092915050565b73ffffffffffffffffffffffffffffffffffffffff91909116815260200190565b901515815260200190565b90815260200190565b92835273ffffffffffffffffffffffffffffffffffffffff919091166020830152604082015260600190565b958652602086019490945273ffffffffffffffffffffffffffffffffffffffff9283166040860152606085019190915260808401521660a082015260c00190565b600060208252611c1a602083018461251c565b600060208252611c1a6020830184612585565b60808101600486106126fb57fe5b94815273ffffffffffffffffffffffffffffffffffffffff939093166020840152604083019190915260609091015290565b60006020825282602083015282846040840137818301604090810191909152601f9092017fffffffffffffffffffffffffffffffffffffffffffffffffffffffffffffffe0160101919050565b6020808252602e908201527f46756e64696e67206d757374206265206d6164652077697468696e207468652060408201527f61707065616c20706572696f642e000000000000000000000000000000000000606082015260800190565b60208082526017908201527f4f6e6c792061726269747261746f7220616c6c6f776564000000000000000000604082015260600190565b6020808252601d908201527f4172626974726174696f6e20616c726561647920726571756573746564000000604082015260600190565b6020808252600e908201527f496e76616c69642072756c696e67000000000000000000000000000000000000604082015260600190565b6020808252601b908201527f546865207374617475732073686f756c642062652052756c65642e0000000000604082015260600190565b6020808252601f908201527f4f6e6c7920676f7665726e6f722063616e206578656375746520746869732e00604082015260600190565b60208082526017908201527f416e73776572206973206f7574206f6620626f756e6473000000000000000000604082015260600190565b60208082526017908201527f5468657265206973206e6f2072756c696e67207965742e000000000000000000604082015260600190565b60208082526015908201527f4e6f206469737075746520746f2061707065616c2e0000000000000000000000604082015260600190565b60208082526021908201527f41707065616c206665652068617320616c7265616479206265656e207061696460408201527f2e00000000000000000000000000000000000000000000000000000000000000606082015260800190565b6020808252602d908201527f43616e6e6f74207375626d69742065766964656e636520746f2061207265736f60408201527f6c76656420646973707574652e00000000000000000000000000000000000000606082015260800190565b6020808252601a908201527f496e76616c6964206172626974726174696f6e20737461747573000000000000604082015260600190565b6000838252604060208301526121986040830184612585565b918252602082015260400190565b93845260208401929092526040830152606082015260800190565b60009081526020902090565b73ffffffffffffffffffffffffffffffffffffffff81168114612af057600080fd5b5056fea264697066735822122048842cd45a84e3c19edcf5ff4f4278c4b3d834c4c5b8fa10c9ed6a0866eb2b6864736f6c63430007060033",
  "immutableReferences": {
    "67": [
      {
        "length": 32,
        "start": 6320
      },
      {
        "length": 32,
        "start": 6484
      },
      {
        "length": 32,
        "start": 7467
      }
    ],
    "69": [
      {
        "length": 32,
        "start": 1903
      },
      {
        "length": 32,
        "start": 3537
      },
      {
        "length": 32,
        "start": 4310
      },
      {
        "length": 32,
        "start": 4513
      },
      {
        "length": 32,
        "start": 5025
      },
      {
        "length": 32,
        "start": 5321
      },
      {
        "length": 32,
        "start": 5587
      },
      {
        "length": 32,
        "start": 5784
      },
      {
        "length": 32,
        "start": 5961
      },
      {
        "length": 32,
        "start": 7831
      },
      {
        "length": 32,
        "start": 8315
      }
    ]
  },
  "source": "// SPDX-License-Identifier: MIT\n\n/**\n *  @authors: [@ferittuncer]\n *  @reviewers: []\n *  @auditors: []\n *  @bounties: []\n *  @deployments: []\n */\n\npragma solidity >=0.7;\npragma abicoder v2;\n\nimport \"./IRealitio.sol\";\nimport \"./IRealitioArbitrator.sol\";\nimport \"@kleros/arbitrable-proxy-contracts/contracts/IDisputeResolver.sol\";\nimport \"@kleros/ethereum-libraries/contracts/CappedMath.sol\";\n\n/**\n *  @title RealitioArbitratorWithAppeals\n *  @dev A proxy contract for Realitio with extra logic to form an adapter between Kleros and Realitio. It notifies Realitio contract for arbitration requests and creates corresponding dispute on Kleros. Transmits Kleros ruling to Realitio contract. Maintains crowdfunded appeals and notifies Kleros contract. Provides a function to submit evidence for Kleros dispute.\n *  Disputes happen between the last answer and the challenger's answer. But Kleros can rule for any valid answer as a response.\n *  There is a conversion between Kleros ruling and Realitio answer and there is a need for shifting by 1. For reviewers this should be a focus as it's quite easy to get confused. Any mistakes on this conversion will render this contract useless.\n *  NOTE: This contract trusts to the Kleros arbitrator and Realitio.\n */\ncontract RealitioArbitratorWithAppeals is IDisputeResolver, IRealitioArbitrator {\n    using CappedMath for uint256; // Overflows and underflows are prevented by retuning uint256 max and min values in case of overflows and underflows, respectively.\n\n    IRealitio public immutable override realitio; // Actual implementation of Realitio.\n    IArbitrator public immutable arbitrator; // The arbitrator contract. This will be Kleros arbitrator.\n    bytes public arbitratorExtraData; // Extra data to require particular dispute and appeal behaviour. First 64 characters contain subcourtID and the second 64 characters contain number of votes in the jury.\n    address public governor = msg.sender; // The address that can make governance changes.\n    string public override metadata;\n    uint256 public metaEvidenceUpdates; // The number of times the meta evidence has been updated. Used to track the latest meta evidence ID.\n\n    // The required fee stake that a party must pay depends on who won the previous round and is proportional to the arbitration cost such that the fee stake for a round is stake multiplier * arbitration cost for that round.\n    uint256 public winnerStakeMultiplier = 3000; // Multiplier of the arbitration cost that the winner has to pay as fee stake for a round in basis points. Default is 1x of appeal fee.\n    uint256 public loserStakeMultiplier = 7000; // Multiplier of the arbitration cost that the loser has to pay as fee stake for a round in basis points. Default is 2x of appeal fee.\n    uint256 public loserAppealPeriodMultiplier = 5000; // Multiplier of the appeal period for losers (any other ruling options) in basis points. Default is 1/2 of original appeal period.\n    uint256 public constant MULTIPLIER_DIVISOR = 10000; // Divisor parameter for multipliers.\n    uint256 private constant NO_OF_RULING_OPTIONS = type(uint256).max - 1; // The amount of non 0 choices the arbitrator can give. The uint256(-1) number of choices can not be used in the current Kleros Court implementation.\n\n    enum Status {\n        None, // The question hasn't been requested arbitration yet.\n        Disputed, // The question has been requested arbitration.\n        Ruled, // The question has been ruled by arbitrator.\n        Reported // The answer of the question has been reported to Realitio.\n    }\n\n    // To track internal dispute state in this contract.\n    struct ArbitrationRequest {\n        Status status; // The current status of the question.\n        address disputer; // The address that requested the arbitration.\n        uint256 disputeID; // The ID of the dispute raised in the arbitrator contract.\n        uint256 answer; // The answer given by the arbitrator shifted by -1 to match Realitio format.\n        Round[] rounds; // Tracks each appeal round of a dispute.\n    }\n\n    // For appeal logic.\n    struct Round {\n        mapping(uint256 => uint256) paidFees; // Tracks the fees paid in this round in the form paidFees[answer].\n        mapping(uint256 => bool) hasPaid; // True if the fees for this particular answer has been fully paid in the form hasPaid[answer].\n        mapping(address => mapping(uint256 => uint256)) contributions; // Maps contributors to their contributions for each answer in the form contributions[address][answer].\n        uint256 feeRewards; // Sum of reimbursable appeal fees available to the parties that made contributions to the answer that ultimately wins a dispute.\n        uint256[] fundedRulings; // Stores the answer choices that are fully funded.\n    }\n\n    mapping(uint256 => ArbitrationRequest) public ArbitrationRequests; // Maps a question ID to its data.\n    mapping(uint256 => uint256) public override externalIDtoLocalID; // Arbitrator dispute ids to local identifiers. We use questions id casted to int as local identifier.\n\n    /** @dev Emitted when arbitration is requested, to link dispute ID to question ID for dynamic script. Used in dynamic script in metaevidence.\n     *  @param _disputeID The ID of the dispute in the ERC792 arbitrator.\n     *  @param _questionID The ID of the question.\n     */\n    event DisputeIDToQuestionID(uint256 indexed _disputeID, bytes32 _questionID);\n\n    modifier onlyGovernor() {\n        require(msg.sender == governor, \"Only governor can execute this.\");\n        _;\n    }\n\n    /** @dev Constructor.\n     *  @param _realitio The address of the Realitio contract.\n     *  @param _metadata The metadata required for RealitioArbitrator.\n     *  @param _arbitrator The address of the ERC792 arbitrator.\n     *  @param _arbitratorExtraData The extra data used to raise a dispute in the ERC792 arbitrator.\n     */\n    constructor(\n        IRealitio _realitio,\n        string memory _metadata,\n        IArbitrator _arbitrator,\n        bytes memory _arbitratorExtraData\n    ) {\n        realitio = _realitio;\n        metadata = _metadata;\n        arbitrator = _arbitrator;\n        arbitratorExtraData = _arbitratorExtraData;\n    }\n\n    /* External and public */\n\n    /**\n     * @notice Changes the address of the governor.\n     * @param _governor The address of the new governor.\n     */\n    function changeGovernor(address _governor) external onlyGovernor {\n        governor = _governor;\n    }\n\n    /**\n     * @notice Changes the proportion of appeal fees that must be added to appeal cost for the winning party.\n     * @param _winnerMultiplier The new winner multiplier value in basis points.\n     */\n    function changeWinnerMultiplier(uint64 _winnerMultiplier) external onlyGovernor {\n        winnerStakeMultiplier = _winnerMultiplier;\n    }\n\n    /**\n     * @notice Changes the proportion of appeal fees that must be added to appeal cost for the losing party.\n     * @param _loserMultiplier The new loser multiplier value in basis points.\n     */\n    function changeLoserMultiplier(uint64 _loserMultiplier) external onlyGovernor {\n        loserStakeMultiplier = _loserMultiplier;\n    }\n\n    /** @dev Changes the multiplier for calculating the duration of the appeal period for loser.\n     *  @param _loserAppealPeriodMultiplier The new loser multiplier for the appeal period, in basis points.\n     */\n    function changeLoserAppealPeriodMultiplier(uint256 _loserAppealPeriodMultiplier) external onlyGovernor {\n        loserAppealPeriodMultiplier = _loserAppealPeriodMultiplier;\n    }\n\n    /** @dev Updates the meta evidence used for disputes.\n     *  @param _metaEvidence URI to the new meta evidence file.\n     */\n    function changeMetaEvidence(string calldata _metaEvidence) external onlyGovernor() {\n        emit MetaEvidence(metaEvidenceUpdates, _metaEvidence);\n        metaEvidenceUpdates++;\n    }\n\n    /** @dev Returns arbitration fee by asking to arbitrator.\n     *  @param _questionID The question id as in Realitio side.\n     */\n    function getDisputeFee(bytes32 _questionID) external view override returns (uint256 fee) {\n        ArbitrationRequest storage question = ArbitrationRequests[uint256(_questionID)];\n        if (question.status == Status.None) return arbitrator.arbitrationCost(arbitratorExtraData);\n        else return type(uint256).max;\n    }\n\n    /** @dev Sets the meta evidence. Can only be called once.\n     *  @param _questionID The question id as in Realitio side.\n     *  @param _maxPrevious If specified, reverts if a bond higher than this was submitted after you sent your transaction.\n     */\n    function requestArbitration(bytes32 _questionID, uint256 _maxPrevious) external payable returns (uint256 disputeID) {\n        ArbitrationRequest storage question = ArbitrationRequests[uint256(_questionID)];\n        require(question.status == Status.None, \"Arbitration already requested\");\n\n        // Notify Kleros\n        uint256 arbitrationCost = arbitrator.arbitrationCost(arbitratorExtraData);\n        disputeID = arbitrator.createDispute{value: msg.value}(NO_OF_RULING_OPTIONS, arbitratorExtraData);\n        emit Dispute(arbitrator, disputeID, metaEvidenceUpdates - 1, uint256(_questionID));\n        emit DisputeIDToQuestionID(disputeID, _questionID); // For the dynamic script https://github.com/kleros/realitio-script/blob/master/src/index.js\n        externalIDtoLocalID[disputeID] = uint256(_questionID);\n\n        // Update internal state\n        question.disputer = msg.sender;\n        question.status = Status.Disputed;\n        question.disputeID = disputeID;\n        question.rounds.push();\n\n        // Notify Realitio\n        realitio.notifyOfArbitrationRequest(_questionID, msg.sender, _maxPrevious);\n\n        msg.sender.transfer(msg.value - arbitrationCost);\n    }\n\n    /** @dev Reports the answer to a specified question from the Kleros arbitrator to the Realitio contract.\n     *  @param _questionID The ID of the question.\n     *  @param _lastHistoryHash The history hash given with the last answer to the question in the Realitio contract.\n     *  @param _lastAnswerOrCommitmentID The last answer given, or its commitment ID if it was a commitment, to the question in the Realitio contract, in bytes32.\n     *  @param _lastAnswerer The last answerer to the question in the Realitio contract.\n     */\n    function reportAnswer(\n        bytes32 _questionID,\n        bytes32 _lastHistoryHash,\n        bytes32 _lastAnswerOrCommitmentID,\n        address _lastAnswerer\n    ) external {\n        ArbitrationRequest storage arbitrationRequest = ArbitrationRequests[uint256(_questionID)];\n        require(arbitrationRequest.status == Status.Ruled, \"The status should be Ruled.\");\n\n        arbitrationRequest.status = Status.Reported;\n\n        realitio.assignWinnerAndSubmitAnswerByArbitrator(_questionID, bytes32(arbitrationRequest.answer), arbitrationRequest.disputer, _lastHistoryHash, _lastAnswerOrCommitmentID, _lastAnswerer);\n    }\n\n    /* Following section contains implementation of IDisputeResolver */\n\n    /** @dev Returns number of possible ruling options. Valid rulings are [0, return value].\n     *  @return count The number of ruling options.\n     */\n    function numberOfRulingOptions(uint256) external pure override returns (uint256 count) {\n        return NO_OF_RULING_OPTIONS;\n    }\n\n    /** @dev Receives ruling from Kleros and executes consequences.\n     *  @param _disputeID ID of Kleros dispute.\n     *  @param _ruling Ruling that is given by Kleros. This needs to be converted to Realitio answer by shifting by 1.\n     */\n    function rule(uint256 _disputeID, uint256 _ruling) public override {\n        uint256 questionID = externalIDtoLocalID[_disputeID];\n        ArbitrationRequest storage arbitrationRequest = ArbitrationRequests[questionID];\n\n        require(IArbitrator(msg.sender) == arbitrator, \"Only arbitrator allowed\");\n        require(_ruling <= NO_OF_RULING_OPTIONS, \"Invalid ruling\");\n        require(arbitrationRequest.status == Status.Disputed, \"Invalid arbitration status\");\n\n        Round storage round = arbitrationRequest.rounds[arbitrationRequest.rounds.length - 1];\n        uint256 finalRuling = (round.fundedRulings.length == 1) ? round.fundedRulings[0] : _ruling;\n\n        arbitrationRequest.answer = finalRuling - 1; // Shift Kleros ruling by -1 to match Realitio layout\n        arbitrationRequest.status = Status.Ruled;\n\n        // Notify Kleros\n        emit Ruling(IArbitrator(msg.sender), _disputeID, finalRuling);\n    }\n\n    /** @dev Allows to submit evidence for a given dispute.\n     *  @param _questionID Realitio question identifier.\n     *  @param  _evidenceURI Link to evidence.\n     */\n    function submitEvidence(uint256 _questionID, string calldata _evidenceURI) external override {\n        ArbitrationRequest storage arbitrationRequest = ArbitrationRequests[_questionID];\n        require(arbitrationRequest.status < Status.Ruled, \"Cannot submit evidence to a resolved dispute.\");\n        emit Evidence(arbitrator, _questionID, msg.sender, _evidenceURI);\n    }\n\n    /** @dev Retrieves appeal cost for each ruling. It extends the function with the same name on the arbitrator side by adding\n     *  _ruling parameter because total to be raised depends on multipliers.\n     *  @param _disputeID The dispute this function returns its appeal costs.\n     *  @param _ruling The ruling option which the caller wants to learn about its appeal cost.\n     *  @param _currentRuling The ruling option which the caller wants to learn about its appeal cost.\n     */\n    function appealCost(\n        uint256 _disputeID,\n        uint256 _ruling,\n        uint256 _currentRuling\n    ) internal view returns (uint256 originalCost, uint256 specificCost) {\n        uint256 multiplier;\n        if (_ruling == _currentRuling || _currentRuling == 0) multiplier = winnerStakeMultiplier;\n        else multiplier = loserStakeMultiplier;\n\n        uint256 appealFee = arbitrator.appealCost(_disputeID, arbitratorExtraData);\n        return (appealFee, appealFee.addCap(appealFee.mulCap(multiplier) / MULTIPLIER_DIVISOR));\n    }\n\n    /** @dev Reverts if appeal period has expired for given ruling option. It gives less time for funding appeal for losing ruling option (in the last round).\n     *  @param _disputeID Dispute ID of Kleros dispute.\n     *  @param _ruling The ruling option to query for.\n     *  @param _currentRuling The latest ruling given by Kleros. Note that this ruling is not final at this point, can be appealed.\n     */\n    function checkAppealPeriod(\n        uint256 _disputeID,\n        uint256 _ruling,\n        uint256 _currentRuling\n    ) internal view {\n        (uint256 originalStart, uint256 originalEnd) = arbitrator.appealPeriod(_disputeID);\n\n        if (_currentRuling == _ruling || _currentRuling == 0) require(block.timestamp >= originalStart && block.timestamp < originalEnd, \"Funding must be made within the appeal period.\");\n        else {\n            require(block.timestamp >= originalStart && block.timestamp < (originalStart + ((originalEnd - originalStart) * loserAppealPeriodMultiplier) / MULTIPLIER_DIVISOR), \"Funding must be made within the appeal period.\");\n        }\n    }\n\n    /** @dev TRUSTED. Manages contributions and calls appeal function of the specified arbitrator to appeal a dispute. This function lets appeals be crowdfunded.\n        Note that we dont need to check that msg.value is enough to pay arbitration fees as its the responsibility of the arbitrator contract.\n     *  @param _disputeID Dispute ID of Kleros dispute.\n     *  @param _ruling The ruling option to which the caller wants to contribute to.\n     *  @return fullyFunded True if the ruling option got fully funded as a result of this contribution.\n     */\n    function fundAppeal(uint256 _disputeID, uint256 _ruling) external payable override returns (bool fullyFunded) {\n        require(_ruling <= NO_OF_RULING_OPTIONS, \"Answer is out of bounds\");\n        uint256 questionID = externalIDtoLocalID[_disputeID];\n        ArbitrationRequest storage arbitrationRequest = ArbitrationRequests[uint256(questionID)];\n        require(arbitrationRequest.status == Status.Disputed, \"No dispute to appeal.\");\n\n        uint256 currentRuling = arbitrator.currentRuling(_disputeID);\n\n        checkAppealPeriod(_disputeID, _ruling, currentRuling);\n        (uint256 originalCost, uint256 totalCost) = appealCost(_disputeID, _ruling, currentRuling);\n\n        uint256 lastRoundIndex = arbitrationRequest.rounds.length - 1;\n        Round storage lastRound = arbitrationRequest.rounds[lastRoundIndex];\n        require(!lastRound.hasPaid[_ruling], \"Appeal fee has already been paid.\");\n\n        uint256 contribution = totalCost.subCap(lastRound.paidFees[_ruling]) > msg.value ? msg.value : totalCost.subCap(lastRound.paidFees[_ruling]);\n        emit Contribution(_disputeID, lastRoundIndex, _ruling, msg.sender, contribution);\n\n        lastRound.contributions[msg.sender][_ruling] += contribution;\n        lastRound.paidFees[_ruling] += contribution;\n\n        if (lastRound.paidFees[_ruling] >= totalCost) {\n            lastRound.feeRewards += lastRound.paidFees[_ruling];\n            lastRound.fundedRulings.push(_ruling);\n            lastRound.hasPaid[_ruling] = true;\n            emit RulingFunded(_disputeID, lastRoundIndex, _ruling);\n        }\n\n        if (lastRound.fundedRulings.length == 2) {\n            // At least two ruling options are fully funded.\n            arbitrationRequest.rounds.push();\n\n            lastRound.feeRewards = lastRound.feeRewards.subCap(originalCost);\n            arbitrator.appeal{value: originalCost}(_disputeID, arbitratorExtraData);\n        }\n\n        msg.sender.transfer(msg.value.subCap(contribution)); // Sending extra value back to contributor.\n\n        return lastRound.hasPaid[_ruling];\n    }\n\n    /** @dev Returns stake multipliers.\n     *  @return _winnerStakeMultiplier Winners stake multiplier.\n     *  @return _loserStakeMultiplier Losers stake multiplier.\n     *  @return _loserAppealPeriodMultiplier Losers appeal period multiplier. The loser is given less time to fund its appeal to defend against last minute appeal funding attacks.\n     *  @return _divisor Multiplier divisor in basis points.\n     */\n    function getMultipliers()\n        external\n        view\n        override\n        returns (\n            uint256 _winnerStakeMultiplier,\n            uint256 _loserStakeMultiplier,\n            uint256 _loserAppealPeriodMultiplier,\n            uint256 _divisor\n        )\n    {\n        return (winnerStakeMultiplier, loserStakeMultiplier, loserAppealPeriodMultiplier, MULTIPLIER_DIVISOR);\n    }\n\n    /** @dev Allows to withdraw any reimbursable fees or rewards after the dispute gets solved.\n     *  @param _disputeID Dispute ID of Kleros dispute.\n     *  @param _contributor The address to withdraw its rewards.\n     *  @param _roundNumber The number of the round caller wants to withdraw from.\n     *  @param _ruling A ruling option that the caller wants to withdraw fees and rewards related to it.\n     */\n    function withdrawFeesAndRewards(\n        uint256 _disputeID,\n        address payable _contributor,\n        uint256 _roundNumber,\n        uint256 _ruling\n    ) public override returns (uint256 amount) {\n        uint256 questionID = externalIDtoLocalID[_disputeID];\n        ArbitrationRequest storage arbitrationRequest = ArbitrationRequests[uint256(questionID)];\n\n        Round storage round = arbitrationRequest.rounds[_roundNumber];\n\n        require(arbitrationRequest.status > Status.Disputed, \"There is no ruling yet.\");\n\n        if (!round.hasPaid[_ruling]) {\n            // Allow to reimburse if funding was unsuccessful for this ruling option.\n            amount = round.contributions[_contributor][_ruling];\n        } else {\n            // Funding was successful for this ruling option.\n            if (_ruling == (uint256(arbitrationRequest.answer) + 1)) {\n                // This ruling option is the ultimate winner.\n                uint256 paidFees = round.paidFees[_ruling];\n                amount += paidFees > 0 ? (round.contributions[_contributor][_ruling] * round.feeRewards) / paidFees : 0;\n            } else if (!round.hasPaid[uint256(arbitrationRequest.answer) + 1]) {\n                // This ruling option was not the ultimate winner, but the ultimate winner was not funded in this round. In this case funded ruling option(s) wins by default. Prize is distributed among contributors of funded ruling option(s).\n                amount += (round.contributions[_contributor][_ruling] * round.feeRewards) / (round.paidFees[round.fundedRulings[0]] + round.paidFees[round.fundedRulings[1]]);\n            }\n        }\n\n        if (amount != 0 && _contributor.send(amount)) {\n            round.contributions[_contributor][_ruling] = 0;\n            emit Withdrawal(_disputeID, _roundNumber, _ruling, _contributor, amount);\n        }\n    }\n\n    /** @dev Allows to withdraw any reimbursable fees or rewards after the dispute gets solved. For multiple ruling options at once.\n     *  @param _disputeID Dispute ID of Kleros dispute.\n     *  @param _contributor The address to withdraw its rewards.\n     *  @param _roundNumber The number of the round caller wants to withdraw from.\n     *  @param _contributedTo Rulings that received contributions from contributor.\n     */\n    function withdrawFeesAndRewardsForMultipleRulings(\n        uint256 _disputeID,\n        address payable _contributor,\n        uint256 _roundNumber,\n        uint256[] memory _contributedTo\n    ) public override {\n        uint256 contributionArrayLength = _contributedTo.length;\n        for (uint256 contributionNumber = 0; contributionNumber < contributionArrayLength; contributionNumber++) {\n            withdrawFeesAndRewards(_disputeID, _contributor, _roundNumber, _contributedTo[contributionNumber]);\n        }\n    }\n\n    /** @dev Allows to withdraw any rewards or reimbursable fees after the dispute gets resolved. For multiple rulings options and for all rounds at once.\n     *  @param _disputeID Dispute ID of Kleros dispute.\n     *  @param _contributor The address to withdraw its rewards.\n     *  @param _contributedTo Rulings that received contributions from contributor.\n     */\n    function withdrawFeesAndRewardsForAllRounds(\n        uint256 _disputeID,\n        address payable _contributor,\n        uint256[] memory _contributedTo\n    ) external override {\n        uint256 questionID = externalIDtoLocalID[_disputeID];\n        ArbitrationRequest storage arbitrationRequest = ArbitrationRequests[uint256(questionID)];\n        uint256 noOfRounds = arbitrationRequest.rounds.length;\n\n        for (uint256 roundNumber = 0; roundNumber < noOfRounds; roundNumber++) {\n            withdrawFeesAndRewardsForMultipleRulings(_disputeID, _contributor, roundNumber, _contributedTo);\n        }\n    }\n\n    /** @dev Returns the sum of withdrawable amount.\n     *  @param _disputeID Dispute ID of Kleros dispute.\n     *  @param _contributor The contributor for which to query.\n     *  @param _contributedTo Ruling options to look for potential withdrawals.\n     *  @return sum The total amount available to withdraw.\n     */\n    function getTotalWithdrawableAmount(\n        uint256 _disputeID,\n        address payable _contributor,\n        uint256[] memory _contributedTo\n    ) public view override returns (uint256 sum) {\n        uint256 questionID = externalIDtoLocalID[_disputeID];\n        ArbitrationRequest storage arbitrationRequest = ArbitrationRequests[uint256(questionID)];\n        if (arbitrationRequest.status < Status.Ruled) return 0;\n        uint256 noOfRounds = arbitrationRequest.rounds.length;\n        uint256 finalRuling = uint256(arbitrationRequest.answer) + 1;\n\n        for (uint256 roundNumber = 0; roundNumber < noOfRounds; roundNumber++) {\n            Round storage round = arbitrationRequest.rounds[roundNumber];\n            for (uint256 contributionNumber = 0; contributionNumber < _contributedTo.length; contributionNumber++) {\n                uint256 ruling = _contributedTo[contributionNumber];\n\n                if (!round.hasPaid[ruling]) {\n                    // Allow to reimburse if funding was unsuccessful for this ruling option.\n                    sum += round.contributions[_contributor][ruling];\n                } else {\n                    //Funding was successful for this ruling option.\n                    if (ruling == finalRuling) {\n                        // This ruling option is the ultimate winner.\n                        sum += round.paidFees[ruling] > 0 ? (round.contributions[_contributor][ruling] * round.feeRewards) / round.paidFees[ruling] : 0;\n                    } else if (!round.hasPaid[finalRuling]) {\n                        // This ruling option was not the ultimate winner, but the ultimate winner was not funded in this round. In this case funded ruling option(s) wins by default. Prize is distributed among contributors of funded ruling option(s).\n                        sum += (round.contributions[_contributor][ruling] * round.feeRewards) / (round.paidFees[round.fundedRulings[0]] + round.paidFees[round.fundedRulings[1]]);\n                    }\n                }\n            }\n        }\n    }\n}\n",
  "sourcePath": "/home/f/repos/realitio-arbitrator-with-appeals/contracts/Realitio/RealitioArbitratorWithAppeals.sol",
  "compiler": {
    "name": "solc",
    "version": "0.7.6+commit.7338295f.Emscripten.clang"
  },
  "schemaVersion": "3.4.0",
  "updatedAt": "2021-05-01T18:08:36.613Z",
  "devdoc": {
    "details": "A proxy contract for Realitio with extra logic to form an adapter between Kleros and Realitio. It notifies Realitio contract for arbitration requests and creates corresponding dispute on Kleros. Transmits Kleros ruling to Realitio contract. Maintains crowdfunded appeals and notifies Kleros contract. Provides a function to submit evidence for Kleros dispute.  Disputes happen between the last answer and the challenger's answer. But Kleros can rule for any valid answer as a response.  There is a conversion between Kleros ruling and Realitio answer and there is a need for shifting by 1. For reviewers this should be a focus as it's quite easy to get confused. Any mistakes on this conversion will render this contract useless.  NOTE: This contract trusts to the Kleros arbitrator and Realitio.",
    "events": {
      "DisputeIDToQuestionID(uint256,bytes32)": {
        "details": "Emitted when arbitration is requested, to link dispute ID to question ID for dynamic script. Used in dynamic script in metaevidence.",
        "params": {
          "_disputeID": "The ID of the dispute in the ERC792 arbitrator.",
          "_questionID": "The ID of the question."
        }
      }
    },
    "kind": "dev",
    "methods": {
      "changeGovernor(address)": {
        "params": {
          "_governor": "The address of the new governor."
        }
      },
      "changeLoserAppealPeriodMultiplier(uint256)": {
        "details": "Changes the multiplier for calculating the duration of the appeal period for loser.",
        "params": {
          "_loserAppealPeriodMultiplier": "The new loser multiplier for the appeal period, in basis points."
        }
      },
      "changeLoserMultiplier(uint64)": {
        "params": {
          "_loserMultiplier": "The new loser multiplier value in basis points."
        }
      },
      "changeMetaEvidence(string)": {
        "details": "Updates the meta evidence used for disputes.",
        "params": {
          "_metaEvidence": "URI to the new meta evidence file."
        }
      },
      "changeWinnerMultiplier(uint64)": {
        "params": {
          "_winnerMultiplier": "The new winner multiplier value in basis points."
        }
      },
      "constructor": {
        "details": "Constructor.",
        "params": {
          "_arbitrator": "The address of the ERC792 arbitrator.",
          "_arbitratorExtraData": "The extra data used to raise a dispute in the ERC792 arbitrator.",
          "_metadata": "The metadata required for RealitioArbitrator.",
          "_realitio": "The address of the Realitio contract."
        }
      },
      "fundAppeal(uint256,uint256)": {
        "details": "TRUSTED. Manages contributions and calls appeal function of the specified arbitrator to appeal a dispute. This function lets appeals be crowdfunded. Note that we dont need to check that msg.value is enough to pay arbitration fees as its the responsibility of the arbitrator contract.",
        "params": {
          "_disputeID": "Dispute ID of Kleros dispute.",
          "_ruling": "The ruling option to which the caller wants to contribute to."
        },
        "returns": {
          "fullyFunded": "True if the ruling option got fully funded as a result of this contribution."
        }
      },
      "getDisputeFee(bytes32)": {
        "details": "Returns arbitration fee by asking to arbitrator.",
        "params": {
          "_questionID": "The question id as in Realitio side."
        }
      },
      "getMultipliers()": {
        "details": "Returns stake multipliers.",
        "returns": {
          "_divisor": "Multiplier divisor in basis points.",
          "_loserAppealPeriodMultiplier": "Losers appeal period multiplier. The loser is given less time to fund its appeal to defend against last minute appeal funding attacks.",
          "_loserStakeMultiplier": "Losers stake multiplier.",
          "_winnerStakeMultiplier": "Winners stake multiplier."
        }
      },
      "getTotalWithdrawableAmount(uint256,address,uint256[])": {
        "details": "Returns the sum of withdrawable amount.",
        "params": {
          "_contributedTo": "Ruling options to look for potential withdrawals.",
          "_contributor": "The contributor for which to query.",
          "_disputeID": "Dispute ID of Kleros dispute."
        },
        "returns": {
          "sum": "The total amount available to withdraw."
        }
      },
      "numberOfRulingOptions(uint256)": {
        "details": "Returns number of possible ruling options. Valid rulings are [0, return value].",
        "returns": {
          "count": "The number of ruling options."
        }
      },
      "reportAnswer(bytes32,bytes32,bytes32,address)": {
        "details": "Reports the answer to a specified question from the Kleros arbitrator to the Realitio contract.",
        "params": {
          "_lastAnswerOrCommitmentID": "The last answer given, or its commitment ID if it was a commitment, to the question in the Realitio contract, in bytes32.",
          "_lastAnswerer": "The last answerer to the question in the Realitio contract.",
          "_lastHistoryHash": "The history hash given with the last answer to the question in the Realitio contract.",
          "_questionID": "The ID of the question."
        }
      },
      "requestArbitration(bytes32,uint256)": {
        "details": "Sets the meta evidence. Can only be called once.",
        "params": {
          "_maxPrevious": "If specified, reverts if a bond higher than this was submitted after you sent your transaction.",
          "_questionID": "The question id as in Realitio side."
        }
      },
      "rule(uint256,uint256)": {
        "details": "Receives ruling from Kleros and executes consequences.",
        "params": {
          "_disputeID": "ID of Kleros dispute.",
          "_ruling": "Ruling that is given by Kleros. This needs to be converted to Realitio answer by shifting by 1."
        }
      },
      "submitEvidence(uint256,string)": {
        "details": "Allows to submit evidence for a given dispute.",
        "params": {
          "_evidenceURI": "Link to evidence.",
          "_questionID": "Realitio question identifier."
        }
      },
      "withdrawFeesAndRewards(uint256,address,uint256,uint256)": {
        "details": "Allows to withdraw any reimbursable fees or rewards after the dispute gets solved.",
        "params": {
          "_contributor": "The address to withdraw its rewards.",
          "_disputeID": "Dispute ID of Kleros dispute.",
          "_roundNumber": "The number of the round caller wants to withdraw from.",
          "_ruling": "A ruling option that the caller wants to withdraw fees and rewards related to it."
        }
      },
      "withdrawFeesAndRewardsForAllRounds(uint256,address,uint256[])": {
        "details": "Allows to withdraw any rewards or reimbursable fees after the dispute gets resolved. For multiple rulings options and for all rounds at once.",
        "params": {
          "_contributedTo": "Rulings that received contributions from contributor.",
          "_contributor": "The address to withdraw its rewards.",
          "_disputeID": "Dispute ID of Kleros dispute."
        }
      },
      "withdrawFeesAndRewardsForMultipleRulings(uint256,address,uint256,uint256[])": {
        "details": "Allows to withdraw any reimbursable fees or rewards after the dispute gets solved. For multiple ruling options at once.",
        "params": {
          "_contributedTo": "Rulings that received contributions from contributor.",
          "_contributor": "The address to withdraw its rewards.",
          "_disputeID": "Dispute ID of Kleros dispute.",
          "_roundNumber": "The number of the round caller wants to withdraw from."
        }
      }
    },
    "stateVariables": {
      "externalIDtoLocalID": {
        "details": "Maps external (arbitrator side) dispute id to local (arbitrable) dispute id. This is necessary to obtain local dispute data by arbitrators id.",
        "params": {
          "_externalDisputeID": "Dispute id as in arbitrator side."
        },
        "return": "localDisputeID Dispute id as in arbitrable contract."
      }
    },
    "title": "RealitioArbitratorWithAppeals",
    "version": 1
  },
  "userdoc": {
    "kind": "user",
    "methods": {
      "changeGovernor(address)": {
        "notice": "Changes the address of the governor."
      },
      "changeLoserMultiplier(uint64)": {
        "notice": "Changes the proportion of appeal fees that must be added to appeal cost for the losing party."
      },
      "changeWinnerMultiplier(uint64)": {
        "notice": "Changes the proportion of appeal fees that must be added to appeal cost for the winning party."
      }
    },
    "version": 1
  }
}