{
  "contractName": "RealitioProxyWithAppeals",
  "abi": [
    {
      "inputs": [
        {
          "internalType": "contract IRealitio",
          "name": "_realitio",
          "type": "address"
        },
        {
          "internalType": "string",
          "name": "_metadata",
          "type": "string"
        },
        {
          "internalType": "contract IArbitrator",
          "name": "_arbitrator",
          "type": "address"
        },
        {
          "internalType": "bytes",
          "name": "_arbitratorExtraData",
          "type": "bytes"
        }
      ],
      "stateMutability": "nonpayable",
      "type": "constructor"
    },
    {
      "anonymous": false,
      "inputs": [
        {
          "indexed": true,
          "internalType": "uint256",
          "name": "localDisputeID",
          "type": "uint256"
        },
        {
          "indexed": true,
          "internalType": "uint256",
          "name": "round",
          "type": "uint256"
        },
        {
          "indexed": false,
          "internalType": "uint256",
          "name": "ruling",
          "type": "uint256"
        },
        {
          "indexed": true,
          "internalType": "address",
          "name": "contributor",
          "type": "address"
        },
        {
          "indexed": false,
          "internalType": "uint256",
          "name": "amount",
          "type": "uint256"
        }
      ],
      "name": "Contribution",
      "type": "event"
    },
    {
      "anonymous": false,
      "inputs": [
        {
          "indexed": true,
          "internalType": "contract IArbitrator",
          "name": "_arbitrator",
          "type": "address"
        },
        {
          "indexed": true,
          "internalType": "uint256",
          "name": "_disputeID",
          "type": "uint256"
        },
        {
          "indexed": false,
          "internalType": "uint256",
          "name": "_metaEvidenceID",
          "type": "uint256"
        },
        {
          "indexed": false,
          "internalType": "uint256",
          "name": "_evidenceGroupID",
          "type": "uint256"
        }
      ],
      "name": "Dispute",
      "type": "event"
    },
    {
      "anonymous": false,
      "inputs": [
        {
          "indexed": true,
          "internalType": "uint256",
          "name": "_disputeID",
          "type": "uint256"
        },
        {
          "indexed": false,
          "internalType": "bytes32",
          "name": "_questionID",
          "type": "bytes32"
        }
      ],
      "name": "DisputeIDToQuestionID",
      "type": "event"
    },
    {
      "anonymous": false,
      "inputs": [
        {
          "indexed": true,
          "internalType": "contract IArbitrator",
          "name": "_arbitrator",
          "type": "address"
        },
        {
          "indexed": true,
          "internalType": "uint256",
          "name": "_evidenceGroupID",
          "type": "uint256"
        },
        {
          "indexed": true,
          "internalType": "address",
          "name": "_party",
          "type": "address"
        },
        {
          "indexed": false,
          "internalType": "string",
          "name": "_evidence",
          "type": "string"
        }
      ],
      "name": "Evidence",
      "type": "event"
    },
    {
      "anonymous": false,
      "inputs": [
        {
          "indexed": true,
          "internalType": "uint256",
          "name": "_metaEvidenceID",
          "type": "uint256"
        },
        {
          "indexed": false,
          "internalType": "string",
          "name": "_evidence",
          "type": "string"
        }
      ],
      "name": "MetaEvidence",
      "type": "event"
    },
    {
      "anonymous": false,
      "inputs": [
        {
          "indexed": true,
          "internalType": "contract IArbitrator",
          "name": "_arbitrator",
          "type": "address"
        },
        {
          "indexed": true,
          "internalType": "uint256",
          "name": "_disputeID",
          "type": "uint256"
        },
        {
          "indexed": false,
          "internalType": "uint256",
          "name": "_ruling",
          "type": "uint256"
        }
      ],
      "name": "Ruling",
      "type": "event"
    },
    {
      "anonymous": false,
      "inputs": [
        {
          "indexed": true,
          "internalType": "uint256",
          "name": "localDisputeID",
          "type": "uint256"
        },
        {
          "indexed": true,
          "internalType": "uint256",
          "name": "round",
          "type": "uint256"
        },
        {
          "indexed": true,
          "internalType": "uint256",
          "name": "ruling",
          "type": "uint256"
        }
      ],
      "name": "RulingFunded",
      "type": "event"
    },
    {
      "anonymous": false,
      "inputs": [
        {
          "indexed": true,
          "internalType": "uint256",
          "name": "localDisputeID",
          "type": "uint256"
        },
        {
          "indexed": true,
          "internalType": "uint256",
          "name": "round",
          "type": "uint256"
        },
        {
          "indexed": false,
          "internalType": "uint256",
          "name": "ruling",
          "type": "uint256"
        },
        {
          "indexed": true,
          "internalType": "address",
          "name": "contributor",
          "type": "address"
        },
        {
          "indexed": false,
          "internalType": "uint256",
          "name": "reward",
          "type": "uint256"
        }
      ],
      "name": "Withdrawal",
      "type": "event"
    },
    {
      "inputs": [],
      "name": "MULTIPLIER_DIVISOR",
      "outputs": [
        {
          "internalType": "uint256",
          "name": "",
          "type": "uint256"
        }
      ],
      "stateMutability": "view",
      "type": "function"
    },
    {
      "inputs": [
        {
          "internalType": "uint256",
          "name": "",
          "type": "uint256"
        }
      ],
      "name": "QuestionDisputes",
      "outputs": [
        {
          "internalType": "address",
          "name": "disputer",
          "type": "address"
        },
        {
          "internalType": "enum RealitioProxyWithAppeals.Status",
          "name": "status",
          "type": "uint8"
        },
        {
          "internalType": "uint256",
          "name": "disputeID",
          "type": "uint256"
        },
        {
          "internalType": "bytes32",
          "name": "answer",
          "type": "bytes32"
        }
      ],
      "stateMutability": "view",
      "type": "function"
    },
    {
      "inputs": [],
      "name": "VERSION",
      "outputs": [
        {
          "internalType": "string",
          "name": "",
          "type": "string"
        }
      ],
      "stateMutability": "view",
      "type": "function"
    },
    {
      "inputs": [],
      "name": "arbitrator",
      "outputs": [
        {
          "internalType": "contract IArbitrator",
          "name": "",
          "type": "address"
        }
      ],
      "stateMutability": "view",
      "type": "function"
    },
    {
      "inputs": [],
      "name": "arbitratorExtraData",
      "outputs": [
        {
          "internalType": "bytes",
          "name": "",
          "type": "bytes"
        }
      ],
      "stateMutability": "view",
      "type": "function"
    },
    {
      "inputs": [
        {
          "internalType": "uint256",
          "name": "",
          "type": "uint256"
        }
      ],
      "name": "externalIDtoLocalID",
      "outputs": [
        {
          "internalType": "uint256",
          "name": "",
          "type": "uint256"
        }
      ],
      "stateMutability": "view",
      "type": "function"
    },
    {
      "inputs": [],
      "name": "governor",
      "outputs": [
        {
          "internalType": "address",
          "name": "",
          "type": "address"
        }
      ],
      "stateMutability": "view",
      "type": "function"
    },
    {
      "inputs": [],
      "name": "loserAppealPeriodMultiplier",
      "outputs": [
        {
          "internalType": "uint256",
          "name": "",
          "type": "uint256"
        }
      ],
      "stateMutability": "view",
      "type": "function"
    },
    {
      "inputs": [],
      "name": "loserStakeMultiplier",
      "outputs": [
        {
          "internalType": "uint256",
          "name": "",
          "type": "uint256"
        }
      ],
      "stateMutability": "view",
      "type": "function"
    },
    {
      "inputs": [],
      "name": "metaEvidenceUpdates",
      "outputs": [
        {
          "internalType": "uint256",
          "name": "",
          "type": "uint256"
        }
      ],
      "stateMutability": "view",
      "type": "function"
    },
    {
      "inputs": [],
      "name": "metadata",
      "outputs": [
        {
          "internalType": "string",
          "name": "",
          "type": "string"
        }
      ],
      "stateMutability": "view",
      "type": "function"
    },
    {
      "inputs": [],
      "name": "realitio",
      "outputs": [
        {
          "internalType": "contract IRealitio",
          "name": "",
          "type": "address"
        }
      ],
      "stateMutability": "view",
      "type": "function"
    },
    {
      "inputs": [],
      "name": "tieStakeMultiplier",
      "outputs": [
        {
          "internalType": "uint256",
          "name": "",
          "type": "uint256"
        }
      ],
      "stateMutability": "view",
      "type": "function"
    },
    {
      "inputs": [],
      "name": "winnerStakeMultiplier",
      "outputs": [
        {
          "internalType": "uint256",
          "name": "",
          "type": "uint256"
        }
      ],
      "stateMutability": "view",
      "type": "function"
    },
    {
      "inputs": [
        {
          "internalType": "string",
          "name": "_metaEvidence",
          "type": "string"
        }
      ],
      "name": "changeMetaEvidence",
      "outputs": [],
      "stateMutability": "nonpayable",
      "type": "function"
    },
    {
      "inputs": [
        {
          "internalType": "bytes32",
          "name": "_questionID",
          "type": "bytes32"
        }
      ],
      "name": "getDisputeFee",
      "outputs": [
        {
          "internalType": "uint256",
          "name": "fee",
          "type": "uint256"
        }
      ],
      "stateMutability": "view",
      "type": "function"
    },
    {
      "inputs": [
        {
          "internalType": "bytes32",
          "name": "_questionID",
          "type": "bytes32"
        },
        {
          "internalType": "uint256",
          "name": "_maxPrevious",
          "type": "uint256"
        }
      ],
      "name": "requestArbitration",
      "outputs": [
        {
          "internalType": "uint256",
          "name": "disputeID",
          "type": "uint256"
        }
      ],
      "stateMutability": "payable",
      "type": "function"
    },
    {
      "inputs": [
        {
          "internalType": "bytes32",
          "name": "_questionID",
          "type": "bytes32"
        },
        {
          "internalType": "bytes32",
          "name": "_lastHistoryHash",
          "type": "bytes32"
        },
        {
          "internalType": "bytes32",
          "name": "_lastAnswerOrCommitmentID",
          "type": "bytes32"
        },
        {
          "internalType": "address",
          "name": "_lastAnswerer",
          "type": "address"
        }
      ],
      "name": "reportAnswer",
      "outputs": [],
      "stateMutability": "nonpayable",
      "type": "function"
    },
    {
      "inputs": [
        {
          "internalType": "uint256",
          "name": "",
          "type": "uint256"
        }
      ],
      "name": "numberOfRulingOptions",
      "outputs": [
        {
          "internalType": "uint256",
          "name": "count",
          "type": "uint256"
        }
      ],
      "stateMutability": "pure",
      "type": "function"
    },
    {
      "inputs": [
        {
          "internalType": "uint256",
          "name": "_disputeID",
          "type": "uint256"
        },
        {
          "internalType": "uint256",
          "name": "_ruling",
          "type": "uint256"
        }
      ],
      "name": "rule",
      "outputs": [],
      "stateMutability": "nonpayable",
      "type": "function"
    },
    {
      "inputs": [
        {
          "internalType": "uint256",
          "name": "_disputeID",
          "type": "uint256"
        },
        {
          "internalType": "string",
          "name": "_evidenceURI",
          "type": "string"
        }
      ],
      "name": "submitEvidence",
      "outputs": [],
      "stateMutability": "nonpayable",
      "type": "function"
    },
    {
      "inputs": [
        {
          "internalType": "uint256",
          "name": "_disputeID",
          "type": "uint256"
        },
        {
          "internalType": "uint256",
          "name": "_ruling",
          "type": "uint256"
        }
      ],
      "name": "fundAppeal",
      "outputs": [
        {
          "internalType": "bool",
          "name": "fullyFunded",
          "type": "bool"
        }
      ],
      "stateMutability": "payable",
      "type": "function"
    },
    {
      "inputs": [],
      "name": "getMultipliers",
      "outputs": [
        {
          "internalType": "uint256",
          "name": "_winnerStakeMultiplier",
          "type": "uint256"
        },
        {
          "internalType": "uint256",
          "name": "_loserStakeMultiplier",
          "type": "uint256"
        },
        {
          "internalType": "uint256",
          "name": "_loserAppealPeriodMultiplier",
          "type": "uint256"
        },
        {
          "internalType": "uint256",
          "name": "_divisor",
          "type": "uint256"
        }
      ],
      "stateMutability": "view",
      "type": "function"
    },
    {
      "inputs": [
        {
          "internalType": "uint256",
          "name": "_disputeID",
          "type": "uint256"
        },
        {
          "internalType": "address payable",
          "name": "_contributor",
          "type": "address"
        },
        {
          "internalType": "uint256",
          "name": "_roundNumber",
          "type": "uint256"
        },
        {
          "internalType": "uint256",
          "name": "_ruling",
          "type": "uint256"
        }
      ],
      "name": "withdrawFeesAndRewards",
      "outputs": [
        {
          "internalType": "uint256",
          "name": "amount",
          "type": "uint256"
        }
      ],
      "stateMutability": "nonpayable",
      "type": "function"
    },
    {
      "inputs": [
        {
          "internalType": "uint256",
          "name": "_disputeID",
          "type": "uint256"
        },
        {
          "internalType": "address payable",
          "name": "_contributor",
          "type": "address"
        },
        {
          "internalType": "uint256",
          "name": "_roundNumber",
          "type": "uint256"
        },
        {
          "internalType": "uint256[]",
          "name": "_contributedTo",
          "type": "uint256[]"
        }
      ],
      "name": "withdrawFeesAndRewardsForMultipleRulings",
      "outputs": [],
      "stateMutability": "nonpayable",
      "type": "function"
    },
    {
      "inputs": [
        {
          "internalType": "uint256",
          "name": "_disputeID",
          "type": "uint256"
        },
        {
          "internalType": "address payable",
          "name": "_contributor",
          "type": "address"
        },
        {
          "internalType": "uint256[]",
          "name": "_contributedTo",
          "type": "uint256[]"
        }
      ],
      "name": "withdrawFeesAndRewardsForAllRounds",
      "outputs": [],
      "stateMutability": "nonpayable",
      "type": "function"
    },
    {
      "inputs": [
        {
          "internalType": "uint256",
          "name": "_disputeID",
          "type": "uint256"
        },
        {
          "internalType": "address payable",
          "name": "_contributor",
          "type": "address"
        },
        {
          "internalType": "uint256[]",
          "name": "_contributedTo",
          "type": "uint256[]"
        }
      ],
      "name": "getTotalWithdrawableAmount",
      "outputs": [
        {
          "internalType": "uint256",
          "name": "sum",
          "type": "uint256"
        }
      ],
      "stateMutability": "view",
      "type": "function"
    }
  ],
  "bytecode": "0x60c060405260028054600160a060020a03191633179055610bb86003819055611b586004556005556113886006553480156200003a57600080fd5b5060405162002c6b38038062002c6b8339810160408190526200005d9162000205565b6c01000000000000000000000000600160a060020a0385160260805282516200008e906000906020860190620000cb565b506c01000000000000000000000000600160a060020a0383160260a0528051620000c0906001906020840190620000cb565b5050505050620002db565b828054600181600116156101000203166002900490600052602060002090601f0160209004810192826200010357600085556200014e565b82601f106200011e57805160ff19168380011785556200014e565b828001600101855582156200014e579182015b828111156200014e57825182559160200191906001019062000131565b506200015c92915062000160565b5090565b5b808211156200015c576000815560010162000161565b60006001604060020a03808411156200018c57fe5b6040516020601f8601601f1916820181018381118382101715620001ac57fe5b8060405250819350858252868686011115620001c757600080fd5b600092505b85831015620001e9578483015182840182015291820191620001cc565b85831115620001fb5760008187840101525b5050509392505050565b600080600080608085870312156200021b578384fd5b84516200022881620002c2565b60208601519094506001604060020a038082111562000245578485fd5b818701915087601f83011262000259578485fd5b6200026a8883516020850162000177565b9450604087015191506200027e82620002c2565b60608701519193508082111562000293578283fd5b508501601f81018713620002a5578182fd5b620002b68782516020840162000177565b91505092959194509250565b600160a060020a0381168114620002d857600080fd5b50565b6080516c01000000000000000000000000900460a0516c01000000000000000000000000900461291562000356600039806106385280610d0a5280610fd2528061112f528061131c5280611441528061156152806116125280611cbf5280611ea752508061178752806117f95280611c0552506129156000f3fe6080604052600436106101c9576000357c0100000000000000000000000000000000000000000000000000000000900480637b94338311610109578063a829c3d1116100a7578063c25516e911610081578063c25516e91461047a578063d661dd311461049a578063e32511da146104af578063ffa1ad74146104cf576101c9565b8063a829c3d114610432578063bc8802a214610445578063c21ae0611461045a576101c9565b80638ea6baff116100e35780638ea6baff146103bd57806390765279146103d2578063a22352e2146103f2578063a6a7f0eb14610412576101c9565b80637b9433831461036857806385632b121461037d5780638d8b2d7e1461039d576101c9565b8063362c3479116101765780635674356b116101505780635674356b146102e95780636cc6cde1146103195780636cdc090f1461032e57806379873f8a14610343576101c9565b8063362c347914610294578063392f37e9146102b45780634b2f0ea0146102c9576101c9565b80630e274e4c116101a75780630e274e4c1461023d5780631d5120851461025f578063311a6c5614610274576101c9565b80630c139eb4146101ce5780630c340a24146101f95780630c7ac7b61461021b575b600080fd5b3480156101da57600080fd5b506101e36104e4565b6040516101f0919061247d565b60405180910390f35b34801561020557600080fd5b5061020e6104ea565b6040516101f0919061240f565b34801561022757600080fd5b50610230610506565b6040516101f091906124f3565b34801561024957600080fd5b5061025d6102583660046121a4565b6105b1565b005b34801561026b57600080fd5b506101e36105fd565b34801561028057600080fd5b5061025d61028f36600461212b565b610603565b3480156102a057600080fd5b506101e36102af36600461225c565b610878565b3480156102c057600080fd5b50610230610b77565b6102dc6102d736600461212b565b610bf0565b6040516101f09190612472565b3480156102f557600080fd5b506103096103043660046120d3565b6110d9565b6040516101f09493929190612430565b34801561032557600080fd5b5061020e61112d565b34801561033a57600080fd5b506101e3611151565b34801561034f57600080fd5b50610358611157565b6040516101f09493929190612893565b34801561037457600080fd5b506101e3611169565b34801561038957600080fd5b5061025d6103983660046121fb565b61116f565b3480156103a957600080fd5b506101e36103b83660046120d3565b6111ac565b3480156103c957600080fd5b506101e36111d1565b3480156103de57600080fd5b5061025d6103ed36600461214c565b6111d7565b3480156103fe57600080fd5b506101e361040d3660046120d3565b611271565b34801561041e57600080fd5b5061025d61042d366004612298565b6113a9565b6101e361044036600461212b565b6114b6565b34801561045157600080fd5b5061020e6117f7565b34801561046657600080fd5b506101e36104753660046120d3565b61181b565b34801561048657600080fd5b506101e36104953660046121a4565b61182d565b3480156104a657600080fd5b506101e3611b10565b3480156104bb57600080fd5b5061025d6104ca3660046120eb565b611b16565b3480156104db57600080fd5b50610230611c81565b60065481565b60025473ffffffffffffffffffffffffffffffffffffffff1681565b60018054604080516020600284861615610100027fffffffffffffffffffffffffffffffffffffffffffffffffffffffffffffffff0190941693909304601f810184900484028201840190925281815292918301828280156105a95780601f1061057e576101008083540402835291602001916105a9565b820191906000526020600020905b81548152906001019060200180831161058c57829003601f168201915b505050505081565b60008381526009602090815260408083205480845260079092528220600381015491929091905b818110156105f4576105ec8787838861116f565b6001016105d8565b50505050505050565b60045481565b60008281526009602090815260408083205480845260079092529091203373ffffffffffffffffffffffffffffffffffffffff7f00000000000000000000000000000000000000000000000000000000000000001614610698576040517f08c379a000000000000000000000000000000000000000000000000000000000815260040161068f906125c3565b60405180910390fd5b7ffffffffffffffffffffffffffffffffffffffffffffffffffffffffffffffffe8311156106f2576040517f08c379a000000000000000000000000000000000000000000000000000000000815260040161068f90612631565b6001815474010000000000000000000000000000000000000000900460ff16600381111561071c57fe5b14610753576040517f08c379a000000000000000000000000000000000000000000000000000000000815260040161068f90612835565b600381018054600091907fffffffffffffffffffffffffffffffffffffffffffffffffffffffffffffffff810190811061078957fe5b90600052602060002090600502019050600081600401805490506001146107b057846107cc565b816004016000815481106107c057fe5b90600052602060002001545b7fffffffffffffffffffffffffffffffffffffffffffffffffffffffffffffffff8101600285015583547fffffffffffffffffffffff00ffffffffffffffffffffffffffffffffffffffff1674020000000000000000000000000000000000000000178455604051909150869033907f394027a5fa6e098a1191094d1719d6929b9abc535fcc0c8f448d6a4e756222769061086890859061247d565b60405180910390a3505050505050565b60008481526009602090815260408083205480845260079092528220600381018054849190879081106108a757fe5b6000918252602090912060059091020190506002825474010000000000000000000000000000000000000000900460ff1660038111156108e357fe5b101561091b576040517f08c379a000000000000000000000000000000000000000000000000000000000815260040161068f906126d6565b600085815260018201602052604090205460ff1661096d5773ffffffffffffffffffffffffffffffffffffffff8716600090815260028201602090815260408083208884529091529020549350610aad565b60028201546001018514156109e557600085815260208290526040902054806109975760006109db565b600382015473ffffffffffffffffffffffffffffffffffffffff8916600090815260028401602090815260408083208a8452909152902054829102816109d957fe5b045b8501945050610aad565b600282015460019081016000908152908201602052604090205460ff16610aad5780600001600082600401600181548110610a1c57fe5b906000526020600020015481526020019081526020016000205481600001600083600401600081548110610a4c57fe5b60009182526020808320909101548352828101939093526040918201812054600386015473ffffffffffffffffffffffffffffffffffffffff8d1683526002870185528383208b8452909452919020549201910281610aa757fe5b04840193505b73ffffffffffffffffffffffffffffffffffffffff8716600090815260028201602090815260408083208884529091528120558315610b6c5760405173ffffffffffffffffffffffffffffffffffffffff88169085156108fc029086906000818181858888f19350505050508673ffffffffffffffffffffffffffffffffffffffff1686897f54b3cab3cb5c4aca3209db1151caff092e878011202e43a36782d4ebe0b963ae8888604051610b63929190612885565b60405180910390a45b505050949350505050565b6000805460408051602060026001851615610100027fffffffffffffffffffffffffffffffffffffffffffffffffffffffffffffffff0190941693909304601f810184900484028201840190925281815292918301828280156105a95780601f1061057e576101008083540402835291602001916105a9565b60007ffffffffffffffffffffffffffffffffffffffffffffffffffffffffffffffffe821115610c4c576040517f08c379a000000000000000000000000000000000000000000000000000000000815260040161068f9061269f565b60008381526009602090815260408083205480845260079092529091206001815474010000000000000000000000000000000000000000900460ff166003811115610c9357fe5b14610cca576040517f08c379a000000000000000000000000000000000000000000000000000000000815260040161068f9061270d565b6040517f1c3db16d00000000000000000000000000000000000000000000000000000000815260009073ffffffffffffffffffffffffffffffffffffffff7f00000000000000000000000000000000000000000000000000000000000000001690631c3db16d90610d3f90899060040161247d565b60206040518083038186803b158015610d5757600080fd5b505afa158015610d6b573d6000803e3d6000fd5b505050506040513d601f19601f82011682018060405250810190610d8f919061218c565b9050610d9c868683611cba565b600080610daa888885611e3f565b6003860180549294509092506000907fffffffffffffffffffffffffffffffffffffffffffffffffffffffffffffffff8301838110610de557fe5b600091825260208083208c84526001600590930201918201905260409091205490915060ff1615610e42576040517f08c379a000000000000000000000000000000000000000000000000000000000815260040161068f9061277b565b6000898152602082905260408120549034610e5d8684611f60565b11610e7157610e6c8583611f60565b610e73565b345b90503373ffffffffffffffffffffffffffffffffffffffff16600185038d7fcae597f39a3ad75c2e10d46b031f023c5c2babcd58ca0491b122acda3968d4c08e85604051610ec2929190612885565b60405180910390a433600090815260028401602090815260408083208e84529091529020805482019055848210610f9f576003830180548301905560048301805460018181018355600092835260208084209092018e90558d8352808601909152604080832080547fffffffffffffffffffffffffffffffffffffffffffffffffffffffffffffff0016909217909155518c917fffffffffffffffffffffffffffffffffffffffffffffffffffffffffffffffff8701918f917f39493c1b78d9a13bcc9e1d532fc7faed3889248d93affa811416ce3c6bcb1a6891a45b60048301546001101561107c57600380890180546001018155600052830154610fc89087611f60565b83600301819055507f000000000000000000000000000000000000000000000000000000000000000073ffffffffffffffffffffffffffffffffffffffff166349912f88878e60016040518463ffffffff167c010000000000000000000000000000000000000000000000000000000002815260040161104992919061286c565b6000604051808303818588803b15801561106257600080fd5b505af1158015611076573d6000803e3d6000fd5b50505050505b336108fc61108a3484611f60565b6040518115909202916000818181858888f193505050501580156110b2573d6000803e3d6000fd5b50505060008981526001909101602052604090205460ff1696505050505050505b92915050565b60076020526000908152604090208054600182015460029092015473ffffffffffffffffffffffffffffffffffffffff8216927401000000000000000000000000000000000000000090920460ff16919084565b7f000000000000000000000000000000000000000000000000000000000000000081565b60085481565b60035460045460065461271090919293565b60035481565b805160005b818110156111a45761119b86868686858151811061118e57fe5b6020026020010151610878565b50600101611174565b505050505050565b507ffffffffffffffffffffffffffffffffffffffffffffffffffffffffffffffffe90565b60055481565b60025473ffffffffffffffffffffffffffffffffffffffff163314611228576040517f08c379a000000000000000000000000000000000000000000000000000000000815260040161068f90612744565b6008547f61606860eb6c87306811e2695215385101daab53bd6ab4e9f9049aead9363c7d838360405161125c929190612519565b60405180910390a25050600880546001019055565b600081815260076020526040812081815474010000000000000000000000000000000000000000900460ff1660038111156112a857fe5b146112df576040517f08c379a000000000000000000000000000000000000000000000000000000000815260040161068f906125fa565b6040517ff7434ea900000000000000000000000000000000000000000000000000000000815273ffffffffffffffffffffffffffffffffffffffff7f0000000000000000000000000000000000000000000000000000000000000000169063f7434ea99061135290600190600401612506565b60206040518083038186803b15801561136a57600080fd5b505afa15801561137e573d6000803e3d6000fd5b505050506040513d601f19601f820116820180604052508101906113a2919061218c565b9392505050565b60008381526009602090815260408083205480845260079092529091206002815474010000000000000000000000000000000000000000900460ff1660038111156113f057fe5b10611427576040517f08c379a000000000000000000000000000000000000000000000000000000000815260040161068f906127d8565b3373ffffffffffffffffffffffffffffffffffffffff16857f000000000000000000000000000000000000000000000000000000000000000073ffffffffffffffffffffffffffffffffffffffff167fdccf2f8b2cc26eafcd61905cba744cff4b81d14740725f6376390dc6298a6a3c87876040516114a7929190612519565b60405180910390a45050505050565b600082815260076020526040812081815474010000000000000000000000000000000000000000900460ff1660038111156114ed57fe5b14611524576040517f08c379a000000000000000000000000000000000000000000000000000000000815260040161068f906125fa565b6040517fc13517e100000000000000000000000000000000000000000000000000000000815273ffffffffffffffffffffffffffffffffffffffff7f0000000000000000000000000000000000000000000000000000000000000000169063c13517e19034906115bb907ffffffffffffffffffffffffffffffffffffffffffffffffffffffffffffffffe9060019060040161286c565b6020604051808303818588803b1580156115d457600080fd5b505af11580156115e8573d6000803e3d6000fd5b50505050506040513d601f19601f8201168201806040525081019061160d919061218c565b9150817f000000000000000000000000000000000000000000000000000000000000000073ffffffffffffffffffffffffffffffffffffffff167f74baab670a4015ab2f1b467c5252a96141a2573f2908e58a92081e80d3cfde3d6001600854038760019004604051611681929190612885565b60405180910390a3817fcbb827f06aed2dd1e157f8e6b29f32604bc4e88360964014c4d4ad259f8d3fa8856040516116b9919061247d565b60405180910390a260008281526009602052604080822086905582547fffffffffffffffffffffffff000000000000000000000000000000000000000016339081177fffffffffffffffffffffff00ffffffffffffffffffffffffffffffffffffffff167401000000000000000000000000000000000000000017845560018085018690556003850180549091018155909252517ff6a94ecb00000000000000000000000000000000000000000000000000000000815273ffffffffffffffffffffffffffffffffffffffff7f0000000000000000000000000000000000000000000000000000000000000000169163f6a94ecb916117be9188918890600401612486565b600060405180830381600087803b1580156117d857600080fd5b505af11580156117ec573d6000803e3d6000fd5b505050505092915050565b7f000000000000000000000000000000000000000000000000000000000000000081565b60096020526000908152604090205481565b600083815260096020908152604080832054808452600790925282206003810154835b81811015611b055760005b8651811015611afc57600084600301838154811061187557fe5b906000526020600020906005020190506000856002015460019004600101905060008984815181106118a357fe5b60200260200101519050600260038111156118ba57fe5b875474010000000000000000000000000000000000000000900460ff1660038111156118e257fe5b101561191a576040517f08c379a000000000000000000000000000000000000000000000000000000000815260040161068f906126d6565b600081815260018401602052604090205460ff1661196f5773ffffffffffffffffffffffffffffffffffffffff8b16600090815260028401602090815260408083208484529091529020549890980197611af1565b81811415611a1257600081815260208490526040902054611991576000611a09565b8260000160008281526020019081526020016000205483600301548460020160008e73ffffffffffffffffffffffffffffffffffffffff1673ffffffffffffffffffffffffffffffffffffffff1681526020019081526020016000206000848152602001908152602001600020540281611a0757fe5b045b89019850611af1565b600082815260018401602052604090205460ff16611af15782600001600084600401600181548110611a4057fe5b906000526020600020015481526020019081526020016000205483600001600085600401600081548110611a7057fe5b90600052602060002001548152602001908152602001600020540183600301548460020160008e73ffffffffffffffffffffffffffffffffffffffff1673ffffffffffffffffffffffffffffffffffffffff1681526020019081526020016000206000848152602001908152602001600020540281611aeb57fe5b04890198505b50505060010161185b565b50600101611850565b505050509392505050565b61271081565b60008481526007602052604090206002815474010000000000000000000000000000000000000000900460ff166003811115611b4e57fe5b14611b85576040517f08c379a000000000000000000000000000000000000000000000000000000000815260040161068f90612668565b80547fffffffffffffffffffffff00ffffffffffffffffffffffffffffffffffffffff16740300000000000000000000000000000000000000001780825560028201546040517fd44e293c00000000000000000000000000000000000000000000000000000000815273ffffffffffffffffffffffffffffffffffffffff7f000000000000000000000000000000000000000000000000000000000000000081169363d44e293c93611c48938b93919291909116908a908a908a906004016124b2565b600060405180830381600087803b158015611c6257600080fd5b505af1158015611c76573d6000803e3d6000fd5b505050505050505050565b6040518060400160405280600581526020017f312e302e3000000000000000000000000000000000000000000000000000000081525081565b6000807f000000000000000000000000000000000000000000000000000000000000000073ffffffffffffffffffffffffffffffffffffffff1663afe15cfb866040518263ffffffff167c0100000000000000000000000000000000000000000000000000000000028152600401611d32919061247d565b604080518083038186803b158015611d4957600080fd5b505afa158015611d5d573d6000803e3d6000fd5b505050506040513d601f19601f82011682018060405250810190611d8191906122e2565b9150915083831480611d91575082155b15611de057814210158015611da557508042105b611ddb576040517f08c379a000000000000000000000000000000000000000000000000000000000815260040161068f90612566565b611e38565b814210158015611e0257506127106006548383030281611dfc57fe5b04820142105b611e38576040517f08c379a000000000000000000000000000000000000000000000000000000000815260040161068f90612566565b5050505050565b6000808083611e515750600554611e67565b83851415611e625750600354611e67565b506004545b6040517ff23f16e600000000000000000000000000000000000000000000000000000000815260009073ffffffffffffffffffffffffffffffffffffffff7f0000000000000000000000000000000000000000000000000000000000000000169063f23f16e690611edf908a9060019060040161286c565b60206040518083038186803b158015611ef757600080fd5b505afa158015611f0b573d6000803e3d6000fd5b505050506040513d601f19601f82011682018060405250810190611f2f919061218c565b905080611f52612710611f428386611f7b565b81611f4957fe5b84919004611fcd565b935093505050935093915050565b600082821115611f72575060006110d3565b508082036110d3565b600082611f8a575060006110d3565b82820282848281611f9757fe5b0414611fc3577fffffffffffffffffffffffffffffffffffffffffffffffffffffffffffffffff611fc5565b805b949350505050565b600082820183811015611fc3577fffffffffffffffffffffffffffffffffffffffffffffffffffffffffffffffff611fc5565b600082601f830112612010578081fd5b8135602067ffffffffffffffff8083111561202757fe5b8183026040518382820101818110848211171561204057fe5b6040528481528381019250868401828801850189101561205e578687fd5b8692505b85831015612080578035845292840192600192909201918401612062565b50979650505050505050565b60008083601f84011261209d578182fd5b50813567ffffffffffffffff8111156120b4578182fd5b6020830191508360208285010111156120cc57600080fd5b9250929050565b6000602082840312156120e4578081fd5b5035919050565b60008060008060808587031215612100578283fd5b8435935060208501359250604085013591506060850135612120816128ba565b939692955090935050565b6000806040838503121561213d578182fd5b50508035926020909101359150565b6000806020838503121561215e578182fd5b823567ffffffffffffffff811115612174578283fd5b6121808582860161208c565b90969095509350505050565b60006020828403121561219d578081fd5b5051919050565b6000806000606084860312156121b8578283fd5b8335925060208401356121ca816128ba565b9150604084013567ffffffffffffffff8111156121e5578182fd5b6121f186828701612000565b9150509250925092565b60008060008060808587031215612210578384fd5b843593506020850135612222816128ba565b925060408501359150606085013567ffffffffffffffff811115612244578182fd5b61225087828801612000565b91505092959194509250565b60008060008060808587031215612271578384fd5b843593506020850135612283816128ba565b93969395505050506040820135916060013590565b6000806000604084860312156122ac578283fd5b83359250602084013567ffffffffffffffff8111156122c9578283fd5b6122d58682870161208c565b9497909650939450505050565b600080604083850312156122f4578182fd5b505080516020909101519092909150565b60008151808452815b8181101561232a5760208185018101518683018201520161230e565b8181111561233b5782602083870101525b50601f017fffffffffffffffffffffffffffffffffffffffffffffffffffffffffffffffe0169290920160200192915050565b6000815460018082166000811461238c57600181146123c857612406565b607f600284041686527fffffffffffffffffffffffffffffffffffffffffffffffffffffffffffffff0083166020870152604086019350612406565b600283048087526123d8866128ae565b60005b828110156123fc5781546020828b01015284820191506020810190506123db565b8801602001955050505b50505092915050565b73ffffffffffffffffffffffffffffffffffffffff91909116815260200190565b73ffffffffffffffffffffffffffffffffffffffff85168152608081016004851061245757fe5b84602083015283604083015282606083015295945050505050565b901515815260200190565b90815260200190565b92835273ffffffffffffffffffffffffffffffffffffffff919091166020830152604082015260600190565b958652602086019490945273ffffffffffffffffffffffffffffffffffffffff9283166040860152606085019190915260808401521660a082015260c00190565b6000602082526113a26020830184612305565b6000602082526113a2602083018461236e565b60006020825282602083015282846040840137818301604090810191909152601f9092017fffffffffffffffffffffffffffffffffffffffffffffffffffffffffffffffe0160101919050565b6020808252602e908201527f46756e64696e67206d757374206265206d6164652077697468696e207468652060408201527f61707065616c20706572696f642e000000000000000000000000000000000000606082015260800190565b60208082526017908201527f4f6e6c792061726269747261746f7220616c6c6f776564000000000000000000604082015260600190565b6020808252601d908201527f4172626974726174696f6e20616c726561647920726571756573746564000000604082015260600190565b6020808252600e908201527f496e76616c69642072756c696e67000000000000000000000000000000000000604082015260600190565b6020808252601b908201527f546865207374617475732073686f756c642062652052756c65642e0000000000604082015260600190565b60208082526017908201527f416e73776572206973206f7574206f6620626f756e6473000000000000000000604082015260600190565b60208082526017908201527f5468657265206973206e6f2072756c696e67207965742e000000000000000000604082015260600190565b60208082526015908201527f4e6f206469737075746520746f2061707065616c2e0000000000000000000000604082015260600190565b6020808252601e908201527f4f6e6c7920676f7665726e6f722063616e206578656375746520746869730000604082015260600190565b60208082526021908201527f41707065616c206665652068617320616c7265616479206265656e207061696460408201527f2e00000000000000000000000000000000000000000000000000000000000000606082015260800190565b6020808252602d908201527f43616e6e6f74207375626d69742065766964656e636520746f2061207265736f60408201527f6c76656420646973707574652e00000000000000000000000000000000000000606082015260800190565b6020808252601a908201527f496e76616c6964206172626974726174696f6e20737461747573000000000000604082015260600190565b600083825260406020830152611fc5604083018461236e565b918252602082015260400190565b93845260208401929092526040830152606082015260800190565b60009081526020902090565b73ffffffffffffffffffffffffffffffffffffffff811681146128dc57600080fd5b5056fea2646970667358221220849e447499cddf270cde11b17360f2fd5377e24f571980c295e34328cd30d73d64736f6c63430007060033",
  "immutableReferences": {
    "1406": [
      {
        "length": 32,
        "start": 6023
      },
      {
        "length": 32,
        "start": 6137
      },
      {
        "length": 32,
        "start": 7173
      }
    ],
    "1421": [
      {
        "length": 32,
        "start": 1592
      },
      {
        "length": 32,
        "start": 3338
      },
      {
        "length": 32,
        "start": 4050
      },
      {
        "length": 32,
        "start": 4399
      },
      {
        "length": 32,
        "start": 4892
      },
      {
        "length": 32,
        "start": 5185
      },
      {
        "length": 32,
        "start": 5473
      },
      {
        "length": 32,
        "start": 5650
      },
      {
        "length": 32,
        "start": 7359
      },
      {
        "length": 32,
        "start": 7847
      }
    ]
  },
  "source": "// SPDX-License-Identifier: MIT\n\n/**\n *  @authors: [@ferittuncer]\n *  @reviewers: []\n *  @auditors: []\n *  @bounties: []\n *  @deployments: []\n */\n\npragma solidity >=0.7;\npragma abicoder v2;\n\nimport \"./IRealitio.sol\";\nimport \"./IRealitioArbitrator.sol\";\nimport \"@kleros/arbitrable-proxy-contracts/contracts/IDisputeResolver.sol\";\nimport \"@kleros/ethereum-libraries/contracts/CappedMath.sol\";\n\n/**\n *  @title RealitioArbitratorProxyWithAppeals\n *  @dev A proxy contract for Realitio with extra logic to form an adapter between Kleros and Realitio. It notifies Realitio contract for arbitration requests and creates corresponding dispute on Kleros. Transmits Kleros ruling to Realitio contract. Maintains crowdfunded appeals and notifies Kleros contract. Provides a function to submit evidence for Kleros dispute.\n *  Disputes happen between the last answer and the challengers answer. But Kleros can rule for any valid answer as a response.\n *  There is a conversion between Kleros ruling and Realitio answer and there is a need for shifting by 1. For reviewers this should be a focus as it's quite easy to get confused. Any mistakes on this conversion will render this contract useless.\n *  NOTE: This contract trusts to the Kleros arbitrator and Realitio.\n */\ncontract RealitioProxyWithAppeals is IDisputeResolver, IRealitioArbitrator {\n    using CappedMath for uint256; // Overflows and underflows are prevented by retuning uint256 max and min values in case of overflows and underflows, respectively.\n\n    IRealitio public immutable override realitio; // Actual implementation of Realitio.\n    string public override metadata;\n    uint256 private constant NO_OF_RULING_OPTIONS = (2**256) - 2; // The amount of non 0 choices the arbitrator can give. The uint256(-1) number of choices can not be used in the current Kleros Court implementation.\n    bytes public arbitratorExtraData; // Extra data to require particular dispute and appeal behaviour. First 64 characters contain subcourtID and the second 64 characters contain number of votes in the jury.\n    IArbitrator public immutable arbitrator; // The arbitrator contract. This will be Kleros arbitrator.\n    address public governor = msg.sender; // The address that can make governance changes.\n\n    // The required fee stake that a party must pay depends on who won the previous round and is proportional to the arbitration cost such that the fee stake for a round is stake multiplier * arbitration cost for that round.\n    uint256 public winnerStakeMultiplier = 3000; // Multiplier of the arbitration cost that the winner has to pay as fee stake for a round in basis points. Default is 1x of appeal fee.\n    uint256 public loserStakeMultiplier = 7000; // Multiplier of the arbitration cost that the loser has to pay as fee stake for a round in basis points. Default is 2x of appeal fee.\n    uint256 public tieStakeMultiplier = 3000; // Multiplier of the arbitration cost that the parties has to pay as fee stake for a round in basis points, in case of tie. Default is 1x of appeal fee.\n    uint256 public loserAppealPeriodMultiplier = 5000; // Multiplier of the appeal period for losers (any other ruling options) in basis points. Default is 1/2 of original appeal period.\n    uint256 public constant MULTIPLIER_DIVISOR = 10000; // Divisor parameter for multipliers.\n\n    enum Status {\n        None, // The question hasn't been requested arbitration yet.\n        Disputed, // The question has been requested arbitration.\n        Ruled, // The question has been ruled by arbitrator.\n        Reported // The answer of the question has been reported to Realitio.\n    }\n\n    // To track internal state in this contract\n    struct QuestionDispute {\n        address disputer; // The address that requested the arbitration.\n        Status status; // The current status of the question.\n        uint256 disputeID; // The ID of the dispute raised in the arbitrator contract.\n        bytes32 answer; // The answer given by the arbitrator.\n        Round[] rounds; // Tracks each appeal round of a dispute.\n    }\n\n    // For appeal logic\n    struct Round {\n        mapping(uint256 => uint256) paidFees; // Tracks the fees paid in this round in the form paidFees[answer].\n        mapping(uint256 => bool) hasPaid; // True if the fees for this particular answer has been fully paid in the form hasPaid[answer].\n        mapping(address => mapping(uint256 => uint256)) contributions; // Maps contributors to their contributions for each answer in the form contributions[address][answer].\n        uint256 feeRewards; // Sum of reimbursable appeal fees available to the parties that made contributions to the answer that ultimately wins a dispute.\n        uint256[] fundedRulings; // Stores the answer choices that are fully funded.\n    }\n\n    mapping(uint256 => QuestionDispute) public QuestionDisputes; // Maps a question ID to its data.\n    uint256 public metaEvidenceUpdates; // The number of times the meta evidence has been updated. Used to track the latest meta evidence ID.\n    mapping(uint256 => uint256) public override externalIDtoLocalID; // Arbitrator dispute ids to local identifiers. We use questions id casted to int as local identifier.\n\n    /** @dev Emitted when arbitration is requested, to link dispute ID to question ID for dynamic script. See metaevidence.\n     *  @param _disputeID The ID of the dispute in the ERC792 arbitrator.\n     *  @param _questionID The ID of the question.\n     */\n    event DisputeIDToQuestionID(uint256 indexed _disputeID, bytes32 _questionID);\n\n    /** @dev Constructor.\n     *  @param _realitio The address of the Realitio contract.\n     *  @param _metadata The metadata required for RealitioArbitrator.\n     *  @param _arbitrator The address of the ERC792 arbitrator.\n     *  @param _arbitratorExtraData The extra data used to raise a dispute in the ERC792 arbitrator.\n     */\n    constructor(\n        IRealitio _realitio,\n        string memory _metadata,\n        IArbitrator _arbitrator,\n        bytes memory _arbitratorExtraData\n    ) {\n        realitio = _realitio;\n        metadata = _metadata;\n        arbitrator = _arbitrator;\n        arbitratorExtraData = _arbitratorExtraData;\n    }\n\n    /** @dev Updates the meta evidence used for disputes.\n     *  @param _metaEvidence URI to the new meta evidence file.\n     */\n    function changeMetaEvidence(string calldata _metaEvidence) external {\n        require(msg.sender == governor, \"Only governor can execute this\");\n        emit MetaEvidence(metaEvidenceUpdates, _metaEvidence);\n        metaEvidenceUpdates++;\n    }\n\n    /** @dev Sets the meta evidence. Can only be called once.\n     *  @param _questionID The question id as in Realitio side.\n     */\n    function getDisputeFee(bytes32 _questionID) external view override returns (uint256 fee) {\n        QuestionDispute storage question = QuestionDisputes[uint256(_questionID)];\n        require(question.status == Status.None, \"Arbitration already requested\");\n\n        return arbitrator.arbitrationCost(arbitratorExtraData);\n    }\n\n    /** @dev Sets the meta evidence. Can only be called once.\n     *  @param _questionID The question id as in Realitio side.\n     *  @param _maxPrevious If specified, reverts if a bond higher than this was submitted after you sent your transaction.\n     */\n    function requestArbitration(bytes32 _questionID, uint256 _maxPrevious) external payable returns (uint256 disputeID) {\n        QuestionDispute storage question = QuestionDisputes[uint256(_questionID)];\n        require(question.status == Status.None, \"Arbitration already requested\");\n\n        // Notify Kleros\n        disputeID = arbitrator.createDispute{value: msg.value}(NO_OF_RULING_OPTIONS, arbitratorExtraData);\n        emit Dispute(arbitrator, disputeID, metaEvidenceUpdates - 1, uint256(_questionID));\n        emit DisputeIDToQuestionID(disputeID, _questionID); // For the dynamic script https://github.com/kleros/realitio-script/blob/master/src/index.js\n        externalIDtoLocalID[disputeID] = uint256(_questionID);\n\n        // Update internal state\n        question.disputer = msg.sender;\n        question.status = Status.Disputed;\n        question.disputeID = disputeID;\n        question.rounds.push();\n\n        // Notify Realitio\n        realitio.notifyOfArbitrationRequest(_questionID, msg.sender, _maxPrevious);\n    }\n\n    /** @dev Reports the answer to a specified question from the Kleros arbitrator to the Realitio contract.\n     *  @param _questionID The ID of the question.\n     *  @param _lastHistoryHash The history hash given with the last answer to the question in the Realitio contract.\n     *  @param _lastAnswerOrCommitmentID The last answer given, or its commitment ID if it was a commitment, to the question in the Realitio contract, in bytes32.\n     *  @param _lastAnswerer The last answerer to the question in the Realitio contract.\n     */\n    function reportAnswer(\n        bytes32 _questionID,\n        bytes32 _lastHistoryHash,\n        bytes32 _lastAnswerOrCommitmentID,\n        address _lastAnswerer\n    ) external {\n        QuestionDispute storage questionDispute = QuestionDisputes[uint256(_questionID)];\n        require(questionDispute.status == Status.Ruled, \"The status should be Ruled.\");\n\n        questionDispute.status = Status.Reported;\n\n        realitio.assignWinnerAndSubmitAnswerByArbitrator(_questionID, questionDispute.answer, questionDispute.disputer, _lastHistoryHash, _lastAnswerOrCommitmentID, _lastAnswerer);\n    }\n\n    /* Following section contains implementation of IDisputeResolver */\n\n    /** @dev Returns number of possible ruling options. Valid rulings are [0, return value].\n     *  @return count The number of ruling options.\n     */\n    function numberOfRulingOptions(uint256) external pure override returns (uint256 count) {\n        return NO_OF_RULING_OPTIONS;\n    }\n\n    /** @dev Receives ruling from Kleros and executes consequences.\n     *  @param _disputeID ID of Kleros dispute.\n     *  @param _ruling Ruling that is given by Kleros. This needs to be converted to Realitio answer by shifting by 1.\n     */\n    function rule(uint256 _disputeID, uint256 _ruling) public override {\n        uint256 questionID = externalIDtoLocalID[_disputeID];\n        QuestionDispute storage questionDispute = QuestionDisputes[uint256(questionID)];\n\n        require(IArbitrator(msg.sender) == arbitrator, \"Only arbitrator allowed\");\n        require(_ruling <= NO_OF_RULING_OPTIONS, \"Invalid ruling\");\n        require(questionDispute.status == Status.Disputed, \"Invalid arbitration status\");\n\n        Round storage round = questionDispute.rounds[questionDispute.rounds.length - 1];\n        uint256 finalRuling = (round.fundedRulings.length == 1) ? round.fundedRulings[0] : _ruling;\n\n        questionDispute.answer = bytes32(finalRuling - 1); // Shift Kleros ruling by +1 to match Realitio layout\n        questionDispute.status = Status.Ruled;\n\n        // Notify Kleros\n        emit Ruling(IArbitrator(msg.sender), _disputeID, finalRuling);\n    }\n\n    /** @dev Allows to submit evidence for a given dispute.\n     *  @param _disputeID Dispute id as in arbitrable contract.\n     *  @param  _evidenceURI Link to evidence.\n     */\n    function submitEvidence(uint256 _disputeID, string calldata _evidenceURI) external override {\n        uint256 questionID = externalIDtoLocalID[_disputeID];\n        QuestionDispute storage questionDispute = QuestionDisputes[uint256(questionID)];\n\n        require(questionDispute.status < Status.Ruled, \"Cannot submit evidence to a resolved dispute.\");\n\n        emit Evidence(arbitrator, _disputeID, msg.sender, _evidenceURI);\n    }\n\n    /** @dev Retrieves appeal cost for each ruling. It extends the function with the same name on the arbitrator side by adding\n     *  _ruling parameter because total to be raised depends on multipliers.\n     *  @param _disputeID The dispute this function returns its appeal costs.\n     *  @param _ruling The ruling option which the caller wants to learn about its appeal cost.\n     *  @param _currentRuling The ruling option which the caller wants to learn about its appeal cost.\n     */\n    function appealCost(\n        uint256 _disputeID,\n        uint256 _ruling,\n        uint256 _currentRuling\n    ) internal view returns (uint256 originalCost, uint256 specificCost) {\n        uint256 multiplier;\n        if (_currentRuling == 0) multiplier = tieStakeMultiplier;\n        else if (_ruling == _currentRuling) multiplier = winnerStakeMultiplier;\n        else multiplier = loserStakeMultiplier;\n\n        uint256 appealFee = arbitrator.appealCost(_disputeID, arbitratorExtraData);\n        return (appealFee, appealFee.addCap(appealFee.mulCap(multiplier) / MULTIPLIER_DIVISOR));\n    }\n\n    /** @dev Reverts if appeal period has expired for given ruling option. It gives less time for funding appeal for losing ruling option (in the last round).\n     *  @param _disputeID Dispute ID of Kleros dispute.\n     *  @param _ruling The ruling option to query for.\n     *  @param _currentRuling The latest ruling given by Kleros. Note that this ruling is not final at this point, can be appealed.\n     */\n    function checkAppealPeriod(\n        uint256 _disputeID,\n        uint256 _ruling,\n        uint256 _currentRuling\n    ) internal view {\n        (uint256 originalStart, uint256 originalEnd) = arbitrator.appealPeriod(_disputeID);\n\n        if (_currentRuling == _ruling || _currentRuling == 0) require(block.timestamp >= originalStart && block.timestamp < originalEnd, \"Funding must be made within the appeal period.\");\n        else {\n            require(block.timestamp >= originalStart && block.timestamp < (originalStart + ((originalEnd - originalStart) * loserAppealPeriodMultiplier) / MULTIPLIER_DIVISOR), \"Funding must be made within the appeal period.\");\n        }\n    }\n\n    /** @dev TRUSTED. Manages contributions and calls appeal function of the specified arbitrator to appeal a dispute. This function lets appeals be crowdfunded.\n        Note that we dont need to check that msg.value is enough to pay arbitration fees as its the responsibility of the arbitrator contract.\n     *  @param _disputeID Dispute ID of Kleros dispute.\n     *  @param _ruling The ruling option to which the caller wants to contribute to.\n     *  @return fullyFunded True if the ruling option got fully funded as a result of this contribution.\n     */\n    function fundAppeal(uint256 _disputeID, uint256 _ruling) external payable override returns (bool fullyFunded) {\n        require(_ruling <= NO_OF_RULING_OPTIONS, \"Answer is out of bounds\");\n        uint256 questionID = externalIDtoLocalID[_disputeID];\n        QuestionDispute storage questionDispute = QuestionDisputes[uint256(questionID)];\n        require(questionDispute.status == Status.Disputed, \"No dispute to appeal.\");\n\n        uint256 currentRuling = arbitrator.currentRuling(_disputeID);\n\n        checkAppealPeriod(_disputeID, _ruling, currentRuling);\n        (uint256 originalCost, uint256 totalCost) = appealCost(_disputeID, _ruling, currentRuling);\n\n        uint256 roundsLength = questionDispute.rounds.length;\n        Round storage lastRound = questionDispute.rounds[roundsLength - 1];\n        require(!lastRound.hasPaid[_ruling], \"Appeal fee has already been paid.\");\n        uint256 paidFeesInLastRound = lastRound.paidFees[_ruling];\n\n        uint256 contribution = totalCost.subCap(paidFeesInLastRound) > msg.value ? msg.value : totalCost.subCap(paidFeesInLastRound);\n        emit Contribution(_disputeID, roundsLength - 1, _ruling, msg.sender, contribution);\n\n        lastRound.contributions[msg.sender][_ruling] += contribution;\n\n        if (paidFeesInLastRound >= totalCost) {\n            lastRound.feeRewards += paidFeesInLastRound;\n            lastRound.fundedRulings.push(_ruling);\n            lastRound.hasPaid[_ruling] = true;\n            emit RulingFunded(_disputeID, roundsLength - 1, _ruling);\n        }\n\n        if (lastRound.fundedRulings.length > 1) {\n            // At least two ruling options are fully funded.\n            questionDispute.rounds.push();\n\n            lastRound.feeRewards = lastRound.feeRewards.subCap(originalCost);\n            arbitrator.appeal{value: originalCost}(_disputeID, arbitratorExtraData);\n        }\n\n        msg.sender.transfer(msg.value.subCap(contribution)); // Sending extra value back to contributor.\n\n        return lastRound.hasPaid[_ruling];\n    }\n\n    /** @dev Returns stake multipliers.\n     *  @return _winnerStakeMultiplier Winners stake multiplier.\n     *  @return _loserStakeMultiplier Losers stake multiplier.\n     *  @return _loserAppealPeriodMultiplier Losers appeal period multiplier. The loser is given less time to fund its appeal to defend against last minute appeal funding attacks.\n     *  @return _divisor Multiplier divisor in basis points.\n     */\n    function getMultipliers()\n        public\n        view\n        override\n        returns (\n            uint256 _winnerStakeMultiplier,\n            uint256 _loserStakeMultiplier,\n            uint256 _loserAppealPeriodMultiplier,\n            uint256 _divisor\n        )\n    {\n        return (winnerStakeMultiplier, loserStakeMultiplier, loserAppealPeriodMultiplier, MULTIPLIER_DIVISOR);\n    }\n\n    /** @dev Allows to withdraw any reimbursable fees or rewards after the dispute gets solved.\n     *  @param _disputeID Dispute ID of Kleros dispute.\n     *  @param _contributor The address to withdraw its rewards.\n     *  @param _roundNumber The number of the round caller wants to withdraw from.\n     *  @param _ruling A ruling option that the caller wants to withdraw fees and rewards related to it.\n     */\n    function withdrawFeesAndRewards(\n        uint256 _disputeID,\n        address payable _contributor,\n        uint256 _roundNumber,\n        uint256 _ruling\n    ) public override returns (uint256 amount) {\n        uint256 questionID = externalIDtoLocalID[_disputeID];\n        QuestionDispute storage questionDispute = QuestionDisputes[uint256(questionID)];\n\n        Round storage round = questionDispute.rounds[_roundNumber];\n\n        require(questionDispute.status >= Status.Ruled, \"There is no ruling yet.\");\n\n        if (!round.hasPaid[_ruling]) {\n            // Allow to reimburse if funding was unsuccessful for this ruling option.\n            amount = round.contributions[_contributor][_ruling];\n        } else {\n            // Funding was successful for this ruling option.\n            if (_ruling == (uint256(questionDispute.answer) + 1)) {\n                // This ruling option is the ultimate winner.\n                uint256 paidFees = round.paidFees[_ruling];\n                amount += paidFees > 0 ? (round.contributions[_contributor][_ruling] * round.feeRewards) / paidFees : 0;\n            } else if (!round.hasPaid[uint256(questionDispute.answer) + 1]) {\n                // This ruling option was not the ultimate winner, but the ultimate winner was not funded in this round. In this case funded ruling option(s) wins by default. Prize is distributed among contributors of funded ruling option(s).\n                amount += (round.contributions[_contributor][_ruling] * round.feeRewards) / (round.paidFees[round.fundedRulings[0]] + round.paidFees[round.fundedRulings[1]]);\n            }\n        }\n\n        round.contributions[_contributor][_ruling] = 0;\n        if (amount != 0) {\n            _contributor.send(amount); // User is responsible for accepting the reward.\n            emit Withdrawal(_disputeID, _roundNumber, _ruling, _contributor, amount);\n        }\n    }\n\n    /** @dev Allows to withdraw any reimbursable fees or rewards after the dispute gets solved. For multiple ruling options at once.\n     *  @param _disputeID Dispute ID of Kleros dispute.\n     *  @param _contributor The address to withdraw its rewards.\n     *  @param _roundNumber The number of the round caller wants to withdraw from.\n     *  @param _contributedTo Rulings that received contributions from contributor.\n     */\n    function withdrawFeesAndRewardsForMultipleRulings(\n        uint256 _disputeID,\n        address payable _contributor,\n        uint256 _roundNumber,\n        uint256[] memory _contributedTo\n    ) public override {\n        uint256 contributionArrayLength = _contributedTo.length;\n        for (uint256 contributionNumber = 0; contributionNumber < contributionArrayLength; contributionNumber++) {\n            withdrawFeesAndRewards(_disputeID, _contributor, _roundNumber, _contributedTo[contributionNumber]);\n        }\n    }\n\n    /** @dev Allows to withdraw any rewards or reimbursable fees after the dispute gets resolved. For multiple rulings options and for all rounds at once.\n     *  @param _disputeID Dispute ID of Kleros dispute.\n     *  @param _contributor The address to withdraw its rewards.\n     *  @param _contributedTo Rulings that received contributions from contributor.\n     */\n    function withdrawFeesAndRewardsForAllRounds(\n        uint256 _disputeID,\n        address payable _contributor,\n        uint256[] memory _contributedTo\n    ) external override {\n        uint256 questionID = externalIDtoLocalID[_disputeID];\n        QuestionDispute storage questionDispute = QuestionDisputes[uint256(questionID)];\n        uint256 noOfRounds = questionDispute.rounds.length;\n\n        for (uint256 roundNumber = 0; roundNumber < noOfRounds; roundNumber++) {\n            withdrawFeesAndRewardsForMultipleRulings(_disputeID, _contributor, roundNumber, _contributedTo);\n        }\n    }\n\n    /** @dev Returns the sum of withdrawable amount.\n     *  @param _disputeID Dispute ID of Kleros dispute.\n     *  @param _contributor The contributor for which to query.\n     *  @param _contributedTo Ruling options to look for potential withdrawals.\n     *  @return sum The total amount available to withdraw.\n     */\n    function getTotalWithdrawableAmount(\n        uint256 _disputeID,\n        address payable _contributor,\n        uint256[] memory _contributedTo\n    ) public view override returns (uint256 sum) {\n        uint256 questionID = externalIDtoLocalID[_disputeID];\n        QuestionDispute storage questionDispute = QuestionDisputes[uint256(questionID)];\n        uint256 noOfRounds = questionDispute.rounds.length;\n        for (uint256 roundNumber = 0; roundNumber < noOfRounds; roundNumber++) {\n            for (uint256 contributionNumber = 0; contributionNumber < _contributedTo.length; contributionNumber++) {\n                Round storage round = questionDispute.rounds[roundNumber];\n                uint256 finalRuling = uint256(questionDispute.answer) + 1;\n                uint256 ruling = _contributedTo[contributionNumber];\n                require(questionDispute.status >= Status.Ruled, \"There is no ruling yet.\");\n\n                if (!round.hasPaid[ruling]) {\n                    // Allow to reimburse if funding was unsuccessful for this ruling option.\n                    sum += round.contributions[_contributor][ruling];\n                } else {\n                    //Funding was successful for this ruling option.\n                    if (ruling == finalRuling) {\n                        // This ruling option is the ultimate winner.\n                        sum += round.paidFees[ruling] > 0 ? (round.contributions[_contributor][ruling] * round.feeRewards) / round.paidFees[ruling] : 0;\n                    } else if (!round.hasPaid[finalRuling]) {\n                        // This ruling option was not the ultimate winner, but the ultimate winner was not funded in this round. In this case funded ruling option(s) wins by default. Prize is distributed among contributors of funded ruling option(s).\n                        sum += (round.contributions[_contributor][ruling] * round.feeRewards) / (round.paidFees[round.fundedRulings[0]] + round.paidFees[round.fundedRulings[1]]);\n                    }\n                }\n            }\n        }\n    }\n}\n",
  "sourcePath": "/home/f/repos/realitio-arbitrator-with-appeals/contracts/Realitio/RealitioProxyWithAppeals.sol",
  "compiler": {
    "name": "solc",
    "version": "0.7.6+commit.7338295f.Emscripten.clang"
  },
  "schemaVersion": "3.4.0",
  "updatedAt": "2021-05-01T15:52:50.200Z",
  "devdoc": {
    "details": "A proxy contract for Realitio with extra logic to form an adapter between Kleros and Realitio. It notifies Realitio contract for arbitration requests and creates corresponding dispute on Kleros. Transmits Kleros ruling to Realitio contract. Maintains crowdfunded appeals and notifies Kleros contract. Provides a function to submit evidence for Kleros dispute.  Disputes happen between the last answer and the challengers answer. But Kleros can rule for any valid answer as a response.  There is a conversion between Kleros ruling and Realitio answer and there is a need for shifting by 1. For reviewers this should be a focus as it's quite easy to get confused. Any mistakes on this conversion will render this contract useless.  NOTE: This contract trusts to the Kleros arbitrator and Realitio.",
    "events": {
      "DisputeIDToQuestionID(uint256,bytes32)": {
        "details": "Emitted when arbitration is requested, to link dispute ID to question ID for dynamic script. See metaevidence.",
        "params": {
          "_disputeID": "The ID of the dispute in the ERC792 arbitrator.",
          "_questionID": "The ID of the question."
        }
      }
    },
    "kind": "dev",
    "methods": {
      "changeMetaEvidence(string)": {
        "details": "Updates the meta evidence used for disputes.",
        "params": {
          "_metaEvidence": "URI to the new meta evidence file."
        }
      },
      "constructor": {
        "details": "Constructor.",
        "params": {
          "_arbitrator": "The address of the ERC792 arbitrator.",
          "_arbitratorExtraData": "The extra data used to raise a dispute in the ERC792 arbitrator.",
          "_metadata": "The metadata required for RealitioArbitrator.",
          "_realitio": "The address of the Realitio contract."
        }
      },
      "fundAppeal(uint256,uint256)": {
        "details": "TRUSTED. Manages contributions and calls appeal function of the specified arbitrator to appeal a dispute. This function lets appeals be crowdfunded. Note that we dont need to check that msg.value is enough to pay arbitration fees as its the responsibility of the arbitrator contract.",
        "params": {
          "_disputeID": "Dispute ID of Kleros dispute.",
          "_ruling": "The ruling option to which the caller wants to contribute to."
        },
        "returns": {
          "fullyFunded": "True if the ruling option got fully funded as a result of this contribution."
        }
      },
      "getDisputeFee(bytes32)": {
        "details": "Sets the meta evidence. Can only be called once.",
        "params": {
          "_questionID": "The question id as in Realitio side."
        }
      },
      "getMultipliers()": {
        "details": "Returns stake multipliers.",
        "returns": {
          "_divisor": "Multiplier divisor in basis points.",
          "_loserAppealPeriodMultiplier": "Losers appeal period multiplier. The loser is given less time to fund its appeal to defend against last minute appeal funding attacks.",
          "_loserStakeMultiplier": "Losers stake multiplier.",
          "_winnerStakeMultiplier": "Winners stake multiplier."
        }
      },
      "getTotalWithdrawableAmount(uint256,address,uint256[])": {
        "details": "Returns the sum of withdrawable amount.",
        "params": {
          "_contributedTo": "Ruling options to look for potential withdrawals.",
          "_contributor": "The contributor for which to query.",
          "_disputeID": "Dispute ID of Kleros dispute."
        },
        "returns": {
          "sum": "The total amount available to withdraw."
        }
      },
      "numberOfRulingOptions(uint256)": {
        "details": "Returns number of possible ruling options. Valid rulings are [0, return value].",
        "returns": {
          "count": "The number of ruling options."
        }
      },
      "reportAnswer(bytes32,bytes32,bytes32,address)": {
        "details": "Reports the answer to a specified question from the Kleros arbitrator to the Realitio contract.",
        "params": {
          "_lastAnswerOrCommitmentID": "The last answer given, or its commitment ID if it was a commitment, to the question in the Realitio contract, in bytes32.",
          "_lastAnswerer": "The last answerer to the question in the Realitio contract.",
          "_lastHistoryHash": "The history hash given with the last answer to the question in the Realitio contract.",
          "_questionID": "The ID of the question."
        }
      },
      "requestArbitration(bytes32,uint256)": {
        "details": "Sets the meta evidence. Can only be called once.",
        "params": {
          "_maxPrevious": "If specified, reverts if a bond higher than this was submitted after you sent your transaction.",
          "_questionID": "The question id as in Realitio side."
        }
      },
      "rule(uint256,uint256)": {
        "details": "Receives ruling from Kleros and executes consequences.",
        "params": {
          "_disputeID": "ID of Kleros dispute.",
          "_ruling": "Ruling that is given by Kleros. This needs to be converted to Realitio answer by shifting by 1."
        }
      },
      "submitEvidence(uint256,string)": {
        "details": "Allows to submit evidence for a given dispute.",
        "params": {
          "_disputeID": "Dispute id as in arbitrable contract.",
          "_evidenceURI": "Link to evidence."
        }
      },
      "withdrawFeesAndRewards(uint256,address,uint256,uint256)": {
        "details": "Allows to withdraw any reimbursable fees or rewards after the dispute gets solved.",
        "params": {
          "_contributor": "The address to withdraw its rewards.",
          "_disputeID": "Dispute ID of Kleros dispute.",
          "_roundNumber": "The number of the round caller wants to withdraw from.",
          "_ruling": "A ruling option that the caller wants to withdraw fees and rewards related to it."
        }
      },
      "withdrawFeesAndRewardsForAllRounds(uint256,address,uint256[])": {
        "details": "Allows to withdraw any rewards or reimbursable fees after the dispute gets resolved. For multiple rulings options and for all rounds at once.",
        "params": {
          "_contributedTo": "Rulings that received contributions from contributor.",
          "_contributor": "The address to withdraw its rewards.",
          "_disputeID": "Dispute ID of Kleros dispute."
        }
      },
      "withdrawFeesAndRewardsForMultipleRulings(uint256,address,uint256,uint256[])": {
        "details": "Allows to withdraw any reimbursable fees or rewards after the dispute gets solved. For multiple ruling options at once.",
        "params": {
          "_contributedTo": "Rulings that received contributions from contributor.",
          "_contributor": "The address to withdraw its rewards.",
          "_disputeID": "Dispute ID of Kleros dispute.",
          "_roundNumber": "The number of the round caller wants to withdraw from."
        }
      }
    },
    "stateVariables": {
      "externalIDtoLocalID": {
        "details": "Maps external (arbitrator side) dispute id to local (arbitrable) dispute id. This is necessary to obtain local dispute data by arbitrators id.",
        "params": {
          "_externalDisputeID": "Dispute id as in arbitrator side."
        },
        "return": "localDisputeID Dispute id as in arbitrable contract."
      }
    },
    "title": "RealitioArbitratorProxyWithAppeals",
    "version": 1
  },
  "userdoc": {
    "kind": "user",
    "methods": {},
    "version": 1
  }
}